:020000040000FA
:0600000002135A020895EC
:03002B0002110DB2
:03003300020E3486
:030053000207CAD7
:03007B00020E0C66
:10008300020829010000000000F8FF07FFFF00003D
:100093000504000000030001FFFFFFFF00451014EB
:1000A300102700007A0000000C010000A0A10B0043
:1000B300100080AD100020000080180030000020E8
:1000C300FD00020000D71A000000000000371B00EB
:1000D300000000000000000000000000000000001D
:1000E3000000000000000000000000000000000607
:1000F300FFFF1E200101FF031F0000451F0000003A
:10010300000000000000000000000000000000FFED
:100113003C003C00450032000100E8030A000000F7
:100123000000000000001E00030104010C00020592
:1001330016C203B4C203040107010200000002DC7B
:10014300C30404010C00020104C400000001040004
:10015300001C19000000E8030000FFFF6D1901886F
:10016300130000E803000064006400B801A0BB0DA5
:1001730000A0BB0D00020202070401051E02051EBA
:10018300020A0A010108080103B80B02803E0102BA
:10019300FEFFE8030A050001FFFF020A1401E00164
:1001A30000B0423BAAB83F8C906339AA0CA33A0033
:1001B300941E3C8042633DCFFE753E1572313FF382
:1001C30004353F8096184B000080BF2292D43EDD59
:1001D3009B2A3F04000040FFFF7F7FFFFF7FFF015B
:1001E3000080341872313F02000000050301010F43
:1001F30003000300030003000300030003000300E4
:10020300030005000A00140028004F009E000000B0
:10021300D33100000000093100000000FF0000009E
:10022300FF0012138860461213A6603DE968700848
:10023300F618F618F618F622748067F712025909B1
:100243000909748067F7221213A6601D12138870C0
:1002530005191919801A121246701F12125AC37007
:1002630003E66733191919400718181822080808F4
:1002730074FFF618F618F618F62212125A601712BF
:100283001426702192F01214147019501720F014D0
:10029300080808090909E7F61819E7F61819E7F62F
:1002A3001819E7F62212141460E6E869701F0808AB
:1002B300E62480F608E436F618547FB47F0CE6543F
:1002C300806007F6E418F618F622181822E9C6CC5F
:1002D30008C6CD08C6CE08C6CFC0E0E8C0E0EAC075
:1002E300E0EBC0E009E9F809E7FA09E7FBE6F918EA
:1002F300E6F8C3EC98ED99EE9AEBC2E7F5F0EFC29E
:10030300E795F0500E600CEBCFFBEACEFAE9CDF99E
:10031300E8CCF8EAA2E7D2E7FAEB33FB13F5F0EE09
:10032300A2E7D2E7FEEF33FFC5F013A2E730E60101
:10033300B313C5F0C3C0E0C0F07F00C39BFB605E96
:100343009418600F401D14601AD0E023F9D0E0F830
:1003530002042B8AF0E9486003D2F0E4AFF0FAF923
:10036300F8803BEB30E40D89F0EA6003D2F0E4AFB0
:10037300F0F9CAF8EB30E30D88F0EF6002D2F0AF8A
:10038300F0E4CAC9F8EB54076014FBC3EA13FAE9B3
:1003930013F9E813F8EF135002D2E0FFDBEDD0E0DE
:1003A300C0E030E739C3E49FFFF5F0EC98FC42F07E
:1003B300ED99FD42F0EE9AFE42F0D0E0F9D0E0F87C
:1003C300E5F0607AE923F9EE20E742D8028067C3BB
:1003D300EF33FFEC33FCED33FDEE33FE80EAEC2824
:1003E300FCED39FDEE3AFED0E023F9D0E0F840020F
:1003F300801BC3EE13FEED13FDEC13FCEF13500251
:10040300D2E0FF08B800067F7F74FF802EEF3350E1
:10041300178CF020F00260100CBC000C0DBD00081E
:100423000EBE000408E860DFE933E813FFEE231390
:10043300FE4F4D4C8008E95480FFE4FEFDFCEE3393
:10044300EF33F47004FCFD7E80D0E0FBD0E0FAD003
:10045300E0F8D0E0CFC618CEC618CDC618CCC6F982
:10046300221213A6700418181822121388700D7420
:10047300FFF61819F61819F61819F622E7548066CC
:10048300F6121414700F12142670F014F608F608FE
:10049300F608F680D1121426700CF608F60876805A
:1004A30008E6447F80EC12125D700C12124960BFA3
:1004B300E65480F6E480BB121249700519191980BD
:1004C300A5E869700C763F18768018F618F6E8F9F7
:1004D30022E6CDC0E018ECC0E0E633CD33CDD31334
:1004E300F6E719FCE7191933CC33C3947F400ECDDB
:1004F3009D502408E65480F6E418F6800FF4043D7A
:1005030014501408E6447FF6187680E418F618F6BB
:10051300D0E0FCD0E0FD22CCD313CCFD18E4C6CB55
:10052300C0E018E4C6CAC0E00808ED08C633E61305
:10053300F618E433C675F003C3CA97CA09CB97CB41
:10054300199C40047D08802EBD000302060D16B6DB
:10055300FF050606081618C3CA33CACB33CB33CA02
:1005630027CA09CB37CB193CC37D08803E187D08C9
:1005730020E75CC633C6CA33CACB33CB33DDF1D5F0
:10058300F0EB30E77BCA97CA09CB974ACB199C405B
:100593006F4B7025E620E0218066187D08C3CA975B
:1005A300CA09CB97CB199CD3C633C6CA33CACB333C
:1005B300CB3350C9DDE7D5F0E1D3E4C636C608C670
:1005C30036C608C636C608C636C61818188031C3DC
:1005D300CA97CA09CB97CB199CB34097C633C6CAEF
:1005E30033CACB33CB33DD34D5F02EC6A2E0C640BD
:1005F300C8CA27CA09CB37194A70BECB3CB480B9E5
:100603000808E63308E633601F181818D0E0FAD05C
:10061300E0FBD0E0FCD0E0FD22187D08CA27CA0920
:10062300CB37CB193CD3808013F618E4B67F11F691
:1006330018B6FF0EF618C60470D20808768080CA72
:10064300F618F618F680C5001213A6604F12138829
:100653006012E7548066F612124670111214267067
:100663003B090909F4F618F618F618F62212125A7D
:10067300701512141408080860EAE6447FF6187629
:100683008018E4F618F62212141460161214267059
:1006930012E4F608F608F608E65480F60909091884
:1006A300181822EAC0E0EBC0E0ECC0E0EDC0E0E6E1
:1006B30087F0A4FBACF008E687F0A42CFCE435F04B
:1006C300FA1809E687F0A42C4B60027401CA35F0CE
:1006D300FCE433FB09E687F0D2F7A42CCB35F0FC1E
:1006E3001908E687F0A42BCC35F0FBE433FD081999
:1006F300E687F0D2E7A42C4ACB35F0CD3400FC09D1
:10070300E687F0D2E7A42DCC35F0FDE433FA0918DF
:10071300E687F0D2F7A42CCD35F0CA3400FC08E606
:1007230087F0D2E7D2F7A42ACC35F07A7E20E70B04
:100733000ACB33CBCD33CDCC33CC33CB3350147046
:1007430004ED30E00ED2F1E4CD3DCDCC3CCC3B50BA
:1007530005DA05C2F1EB547FC63308E63392F0FBAA
:10076300E73309E733C39A502D2B70190C0D4C4D09
:1007730070151806E608C333700D20F10AA2F013B2
:10078300F6E418800B4024E4F630F002768018F685
:1007930018F618F68024D33B14501074FFA2F013FC
:1007A300F6187680E418F618F6800FA2F013F61800
:1007B300E63303F618ECF618EDF6D0E0FDD0E0FCD6
:1007C300D0E0FBD0E0FA22C0E074F1120BC8A2AF74
:1007D300E433F509D2AF85A708AFA1EF5508FE743E
:1007E300105E600612185B75A1EF74085E60081254
:1007F300186175A1F78024EFA2E092F0E508A2E06A
:1008030082F05017906198E0F8900861E0C398A2D5
:10081300D265D0335002E8F075A1FEE509A2E0925B
:10082300AF7F02020C27C0E074F2120BC8A2AFE440
:1008330033FED2AF9061A4E0F8759B00E591585464
:100843000860087591F71218AF8023E5915854108A
:1008530060087591EF1218B58014E591A2E092F04B
:10086300E8A2E082F05007E0C2E0F01219FF9061C5
:10087300A3E0F8E5E9585404600E1219D575E9FBB5
:10088300906193E0A2E640F2EEA2E092AF7F010214
:100893000C27C0E074F2120BC8A2AFE433FED2AF50
:1008A3009061A5E0F8E5BF585404600675BFFB12DC
:1008B3001A1780D412090C30F043120951803E8A72
:1008C300088B098C0A8D0B780812090C20F0143060
:1008D300E72B74FFFCFBFA747F8022E4FCFBFA74C1
:1008E30080801AB48008BC00F2BB00EF800F50EB8D
:1008F300F9E4C39AFAE49BFBE49CFCE499C6CC18A4
:10090300C6CB18C6CA18C6F922E4C9C608CAC6089F
:10091300CBC6D3330308CCC63392F0C3947F402EA7
:1009230094184019C9B90704CACBCC225025C3096E
:10093300CA33CACB33CBCC33CC33D9F422F4600DD6
:10094300C9CCC313CB13CBCA13CAD9F6CC22E4FC4C
:10095300FBFA2214FCFBFA22C3E498F8E499F91297
:10096300099C8026C3E49AFAE49BFBE920E7E91299
:10097300099CE498F8E499F922C3E498F8E499F916
:1009830012099CE498F8E499F9C3E49AFAE49BFB0E
:1009930022EB20E7CFE920E7E0B90010BB0008E82D
:1009A3008AF084F8AAF022E4FBC8FA22EB70227BD7
:1009B30010C833C8C933C9335007C39AC3DBF280A5
:1009C300069A50012ADBEAC833F4C8C933F4C9FADA
:1009D3002275F008E4C833C8C933C933C99AC99B1F
:1009E3005004C92AC93BD5F0ECFBC833F4C8E4C9A9
:1009F300FA22080808EAC0E0EBC0E086F0E7A4FAB0
:100A0300180986F0E7A42AFA180986F0E7A42AFA57
:100A1300180986F0E7A42AFA1986F0E7A4FBE5F0A3
:100A23002AFA190886F0E7A42BFBE5F03AFA19082D
:100A330086F0E7A42BFBE5F03AFA18180986F0E7ED
:100A4300A4C5F02BFBE43AFA1908E7C5F0C6A426BF
:100A5300F6E5F03BFBE43AFA1886F0E7A4F6E5F096
:100A63000826F6E43B08F6E43A08F6D0E0FBD0E0CB
:100A7300FA22080808E630E71112120A120A8D0852
:100A83000808C64480C618181822181818E9799E51
:100A9300C608CAC608CBC608CCC6C370207996CA96
:100AA300CBCC7019798ECBCC70137986CC700EF9C0
:100AB300802ACA33CACB33CBCC33CC331930E7F2D9
:100AC300CCCBCA3350147004EA30E00DE4CA3ACAFE
:100AD300CB3BCBCC3CCC500209C3E913C6CC182387
:100AE30013C6CB18C6CA18C6F922E4CFC0E0E4CEB9
:100AF300C0E0E4CDC0E0E4CCC0E075F020E626F62B
:100B030008E633F608E633F608E633F6181818EC69
:100B130033FCED33FDEE33FEEF33FFC3EC9709ED0A
:100B23009709EE9709EF97191919400FFFEC97FCF6
:100B330009ED97FD09EE97FE191906D5F0BFECF7FD
:100B430009EDF709EEF709EFF7191919D0E0FCD011
:100B5300E0FDD0E0FED0E0FF222521C582C0E0E524
:100B63002234FFC583C0E0E521C3958224F810AF8A
:100B7300088583228582218008858322858221D26C
:100B8300AFCEF0A3E520F0A37808E608F0A3DEFAE1
:100B9300EFF0A3E58124FAF8E608F0A3E608F0A352
:100BA300E608F0A30808E608F0A3E608F0A3158119
:100BB3001581D0E0FED0E0F8158115811581E8C0DC
:100BC300E0EEC0E022C0D02521C582C0E0E522349A
:100BD300FFC583C0E0E521C3958224F310AF0885E8
:100BE30083228582218008858322858221D2AFC812
:100BF300F0A3E9F0A3EAF0A3EBF0A37908E709F087
:100C0300A3D8FAECF0A3EDF0A3EEF0A3EFF0A3D09A
:100C1300E0F0A3D0E0F0A3D0E0F0A3E520F0A3E55B
:100C2300F0F0A322852283852182E0C0E0A3E0F9CE
:100C3300A3E0FAA3E0FBA37808E0F608A3DFFAE059
:100C4300FCA3E0FDA3E0FEA3E0FFA3E0C0E0A3E07C
:100C5300C0E0A3E0F5D0A3E0F520A3E0A3F5F010F6
:100C6300AF0885832285822180088583228582219E
:100C7300D2AFD082D083D0E0F8D0E0321213FFB9E4
:100C83000003020CBEE4900401780A79198002F093
:100C9300A3D8FCD9FA7A0A7B1C90008678A0790243
:100CA3008015E493A3AD82AE838A828B83F0A3AADB
:100CB30082AB838D828E83D8E9D9E775821A7583D7
:100CC3008D740612109E75822775832E7400121080
:100CD3009E75F0108E238F24858228858327852196
:100CE30082852283E0CEA3E0CF852882852783EB0C
:100CF300C9EAC8EDCBECCAC3E833C8E933C9EA3360
:100D0300CAEB33CBC3EA9EF526EB9FF525B350041C
:100D1300AB25AA26EC33CCED33CDD5F0DAAE23AF39
:100D230024221213A6601C12138860171214147065
:100D3300071214267001D322C0D01214267006D0D5
:100D4300D0B322C32233D0D0501430E0F6C3E79699
:100D53000809E7960809E7960809E796B32220E011
:100D6300D5E6970809E6970809E6970809E697B3D1
:100D7300221213A6601B1213886016121414700734
:100D8300121426600CB322C0D01214267005D0D0E2
:100D930022C32233D0D0501330E0EBC3E7960809C7
:100DA300E7960809E7960809E7962220E0E4E69724
:100DB3000809E6970809E6970809E69722D083D041
:100DC30082ECC0E0EDC0E0E493A3FCE493A3FDED6B
:100DD3004C600D120EE0EC24FFFCED34FFFD80EFC0
:100DE300E493A3FCE493A3FDED4C600D120FA9EC77
:100DF30024FFFCED34FFFD80EFD0E0FDD0E0FCE408
:100E030093A3C0E0E493C0E022C0E074F2120BC8E5
:100E1300A2AFE433FED2AFE58AA2E3500579021212
:100E230017CB758A00C2EBEEA2E092AF7F01020CF2
:100E330027C0E074F2120BC8A2AFE433FED2AFE5D1
:100E43008BA2E0500579041217CB758B00C2E880A2
:100E5300D6852283852182E0A3FEE0A3F5207808CE
:100E6300E0A3F608DFFAE0A3FFE0A3C0E0E0A3C03D
:100E7300E0E0A3C0E0E0A3C0E0E0A3C0E010AF085F
:100E83008582218583228008858221858322D2AFB2
:100E9300D083D0820210A4D083D082E9C0E0E4934F
:100EA300A3C386F0C5F095F0F908E493A386F0C5D3
:100EB300F095F0700BE493A3C3994005E904800215
:100EC300A3E475F002A42582F582E5F03583F5836A
:100ED300D0E0F9E493A3C0E0E493C0E022C0E0C310
:100EE300E49396087401939618400FE49366700890
:100EF30008740193661870007019A3A3C3E4939652
:100F0300087401939618A3A3400DD0E0D0E0D0E07D
:100F1300020DFCA3A3A3A3A3A3D0E0227404800423
:100F230074028000CCC0E0EDC0E0E521C39CCCADF1
:100F33002250011D10AF068C218D2280068C218D3D
:100F430022D2AF121020D0E0FDD0E0FC2274028048
:100F530000CCC0E0EDC0E0E521C39CCCAD22500144
:100F63001D10AF068C218D2280068C218D22D2AFDD
:100F7300120FFED0E0FDD0E0FC221213A660251272
:100F8300138860201214147003021426080808E75B
:100F93006670101819E766700A1819E76670041866
:100FA30019E76622F422C0E0C0F088F0E49366708B
:100FB300080874019366187000A8F0A3A3700BD0FF
:100FC300F0D0E0D0E0D0E0020DFCA3A3D0F0D0E05D
:100FD30022D083D082CCC0E0E493A36006121041F8
:100FE3001470FAE493A3600612118A1470FAD0E025
:100FF300FCE493A3C0E0E493C0E022CAC0E0E4931E
:10100300A3C582CCC582C583CDC583F0A3C582CCDD
:10101300C582C583CDC583DAE5D0E0CA22CAC0E064
:10102300E0A3C582CCC582C583CDC583F0A3C582A9
:10103300CCC582C583CDC583DAE6D0E0CA22C0E041
:10104300E493A3D39C5010E493A3C39C400AD0E041
:10105300D0E0D0E0020FF1A3A3A3D0E022700908EF
:101063000808226016181818C6C333C608C633C644
:1010730008C633C608C633C6D5E0EA22C008C3E0B3
:1010830096F50808A3E096420808A3E096420808EC
:10109300A3E09645087001D3D00822C09FF59FE4D2
:1010A30073D09F22D083D082C09FE493C0E07401A9
:1010B30093C0E0740293F59F222521F58210AF08B7
:1010C300F521400C15228008F52140021522D2AFEC
:1010D300852283227404800A7403800674028002CA
:1010E3007401C0E0F4041210BCD0E01213C2220059
:1010F300C0D0252110AF08F521500C05228008F53A
:101103002150020522D2AFD0D022C0E0C0D0E8C027
:10111300E0A8A8D2AFC2C7E8A2E792AFD0E0F8D068
:10112300D0D0E032BB0102E722C082C08389828A29
:1011330083BB0003E08002E493D083D08222601655
:10114300080808C6C313C618C613C618C613C6189C
:10115300C613C6D5E0EA22C3E0C696F608A3E0C6E6
:1011630096F608A3E0C696F608A3E0C696F62225EF
:1011730021F8E43522F9222521FAE43522FB222540
:1011830021FCE43522FD22C0E0E493A36C7009D076
:10119300E0D0E0D0E0020FF1A3A3D0E0222521109C
:1011A300AF08F521400C15228008F52140021522D5
:1011B300D2AF22C3E09608A3E09608A3E09608A363
:1011C300E096A2D265D03322E76670100809E7667D
:1011D300700A0809E76670040809E76622E066708A
:1011E3001008A3E066700A08A3E066700408A3E091
:1011F3006622C3E7960809E7960809E7960809E710
:1012030096A2D265D03322181818E4C396F608E4E0
:1012130096F608E496F608E496F622C3E096F008FC
:10122300A3E096F008A3E096F008A3E096F022C3AB
:10123300E697F60809E697F60809E697F60809E639
:1012430097F622181818E60846087009E62608706B
:1012530005E633F4220822191919E7094709700929
:10126300E727097005E733F4220922C3E4939608BC
:10127300740193960874029396087403939622E676
:1012830027F60809E637F60809E637F60809E637C8
:10129300F622700422600D18C6C333C608C633C6CF
:1012A300D5E0F41822E056F608A3E056F608A3E0CA
:1012B30056F608A3E056F622E026F608A3E036F633
:1012C30008A3E036F608A3E036F622E026F008A3EA
:1012D300E036F008A3E036F008A3E036F022E0564B
:1012E300F008A3E056F008A3E056F008A3E056F098
:1012F30022E647F60809E647F60809E647F608092D
:10130300E647F622E657F60809E657F60809E657D0
:10131300F60809E657F622600D08C6A2E713C618B9
:10132300C613C6D5E0F322C6F4C608C6F4C608C67B
:10133300F4C608C6F4C622C3E09608A3E09608A341
:10134300E09608A3E09622C3E7960809E796080902
:10135300E7960809E7962275D00075813F7521014C
:1013630075220400020C7F600C08C6C313C618C69E
:1013730013C6D5E0F422E6F008A3E6F008A3E6F0EE
:1013830008A3E6F022E7094709C3134709336002BC
:10139300E733F422E0F608A3E0F608A3E0F608A397
:1013A300E0F622E6084608C3134608336002E63334
:1013B300F422800100E9F874FF28F90470F622CAC8
:1013C300C0E0E6F0A308DAFAD0E0FA22E0F8A3E0FE
:1013D300F9A3E0FAA3E0FB22E8F0A3E9F0A3EAF023
:1013E300A3EBF022EAF0A3EBF0A3ECF0A3EDF022E1
:1013F300E0FAA3E0FBA3E0FCA3E0FD22E5C754F879
:101403004401F5C77901222521F582E43522F583CC
:1014130022E62618461846184622C2AF75D69F0202
:10142300000022E727194719471947221210A7E698
:10143300D1031210A733D2031210A7BBD203121089
:10144300A776D3031210A7D9D3031210A71DD40371
:101453001210A7B7D4031210A735D5031210A7682B
:10146300D5031210A776D6031210A796D60312102F
:10147300A7EAD6031210A7D2D7031210A7D4D90311
:101483001210A776DA031210A7C6DC031210A74ABC
:10149300DD031210A74FE0031210A783E20312101B
:1014A300A7BBE2031210A71AE4031210A724E40354
:1014B3001210A773E4031210A745E6031210A7FF47
:1014C3008E061210A7338F061210A7868F061210EE
:1014D300A78990061210A7EC86061210A74A870662
:1014E3001210A78C87061210A7AE87061210A768E2
:1014F30088061210A7AC88061210A7E188061210FE
:10150300A7DF71001210A75B72001210A78E720082
:101513001210A7BC72001210A7FA72001210A7359E
:1015230075001210A75475001210A79975001210B8
:10153300A72F76001210A77B76001210A70F770053
:101543001210A7E777001210A74378001210A7A183
:1015530078001210A71E79001210A75479001210F8
:10156300A79F79001210A7C579001210A7557A001A
:101573001210A7EC7A001210A7387B001210A7698B
:101583007B001210A7A07B001210A7267D0012106B
:10159300A7F07D001210A7C07E001210A7FC9B05C8
:1015A3001210A7069C051210A7179C051210A72F4F
:1015B3009C051210A7959C051210A7C09C0512103C
:1015C300A7DB9C051210A7109D051210A7389D05D7
:1015D3001210A7609D051210A78F9D051210A78CEE
:1015E3009E051210A7D99E051210A7EE9E05121094
:1015F300A7809F051210A7CF9F051210A7F79F057D
:101603001210A71CA1051210A7E9A2051210A78C9E
:10161300A5051210A7A6A5051210A7D3EF05121052
:10162300A7FFEF051210A71FF0051210A746F0053C
:101633001210A78DF1051210A7AEF1051210A76CB9
:10164300F2051210A703F3051210A7A9A1061210A1
:10165300A7AEA1061210A7E1A1061210A7DEB805D6
:101663001210A7B1B9051210A7F4B9051210A70FEC
:10167300BA051210A73EBA051210A75DBA051210DB
:10168300A7B3BA051210A700BC051210A7C1BD0568
:101693001210A76CBE051210A7EDBE051210A750BD
:1016A300BF051210A78EBF051210A79BBF0512100E
:1016B300A7A8BF051210A7CEBF051210A7D7BF0555
:1016C3001210A72CC0051210A770C0051210A77A1C
:1016D300C0051210A784C0051210A7E0C0051210A0
:1016E300A754C1051210A73BC2051210A79FC3053B
:1016F3001210A7CAC4051210A7D4C4051210A799C3
:10170300C5051210A7B3C5051210A7BCC505121055
:10171300A70080061210A7C780061210A7D980065B
:101723001210A75481061210A7BC9D061210A7CD54
:101733009D061210A76B9E061210A7769E06121026
:10174300A78E9E061210A7FA7F001210A7EBFF01C7
:101753001210A73D9F061210A74D9F061210A762F5
:101763009F061210A7CA9F061210A7C89A06121046
:10177300A74B9B061210A7B19B061210A7108B064E
:101783001210A7248B061210A78B8B061210A7D456
:101793008B061210A7FC8B061210A7208C061210C2
:1017A300A7438C061210A77B8C061210A7A38C06E6
:1017B3001210A7DE8C061210A7B298061210A73BD0
:1017C30099061210A74A99061210A77A99061210C1
:1017D300A706E9051210A714E9051210A78DE9055C
:1017E3001210A765EA051210A728EC051210A7BC72
:1017F300A2061210A71BCB051210A747CB05121088
:10180300A78BCD051210A7CBCD051210A70BCE05C4
:101813001210A71FCE051210A738CE051210A72A43
:10182300CF051210A7CFCF051210A7E3CF051210D3
:10183300A79092061210A7B492061210A7CD920693
:101843001210A7FF92061210A72F93061210A75C7F
:1018530093061210A7BE93061210A7CD930612107B
:10186300A7D793061210A7E493061210A701FC054D
:101873001210A721FC051210A760FC051210A77B0C
:10188300FC051210A79AFC051210A700FD05121003
:10189300A709FD051210A766FD051210A775FD0522
:1018A3001210A799FD051210A75AFE051210A7677B
:1018B300FE051210A778FE051210A77FFF04121071
:1018C300A7C7FF041210A7F3FF041210A7D6D4056D
:1018D3001210A730D6051210A73ED6051210A75135
:1018E300D6051210A766D6051210A77BD6051210CF
:1018F300A78ED6051210A702D7051210A767D70522
:101903001210A709D8051210A7CDD8051210A7DD0C
:10191300D8051210A7ECD8051210A7A49E06121022
:10192300A7C89E061210A7F09E061210A7189F06BE
:101933001210A76582061210A78C82061210A7AA9E
:1019430082061210A71D83061210A72EF905121086
:10195300A747F9051210A753F9051210A767F90550
:101963001210A785F9051210A78FF9051210A79970
:10197300F9051210A7ACF9051210A732FA051210D7
:10198300A7A7FA051210A7D6FA051210A724FB057C
:101993001210A773FB051210A78EFB051210A79850
:1019A300FB051210A7A9FB051210A7ECFB051210EB
:1019B300A756A1061210A77DAF051210A7A7AF0562
:1019C3001210A7C4AF051210A7D7AF051210A7EDC9
:1019D300AF051210A74BB0051210A783B005121064
:1019E300A777B4051210A7BCB5051210A7EFB5056C
:1019F3001210A752B6051210A7B2B7051210A7DA34
:101A0300B7051210A7EFB7051210A7FFB7051210FD
:101A1300A743B8051210A79EB8051210A7AEB805C4
:101A23001210A76496061210A77E96061210A7A698
:101A330096061210A7BF96061210A7E39606121079
:101A4300A70197061210A71897061210A746970624
:101A53001210A76197061210A73DA2061210A781C4
:101A6300E5051210A791E5051210A796E6051210D9
:101A7300A7C8E6051210A7F8E6051210A71BE7058D
:101A83001210A732E7051210A76CE7051210A7D1B1
:101A9300E7051210A713E8051210A752E805121064
:101AA300A783E8051210A7AEE8051210A732950622
:101AB3001210A75095061210A7B095061210A74F43
:101AC30096061210A7CA9C061210A7EE93061210D0
:101AD300A71295061210A74FF5041210A7B6F80423
:101AE3001210A7A7FA041210A7DDFB041210A7BE59
:101AF300FC041210A73AFE041210A706FF041210EA
:101B0300A75AFF041210A7E390061210A704910628
:101B13001210A72992061210A75392061210A7813A
:101B2300A2061210A791A2061210A79BA2061210DA
:101B3300A70080051210A70380051210A79B870535
:101B43001210A7A788051210A7268A051210A7E866
:101B53008A051210A7CE8B051210A7C58C0512108B
:101B6300A7B38D051210A7708E051210A7A08E05BE
:101B73001210A75190051210A7A6FE051210A7B8C0
:101B8300FE051210A7CCFF051210A7CFFF051210F8
:101B9300A7C499061210A7FA99061210A7109A065D
:101BA3001210A7529A061210A7629A061210A7A63D
:101BB3009A061210A7B09A061210A7F2F802121092
:101BC300A735F9021210A79AF9021210A7B7F90262
:101BD3001210A7D0F9021210A772FA021210A77BF3
:101BE300FA021210A7C0FA021210A7E9FA021210A1
:101BF300A7F6FA021210A771FB021210A7FCFB0250
:101C03001210A741FC021210A78CFC021210A7F1BC
:101C1300FC021210A714FD021210A785FD02121078
:101C2300A7DAFD021210A715FE021210A74AFE0240
:101C33001210A75CFE021210A76EFE021210A78DEF
:101C4300FE021210A796FE021210A744FF02121002
:101C5300A787FF021210A7C5FF021210A742A00612
:101C63001210A7F7CF051210A737D1051210A75AE4
:101C7300D1051210A76BD1051210A73DD305121081
:101C8300A75DD3051210A7B684061210A7EC84062D
:101C93001210A73485061210A78D86061210A7BC52
:101CA300E1041210A7D5E2041210A70FE3041210E7
:101CB300A7BDE4041210A7EBE4041210A751E70434
:101CC3001210A791E7041210A735E9041210A7C553
:101CD300E9041210A719EA041210A7BBEA041210B0
:101CE300A7FDEA041210A73FEB041210A79CEC0413
:101CF3001210A7EAED041210A721F0041210A74F47
:101D0300F0041210A776F0041210A77FF00412104B
:101D1300A7D6F0041210A771F1041210A779F404E6
:101D23001210A700F5041210A73EA3061210A792E3
:101D3300DD051210A7A8DD051210A74CDE05121051
:101D4300A78BDE051210A7A8DE051210A7D9DE05A2
:101D53001210A726DF051210A759DF051210A7944A
:101D6300DF051210A789E1051210A7CA9B061210FE
:101D7300A7299C061210A7679C061210A7A89C0609
:101D83001210A79FA0061210A70FC4011210A71BC1
:101D9300C4011210A77DC4011210A787C401121039
:101DA300A718C5011210A754C5011210A73DC601FB
:101DB3001210A750C6011210A79DC6011210A72C1E
:101DC300C7011210A762C7011210A7DDC7011210C5
:101DD300A7ACC9011210A7A6CB011210A784CC018E
:101DE3001210A7A2CD011210A7E8CF011210A72B42
:101DF300D1011210A7DAD1011210A77AD60112105D
:101E0300A76ED7011210A712D8011210A737D80155
:101E13001210A7D3D8011210A7E8D8011210A70CEB
:101E2300D9011210A77AD9011210A797D90112105C
:101E3300A7C1D9011210A757DB011210A778DB0144
:101E43001210A71EDC011210A766DC011210A7BB3B
:101E5300DC011210A75BDD011210A7BFDD01121018
:101E6300A71DDE011210A7CADE011210A738DF0179
:101E73001210A76BDF011210A7D9DF011210A72AD6
:101E8300E1011210A780E1011210A71DE201121057
:101E9300A777E4011210A7E0E4011210A756E601A8
:101EA3001210A780E6011210A79CE8011210A747A1
:101EB300EB011210A770EC011210A7A5A6031210D4
:101EC300A7AEA8031210A7E4A9031210A76BAA03D5
:101ED3001210A7B9AA031210A739AF031210A776DD
:101EE300B0031210A751B1031210A777B103121058
:101EF300A7ADB1031210A739B2031210A752B3034F
:101F03001210A7EBB3031210A7FEB3031210A720FE
:101F1300B4031210A781B4031210A7E5B40312107F
:101F2300A7E7B5031210A7FEB5031210A72BB6033C
:101F33001210A746B6031210A76DB6031210A72DF1
:101F4300C7031210A71CC8031210A740C80312101E
:101F5300A7EFA1061210A7FFC5051210A78CC6058F
:101F63001210A706C7051210A727C7051210A7034B
:101F7300C8051210A770C9051210A7E6CB041210EA
:101F8300A718CC041210A790CC041210A793CD0469
:101F93001210A7EFCD041210A766CF041210A78268
:101FA300CF041210A7D4CF041210A712D00412101A
:101FB300A725D0041210A777D0041210A7D0D004FD
:101FC3001210A78BD1041210A705D2041210A72F49
:101FD300D2041210A767D2041210A7D9D304121087
:101FE300A7B2D4041210A701D6041210A7D4D604A2
:101FF3001210A75CD7041210A7A6D7041210A7C00B
:10200300D7041210A707D8041210A727D804121058
:10201300A7BDD8041210A737D9041210A742D904B8
:102023001210A797D9041210A7F1D9041210A742CE
:10203300DA041210A7D3DC041210A7F6DD04121081
:10204300A7B6AB051210A724DF041210A74CDF04B8
:102053001210A74FDF041210A759DF041210A76C48
:10206300DF041210A7B9D1031210A721E004121044
:10207300A74DE0041210A774E0041210A798E0041F
:102083001210A709E1041210A717E1041210A72DDB
:10209300E1041210A74EE1041210A77CE104121010
:1020A300A792E1041210A7AAE1041210A7CD9F067C
:1020B3001210A7D99F061210A70DA0061210A7FD94
:1020C3007F001210A7BDCA031210A72380041210A9
:1020D300A76981041210A7B281041210A71A8204FF
:1020E3001210A77482041210A77782041210A7C3D8
:1020F30082041210A73683041210A7BE83041210A1
:10210300A7C183041210A74B84041210A78C840464
:102113001210A76188041210A7F989041210A733BB
:102123008A041210A79A8A041210A7E88D041210C9
:10213300A7738E041210A75E8F041210A79C90043D
:102143001210A7B991041210A77C92041210A7E7EA
:1021530093041210A78394041210A79095041210ED
:10216300A77C97041210A73F99041210A7DAE7037C
:102173001210A784E8031210A7EAE8031210A703BA
:10218300E9031210A77FE9031210A7C3E903121092
:10219300A7DEEA031210A71AEB031210A79AEB03A8
:1021A3001210A7E5EB031210A74CEC031210A7C7FC
:1021B300ED031210A7F5EE031210A77AEF03121026
:1021C300A780F1031210A729F2031210A7CDF2037F
:1021D3001210A72CF3031210A7A1F3031210A7F9EF
:1021E300F4031210A7C1F5031210A70BF603121084
:1021F300A727F6031210A7CDF6031210A719F703AA
:102203001210A7A5F7031210A7F5F8031210A7A73A
:10221300FA031210A769FC031210A71AFD03121088
:10222300A784FD031210A7A4FE031210A7F39A04B8
:102233001210A7679B041210A7AF9B041210A7F3F9
:102243009B041210A73C9C041210A7869C04121036
:10225300A7BE9C041210A73C9D041210A7969D04D0
:102263001210A7EA9E041210A77B9F041210A7D393
:102273009F041210A7ED9F041210A715A0041210BB
:10228300A76DA0041210A7DCA2041210A7FBA204DE
:102293001210A7DFA3041210A70FA5041210A78C16
:1022A300A5041210A7DBA5041210A73CA604121064
:1022B300A7E2A6041210A7B0A8041210A7B0A9049D
:1022C3001210A72EAB041210A70FAD041210A7759E
:1022D300AF041210A725B1041210A7F5B104121010
:1022E300A763B2041210A77AB2041210A772B30440
:1022F3001210A762B4041210A7CDB4041210A76D74
:10230300EC051210A7B9ED051210A776EE05121011
:10231300A7DAEE051210A74EEF051210A732F30548
:102323001210A74DF3051210A791F3051210A7B7CA
:10233300F3051210A7DDF3051210A7F5F30512102C
:10234300A758F4051210A76DF4051210A790F50510
:102353001210A799F5051210A7A2F5051210A7AB45
:10236300F5051210A7B5F5051210A725D90512100A
:10237300A724DD051210A729DD051210A72BDD0503
:102383001210A78C8D061210A720A3061210A758AF
:10239300F6051210A79497061210A7997F00121042
:1023A300A70189061210A7F4A2061210A796E10549
:1023B3001210A7F7A0061210A707A1061210A7B7BD
:1023C300FB011210A70080031210A7338003121021
:1023D300A79F80031210A73A81031210A7D7810386
:1023E3001210A71C82031210A73E82031210A757D4
:1023F30082031210A77D82031210A79F820312107B
:10240300A7DD82031210A72183031210A7438303BE
:102413001210A7A583031210A76C84031210A7231D
:1024230085031210A79585031210A7608603121067
:10243300A7B386031210A71987031210A7538703A4
:102443001210A7A587031210A71388031210A77EE3
:1024530088031210A78188031210A70289031210A0
:10246300A79989031210A7FA89031210A7EA8A030E
:102473001210A7098B031210A76D8C031210A77AF1
:102483008C031210A7868D031210A7938D031210CD
:10249300A79C8D031210A7748F031210A78E9003AD
:1024A3001210A70791031210A77991031210A79B8B
:1024B30091031210A72F92031210A7039403121073
:1024C300A7DA97031210A7EE97031210A7FE97033C
:1024D3001210A70898031210A71198031210A71A35
:1024E30098031210A72498031210A75198031210EF
:1024F300A77A98031210A78598031210A7A9980327
:102503001210A7CD98031210A73799031210A77DB5
:1025130099031210A79A99031210A7179A0312107E
:10252300A74E9A031210A78D9A031210A7DA9A03E3
:102533001210A7609B031210A72E9D031210A7C3AE
:102543009D031210A7A79E031210A70EA10312103A
:10255300A767A1031210A7B1A1031210A70CA3032D
:102563001210A74AA3031210A79CA3031210A7518A
:10257300A4031210A700A5031210A73DA503121070
:10258300A7D2A5031210A73EA6031210A70080022C
:102593001210A73280021210A76080021210A73611
:1025A30082021210A71683021210A76E8302121062
:1025B300A7A984021210A7F584021210A71E88028D
:1025C3001210A7118B021210A7618C021210A7F729
:1025D3008C021210A7038D021210A7358D02121060
:1025E300A7B88E021210A76990021210A7FD9002DD
:1025F3001210A74091021210A7BE91021210A7DB7E
:1026030091021210A70B92021210A740920212100D
:10261300A71093021210A7B993021210A73F9602B4
:102623001210A75F97021210A74A98021210A7CCA4
:1026330098021210A7009D021210A73D9D021210CE
:10264300A7959D021210A7C89D021210A7329E02E1
:102653001210A7689E021210A7F39E021210A74B36
:102663009F021210A722A0021210A7DBA0021210D1
:10267300A776A1021210A77EA4021210A79AA502A0
:102683001210A73DA9021210A731AA021210A734F3
:10269300AA021210A763AA021210A769AC021210B1
:1026A300A742AD021210A785AD021210A7DBAE023E
:1026B3001210A71AAF021210A7A3AF021210A7D7C6
:1026C300AF021210A79CB0021210A7B4B2021210EC
:1026D300A725B3021210A765B3021210A7F3B30222
:1026E3001210A715B5021210A7D7B5021210A7DE54
:1026F300B7021210A7F6B7021210A70AB8021210F7
:10270300A742B8021210A770B8021210A7EFB902BD
:102713001210A714BB021210A771BB021210A72339
:10272300BC021210A74ABC021210A711BD0212105C
:10273300A7A9BD021210A7CFBF021210A704C0029F
:102743001210A767C0021210A796C1021210A73E6B
:10275300C2021210A76FC2021210A787C202121080
:10276300A716C3021210A7CAC5021210A7A2C70256
:102773001210A7BEC7021210A7DAC7021210A7A829
:10278300C8021210A79BCC021210A7E83400121043
:10279300A71A35001210A70939001210A7553900DE
:1027A3001210A79B39001210A73D3A001210A799E7
:1027B3003A001210A7DE3A001210A7253C001210AF
:1027C300A7393D001210A72841001210A7AC410001
:1027D3001210A7B942001210A71543001210A70543
:1027E30045001210A77A45001210A7844500121065
:1027F300A79145001210A7BC45001210A7A34600DD
:102803001210A74D47001210A7CB47001210A7EBD9
:1028130047001210A71448001210A73648001210E0
:10282300A7964A001210A75C4B001210A7A14B00F9
:102833001210A71E4C001210A7CF4C001210A701B4
:102843004D001210A7474D001210A7834D00121020
:10285300A7D34D001210A7274E001210A77D4E00DC
:102863001210A7C94E001210A7364F001210A7B1BD
:102873004F001210A77C51001210A77C52001210B7
:10288300A7A153001210A7E056001210A7F3590096
:102893001210A7B05A001210A7F45A001210A7A4DE
:1028A3005C001210A7B85C001210A7C25C001210E3
:1028B300A7CC5C001210A7D85C001210A7F45C0030
:1028C3001210A79F5D001210A7DE5D001210A7E88B
:1028D3005D001210A7F25D001210A7625E001210D5
:1028E300A7AD5E001210A7C25F001210A71E600002
:1028F3001210A79F60001210A75E61001210A76755
:1029030062001210A79B63001210A78964001210C3
:10291300A7A164001210A7FC64001210A71A650097
:102923001210A76265001210A78965001210A72470
:1029330066001210A7EA66001210A77C6700121047
:10294300A7F667001210A71069001210A7BD69004F
:102953001210A7E56A001210A7356B001210A79991
:102963006B001210A7FB6B001210A7296C0012104A
:10297300A74D6C001210A7826C001210A7B36C0055
:102983001210A7E66C001210A7066D001210A76EB6
:102993006D001210A7626E001210A7BD6E00121018
:1029A300A7E66E001210A76E6F001210A7F16F005A
:1029B3001210A71C70001210A70171001210A7A219
:1029C300F0011210A7DAF0011210A7FBF0011210A8
:1029D300A73DF1011210A79FF1011210A7A9F10160
:1029E3001210A7B9F1011210A7F4F1011210A7D424
:1029F300F5011210A7C1F7011210A7A7F9011210D0
:102A0300A73EFA011210A7E0FA011210A7E1CD02C6
:102A13001210A75FCE021210A7BBCE021210A70698
:102A2300CF021210A721CF021210A74CCF0212100F
:102A3300A769CF021210A775CF021210A70CD102FB
:102A43001210A725D1021210A7AAD1021210A7BDF6
:102A5300D1021210A7DCD1021210A780D2021210E9
:102A6300A701D4021210A7B4D5021210A74AD602A6
:102A73001210A74DD6021210A7BDD6021210A7DB63
:102A8300D6021210A772D7021210A7BAD7021210D9
:102A9300A7BDD7021210A783D8021210A7F0D8023D
:102AA3001210A716D9021210A7A1D9021210A7BF9C
:102AB300D9021210A705DA021210A7B9DA0212100E
:102AC300A703DB021210A732DB021210A78FDB026F
:102AD3001210A7C4DB021210A7F0DB021210A7FE2C
:102AE300DB021210A74BDC021210A7BBDC02121090
:102AF300A704DD021210A750DD021210A77CDD022D
:102B03001210A787DD021210A7A5DD021210A790ED
:102B1300DE021210A79ADE021210A7D5DE021210EF
:102B2300A7E5DE021210A7EEDE021210A742DF02B3
:102B33001210A756DF021210A785E0021210A79AFF
:102B4300E0021210A728E1021210A76DE102121091
:102B5300A7F9E1021210A704E2021210A746E3024A
:102B63001210A761E3021210A7ADE3021210A71C13
:102B7300E4021210A755E4021210A76FE402121028
:102B8300A7B1E4021210A781E7021210A72EE802F0
:102B93001210A79BE8021210A7DBEA021210A7F398
:102BA300EA021210A7F6EA021210A702EB021210B1
:102BB300A716EB021210A71EEB021210A751EB028D
:102BC3001210A753EC021210A7DAEC021210A74A54
:102BD300ED021210A7CCED021210A78DEE02121017
:102BE300A7ACEE021210A74DEF021210A7AAEF0234
:102BF3001210A7ADEF021210A721F0021210A77056
:102C0300F1021210A776F2021210A701F3021210BA
:102C1300A71CF4021210A7E4F4021210A715F50280
:102C23001210A738F5021210A741F5021210A7706F
:102C3300F5021210A700F6021210A7B6F602121040
:102C4300A72BF7021210A7D2F7021210A747F80218
:102C53001210A77EF8021210A7BCF8021210A722C6
:102C6300D1031210A7ACAB051210A756AB05121077
:102C7300A742AB051210A7A1AA051210A7A5A90583
:102C83001210A7CFA8051210A7D8A6051210A72BBC
:102C9300A6051210A7BDA5051210A7B6CB041210E6
:102CA300A7ACCB041210A7C3CE031210A7EBDF040B
:102CB3001210A741CB041210A795C9041210A71A2A
:102CC300CA031210A7D9C9031210A753C9041210BB
:102CD300A773C8041210A75DC8041210A71EC80466
:102CE3001210A779C7041210A773C4041210A761A6
:102CF300C2041210A72EC2041210A7C9C1041210D5
:102D0300A75CC1041210A71BC1041210A754C0046E
:102D13001210A7EFBF041210A79ABF041210A73D09
:102D2300BF041210A714BE041210A7B1BD041210E1
:102D3300A7FBBC041210A7F6BC041210A7EABC043C
:102D43001210A79DB9041210A777B9041210A7BADD
:102D5300C9031210A787C9031210A772C90312105F
:102D6300A747C9031210A737AF051210A7FFAE0577
:102D73001210A7A8AE051210A71CB9041210A7C7FA
:102D8300B8041210A788B8041210A775B80412105B
:102D9300A711AD051210A76AB8041210A746B8040C
:102DA3001210A755B6041210A7D4B5041210A77CAD
:102DB300CB031210A790B5041210A70080041210C1
:102DC300A764B5041210A79E9B051210A7609B056C
:102DD3001210A7339B051210A7FF9A051210A79E86
:102DE3009A051210A7869A051210A7629A05121067
:102DF300A72B97051210A7F794051210A7DE9205CB
:102E03001210A76D92051210A71C92051210A7D6D7
:102E130091051210A73F91051210A753AC0512108C
:102E2300A732DE0400000080FB000022E473870069
:102E33000100211D35000400EA1C25000200EE1CE0
:102E430026000200F01C27000200F21C28000100EB
:102E5300FC1C29000100FD1C84000400F8198600F5
:102E63000100181C2A000100FE1C2B000100FF1C9E
:102E73002C000100031D2D000800041A2E00010080
:102E8300041D2F000100051D30000100061D310047
:102E93000100071D320001000C1A330001000D1A56
:102EA30034000100081D360001000E1A380001002D
:102EB300091D39000100021D830002001F1D63006C
:102EC30001001A1A64000100001D65000100011DC4
:102ED3006D0001001B1A71000800FC196600010057
:102EE3001E1D430001000F1D44000200101D45007C
:102EF3000100121D46000200131D47000800121AAC
:102F030048000100151D4B000100161D04000100BF
:102F1300221DA1000100251D37000100241D88008A
:102F23000100231D3C0001000F1A3D0001000A1D92
:102F330049000200171D670001001C1A4D00020022
:102F4300191D4E0001001B1D4F0002001C1D3E00F9
:102F530001000E1D51000100101A520001000C1D4A
:102F6300530001000D1D54000100111A0000000060
:102F730000000000000020010BC40000010020013C
:102F83000CC400000200200108C40000030020015B
:102F93000DC40000040042010CC200000500420100
:102FA30030C10000060042010EC1000007003001DD
:102FB3000EC40000004042010EC10000FDFF2101CC
:102FC30002C4010020002005201C0100210020056F
:102FD300211C010003F02127AD1C06000000100591
:102FE300E2180A000000E227DC180A000700232782
:102FF300DC18040204F02027AF1C0204000029059A
:10300300D418020401F021279D1C020402F0212799
:10301300A51C030400002905D61803041000290584
:10302300D818030414002805961C030401F0212773
:103033009F1C030402F02127A71C0504000021059F
:10304300DA18050401F02127A11C050402F0212749
:10305300A91C000136360101000102010001030130
:1030630000010401060605020000070100340801FF
:10307300000F090401010D0100FF0E0800001702F3
:103083000000190100FF1A0100011B0100FE1C01D1
:1030930000081D0200001F010001200100012102A0
:1030A30000002301000F2402000026010001270174
:1030B3000008280200FF2A0100072B0102402C010F
:1030C30000002D0100012E0100012F0100FF30013E
:1030D3000B1D310800003A0100083B01000F3C01C1
:1030E30000013D0100FF3E040000420400004604CD
:1030F30000004A0400004E0400005204000056047D
:1031030000005A04000001037103010301030103DA
:10311300010301032203020301031003000300035D
:10312300000300030003000300034203000324031E
:1031330006030003000304031203250323032503EB
:1031430023030403040300030003000344030003F5
:1031530000032303000365032100350381030003F8
:1031630005030003000300030003250323030302F5
:1031730071023001600211027002010202020202B6
:103183008002100261023A0041006302730272027C
:10319300620243020002130238000002000204022A
:1031A30012020002000200020002040204023700BD
:1031B30037003C02440200023900000200026502AB
:1031C300000235028102000205028202830200022C
:1031D3000300710030016000110070003102200310
:1031E30050048000100061000000140063007300AD
:1031F300720062004300000013000600000000009C
:10320300040012000000000000000000040004009D
:10321300370037003C0244000000000000000000BB
:1032230065000000350081000000050000008300F8
:1032330000000101710101010101110101013101CD
:10324300010101018001100161013B0014006301D0
:1032530073017201620143010001130106013D0183
:103263003500040112010001000100010001040105
:103273000401330133013C014401320136000001F2
:103283000001650100013500810100010501820192
:103293008301000136000100060000000F0000005A
:1032A3000000000000000000000003FFFF00000416
:1032B30003FFFF0000FFFF0FF4010005C404032018
:1032C300000100000B000000000000000003010FDC
:1032D30000000000000000000000000000000000EB
:1032E30000000000000000000000000000000000DB
:1032F3000000731EA31E791EA71D7F1EA91E7F1E1D
:10330300B51E851EA71D7F1EA91E8B1EA71D0000AF
:103313000000911EA71D00000000971EA71D9D1E03
:10332300A71D0000000000000000000000000000D6
:10333300000000000000000000000000000000008A
:10334300000000000000000000000000000000007A
:10335300A9210100A9210200E9200280E320030042
:10336300EF200400F5200480FB2005000121060066
:103373000D2130002B21310025213300372134006A
:103383003D21110043211400492115001F21FFFF96
:103393000000030003000400080010001F003E00AB
:1033A3007B00F600EC01D703AF075D0FB91E713D3B
:1033B3000000060000001001E218060400001805D2
:1033C300E318060410002127971C06041100212787
:1033D300991C000400002105E018000401F02127D6
:1033E300A31C000400F021279B1C000402F02127EA
:1033F300AB1C07ECFDFDFDECDCDCCCBCACAC9C9C5D
:103403008C7C7C6C6C5C5C5C4C4C3C3C2C2C1C1CA9
:1034130003EAF5E5D5D5C5B5A59595858575756596
:103423006555554545353525251515050A032802E6
:10343300CD2705D92707D3270CB5270DC127FF00B3
:103443000000160F00000B150B020002220F3300C1
:10345300000E0F5A6967426565416C6C69616E6362
:10346300653039D0D1D2D3D4D5D6D7D8D9DADBDCAD
:10347300DDDEDF303017181921301B1D1F3000032C
:103483004D4C4651181A2505020001191618161637
:1034930018230300303016181920231A1C1E30007D
:1034A3003C40423A3F3F392F47300C0E020B040B8E
:1034B3000A0708000F020402010101010902E803DF
:1034C300000000BE040A010024000300E803FF0417
:1034D300091C0404031E1E030A0C04100828020C12
:1034E3000508150F0574F7120B5CE9901AEFF090BD
:1034F3001AA4E4F0121B79901B07E4F0A3F0901ACE
:10350300F0F0A3F0122953121B7F901A2CE4F0A3BE
:10351300F012234D024E4E74F0120B5C74D3121151
:10352300A01268AA54806066901AEFE0F9121BF7A4
:103533008A088B09AF09EA4F604C7C0080010CECD0
:1035430075F003A4F8A9F0742F28F582743439F5C3
:1035530083E493F46029E493F88A828B83E06870B0
:10356300DDEC75F003A4F8743028F582743439F572
:1035730083E493C0E0740193F583D082122E2FAAC3
:1035830008EFFB121BE5126FDC64800238E985212A
:1035930082852283A3E05420601F1228698A088B46
:1035A30009AF09EA4F600A1227C1AA08EFFB121BF1
:1035B300E5126FDC64200238E9852182852283E0ED
:1035C300A2E05042901AA9E0640F702E900B4812AB
:1035D3006FE7900B48C3E094E9A3E09403400A7AB1
:1035E300007B8090191C124F307900122797E960F5
:1035F30009901CEA1213F31227AF852182852283D7
:10360300E064010238CE542070030238D37A207B61
:1036130000901AEFE0F9121D59EA4B4C4D701A90C5
:103623001B031213CFE8494A4B700E750801750945
:1036330000750A00750B00806D750C00750D007523
:103643000E00750F00121D658A088B098C0A8D0BFD
:10365300901B031213CFE8494A4B6031901B037848
:103663000812107F400E750CFF750DFF750EFF7568
:103673000F7F801985080C85090D8C0E8D0F901B0B
:1036830003780C12115A7401780C121141850C083D
:10369300850D09850E0A850F0BE5084509450A4581
:1036A3000B700302382D7C0079047A007B0012280A
:1036B3003F8A0C8B0DAE0CAF0D02377174021214DE
:1036C3000A74FFF0740312140A74FFF074041214E2
:1036D3000A74FF124FA31267647407121182126AED
:1036E3001AE96401706A1238F54480F8A3E0F974AA
:1036F3002812140AE8F0A3E9126CAEE0C0E0742AC1
:1037030012140AD0E0124F90540860167428121451
:103713000AA3E04401123902C0E0742C12140AD047
:10372300E0F01268ED6011E8240B1240E8F874161B
:1037330012140AE8F0A3E4F090C32C120F1F7406CE
:10374300121182740B12117A1224BB74041210F238
:103753008E828F83A3A3A3A3A3A3A3A3A3740612FD
:103763003902F9122821740512140A126A71EE4FF4
:10377300700302382D7C007904EEFAEFFB12283F28
:10378300740512140AEAF0A3EB124CBAE0F50CA389
:10379300E0F50DE4F50EF50F7808790C12134A40A5
:1037A30023EE2404F8E43FF985080C85090D88828B
:1037B300F583C3E0950CF0A3E0950D1270D1E849B1
:1037C30070A4800C8E828F83A3A3A3A3E4F0A3F041
:1037D3008E828F83A3A3A3A3A3A3A3A3A3A3E06422
:1037E300018E828F83A3A3A3A3A3A37020E0540419
:1037F30060030236BF8E828F83A3A3A3A3A3A3A3D5
:10380300A3A37406F07AB7123A28023769A3A3A3D5
:10381300A3E060030236BF8E828F83A3A3A3A3A377
:10382300A3A3A3A37401F002376912280F7C0079C4
:10383300017A007B0012283FEA4B6003124F297C78
:103843000079047A007B0012283FEA4B701380440E
:103853008A828B83A3A3A3A3126A89EE98EF99406C
:103863000B8A828B83A3A3A3A3126A717C007904BE
:1038730012283F8B0BA90BEA4970D5C3E5089EE5D7
:10388300099F500DC3EE9508FEEF9509FFEE4F70AB
:103893000D124F29901B031238FBA3F08024EE2E48
:1038A300FEEF338E08F509E4F50AF50B78081210DC
:1038B300D77A20123AD11210F2121D65901B03120F
:1038C30013E7852182852283E06420FAA3E0801632
:1038D300A3E054046013126141122D7F7901124257
:1038E300AF126FDC6404FB80047A007B00742D024A
:1038F30068C9EE1268D7E022E4F0A3F0A3F0221225
:103903004F95A3A3E022C082C08374EA1211A07C66
:10391300167D007900AA21AB22121BC7740812146A
:103923000A7402F0901A9812637D123949740912CD
:10393300140A126395741312140AE4126014122306
:1039430041741602525FE8F0A3E9F0901AA2126ADA
:10395300592274F7120B5C74DA1211A0EAFEEBFF22
:10396300EA4F602DAC21AD22122887740612140A87
:10397300E0601E741712140AE0FD740112140AE0C9
:10398300FCEEFAEFFB790012276DE9600479A4805D
:103993000279007426024E4B74F7120B5CEAFEEBBD
:1039A300FF8A82F583A3A3A3A3A3A3E054406017D4
:1039B3008A828B8312688A12516E60067AFF7BFFBC
:1039C30080151268868003901A9812676474FE6AE1
:1039D300700374FF6B60411268861268B012291D70
:1039E300E98E828F83600B12647312709CE4F0A3E0
:1039F300800312708BF07C9D7D278E828F8312470C
:103A0300E4E9F5087015EE4F60097901EEFAEFFB72
:103A130012281BA908024E4E7508CDAA08123A288F
:103A2300E960E380EE8E828F83126477240CF58243
:103A3300E438F583E0F91227A92274F6120B5CE946
:103A4300FEEAFF7A0F7B00121BDFEA4B601A8A82C1
:103A53008B83740CF0EEA3A3F0EF8A828B83124C5A
:103A6300091260727900802BEEF91228458B09A99F
:103A730009EA49601C8A828B83A3A3A3A3A3A3A3FC
:103A8300A3A37406124C12E0F912255DEEF9122875
:103A9300217910025E5D74F4120B5C8A088B098C29
:103AA3000A8D0B901AA9E0640F701EEA4B4C4D600F
:103AB30018901AA4E064086005E06404700B7808A9
:103AC3001210D7123ACF1210F2023D347A017B0062
:103AD300901AEFE0F9121D4774042274F4120B5C80
:103AE30074FC1211A0EAFEEBFF8A82F583A3A3E024
:103AF300F91228458A088B09EA4B7003023C178E9A
:103B0300828F83A3A882A983E0C0E0EA126068D011
:103B1300E0124A7864F160288E828F83A3E064CD3B
:103B2300601E8E828F83A3E0641A60148E828F835B
:103B3300A3E064E9600A8E828F83A3E064E17033BB
:103B4300790012281BE9602BE5082404F50AE43503
:103B530009F50B850882850983A3A3A3A3A3A31255
:103B63004B4E124A56121B8B850A82850B831268B1
:103B7300B080708E828F83A3E0C0E0740212140AB7
:103B8300D0E012526D1253901244FEC0E07403123F
:103B9300140AD0E0F0E508126D591241A7E0AA21FA
:103BA300AB2270051224B580031229057402121486
:103BB3000AE064E9702D85088285098312430D7537
:103BC3000A01780A1210E3750AE9780A1210E3125F
:103BD3004A2A1244CBFCA3E0FD8A828B831244F56C
:103BE3001210F2850882850983A3A3A3A3A3A3A329
:103BF300A3A3E064027012850882850983A3A3A3AB
:103C0300A3A3A3A3A3A37406F08E828F83A3A3E02D
:103C1300F912282112280F901CF012411974040282
:103C23003D3174F4120B5CEAFEEBFF7508008A82E7
:103C3300F583A3A3A3A3A3E060387508081267570D
:103C430079FF1225EDEA4B601075082C8E828F8365
:103C5300A3A3A3A3A3E0D2E0F08E828F83A3A3A3A5
:103C6300A3A3E0540364016003023D20430811024F
:103C73003D20EA24181256566036EA241A12565684
:103C83006003F47013126A397003A3E069600302DE
:103C93003D20750822023D20EA241B123D24241AEC
:103CA300125656FAEE2419125656F912254B806D08
:103CB3008A828B83A3A3A3A3A3A3A3A3A3124104D5
:103CC30070037508018E828F83126A3D7003A3E02F
:103CD300697006E508D2E1F508E50860158E828F64
:103CE30083A3A3E07006E508D2E58004E508D2E6E5
:103CF300F50812516164017006E508D2E0F5088EFB
:103D0300828F83A3A3E06015EE241D125975F91267
:103D1300290BE964016006E508C2E0F508A90880FB
:103D230010F582E43FF5831270F4EA22740912104D
:103D3300F27F04020E5474F0120B5C74D71211A0BC
:103D4300EAFEEBFF8A82F583A3A3A3A3E0600E90B0
:103D53001CEE1268F46006901CEE124119740312F3
:103D630011828E828F83A3A3A31262401267621211
:103D73002887E97003023ECA7801740512140AE029
:103D8300C3940240027800740712140AE0C3940239
:103D930040027800740C12140AE064F87003A3E084
:103DA300F47003023ECA740C12140AE064F970033F
:103DB300A3E0F47003023ECA740C12140AE064FA1E
:103DC3007003A3E0F47003023ECA740C12140AE0F9
:103DD30064FB7003A3E0F47003023ECA740612147A
:103DE3000AE0F9901A92E0696003023ECAE8A2E091
:103DF3004003023ECA742712140AE06003023ECA5B
:103E0300EE2413126A4F742212140A12624A241CFB
:103E1300126A4F741012140A126395740912140A69
:103E2300E0601D741A12140AE0FD740412140AE00F
:103E3300FC8E828F83126762790112276DE9703BD2
:103E4300740312117A1227BBE9F50C740912140AD0
:103E5300E0702C901A8CE060267422596422601F53
:103E630074425964427014742012140A1240FE60A2
:103E73000E742012140A1240F760047ACF804AE9C4
:103E8300A2E6504D742012140A12597B24FD600FD0
:103E930014600C24FD600824FD600424FE70287463
:103EA3002012140A1240F0700E742012140A125FCA
:103EB300A1A3E0640D601A740312117A122935E983
:103EC3006401700D0240E07AD37B001220BF0240F0
:103ED300E0EE242DF582E43FF5831243047003A33F
:103EE300E069701D75080078081210E37808121055
:103EF300E3EE242F125656F912410A1244F512101A
:103F0300F2740912140AE07003023FA812410A1264
:103F130067641229838A0E8B0FEA4B7003024039C0
:103F2300740412140AE0F88E828F83A3A3E028F8A6
:103F3300A3E03400F9E8240D1240E8F88A828B8369
:103F4300A3A3A3E068600EE88A828B83A3A3A312D2
:103F53004C021238FC7904E912140A125675A3E0D4
:103F63002AF8A3E034008882F583A3AA82AB8312E4
:103F73001BD38A088B098C0A8D0B850E82850F83D0
:103F8300A3A3A3A3780812107F40030240E090C3C9
:103F93005C78081212BB850E82850F83A3A312706F
:103FA300FAA3125399901AA4E064046008E0640928
:103FB30060030240E0E50CA2E54003024073EE24F7
:103FC3002F12565EF0EE2430125656C0E0740112E2
:103FD300140AD0E0F0EE2431125656C0E0740212F7
:103FE300140AD0E0F0741412140AE0640170267409
:103FF3000E12140A124A512413125656687003A360
:10400300E0697011740C12140A12410470077414DD
:1040130012140AE4F0EE2425F582E43FF583120F2F
:104023001F7404121182740712117A1224BB7404D0
:104033001210F20240E0901AE9E064016003023FCB
:10404300A8742012140A1240FE7009E50CA2E6506F
:1040530003023FA8741012140AE0F47003A3E0F4FF
:10406300607BEEFCEFFD740312117A1227C7806D9B
:10407300A2E65069742012140A1264837016741A2B
:1040830012140AE064027055740312117A79001253
:1040930028FF8049742012140A1240F77014741A0E
:1040A30012140AE064047035740312117A1228F3AF
:1040B300802B742012140A1240F0700C79007403E0
:1040C30012117A1229418015742012140A125FA169
:1040D300E0640C7008740312117A12294D742902DA
:1040E30068C9E82406F582E439F583E02212689072
:1040F300E0640322126890E064072212597F640689
:1041030022125172640222EE242BF582E43F1270D4
:10411300F2EE12514722E0F508A3E0AA08FBE4FC03
:10412300FD1227AF2274F4120B5CEAFEEBFF8C083E
:104133008D09901A0CE0600F126A397003A3E069CD
:104143007005122539805379001267571225698A41
:10415300828B83E5824583602CA3A3A3A3A3A3E05F
:1041630054186021E508241C1241A4120F231241A4
:10417300A0120F23EE24181244DC125C3C126A11C5
:104183001210F2801579008E828F83A3A3A3126489
:1041930069125C3C12676412253F023D34E5082432
:1041A30013F582E43509F5832274F7120B5C74F777
:1041B3001211A0EAFEEBFF901AA4E06403600DE085
:1041C30064016008E0640960030242AA8A828B8367
:1041D300A3E060030242787C007D007A027B001238
:1041E3001B85126AB68A82126A53901A95126395D6
:1041F300795312232F901AA4E064096009901AA23C
:1042030012676412297D8521828522837401125FDE
:10421300B9901AA47404F0740112117A794A122322
:104223002974011211827A9A7B1A121D7D90191F2B
:10423300E0640B70057406F0800579001242AF90BC
:104243001A9512646F7A037B00121B85901A9812D9
:10425300646F7A047B00121B85901A8FE0A2E350EF
:1042630004D2F08002C2F0125FA6901CEA1213F38C
:104273001227AF802FFC7D007A037B10121B8590E1
:10428300191FE0640B7003740AF0901A10E4F0FA3B
:104293007B40125D968E828F83A3E0F91242AF902A
:1042A3001AA4E4F01227F17409024E4B901AA212D9
:1042B30067681224CD22C082C083901A2C1268F43E
:1042C3007017901AA4E024FB6005146007800A901D
:1042D3001A32801F901A34801AE84960071240E5A9
:1042E3006401700C8A828B83A3E0F91224C1800ECF
:1042F300901B1E1268F46006125FA2122E2F025A40
:10430300ED126A59901AA2E06822126A59E8FAE992
:10431300FB2274F5120B5C74D81211A08A088B0966
:104323008A828B83A3A3A3A3A3A3A3A3E0C3940F12
:1043330050030244C68A828B83A3A3A3126A7174B7
:10434300151211828A828B83A3A3A3A3A3A3A3A37E
:104353001244CBFAA3E0FB1227FD741512140AE0F2
:10436300702E850882850983A3A3A3A3A3A3A3A374
:10437300E0C3940B401A8E828F83A3A3A3A3A3A3AA
:10438300A3A3E064027009EE240B125656F46003F3
:104393000244C6741712140AE06007640260030241
:1043A30044C6901AA4E06402601CE064066017909F
:1043B3001A2C1268F470030244C61240E5640160CB
:1043C300030244C68025901A2C1268F4701D7508E8
:1043D3000078081210E378081210E3EE2410124458
:1043E300DC8E828F831244F51210F28E828F831239
:1043F30070C9124A81126A55740212140A12624A6F
:104403001238F6C0E0740412140AD0E01244FEF528
:1044130008A3E0F509740F780812136A74051214DF
:104423000AE508F0741912140AE0C0E074061214C5
:104433000AD0E0F0741B12140AE0C0E074071214EF
:104443000AD0E0F0741612140AE0C0E074091214E2
:104453000AD0E0F0741712140AE0C0E074081214D2
:104463000AD0E0F0EE2410125656C0E0740A12147B
:104473000AD0E0F0741A12140AE0C0E0740B1214AC
:104483000AD0E0F0742712140AE0C0E0740C12148E
:104493000AD0E0F0741C12140AA982AA8389088A3C
:1044A30009750A0078081210DB7C087D007410126D
:1044B300140AAA82AB8312564D1210F2AA21AB2220
:1044C3001224C77428024FA9E0F98A828B83A3A31D
:1044D300A3A3A3A3A3A3A3E022F582E43FF583E070
:1044E300F98E828F83A3A3A3A3A3A3A3A3A3127071
:1044F300F4221267681228BD740222F0EE125C41A6
:10450300E02274F2120B5C74F81211A08A0A8B0B6E
:104513008C0C8D0D890890C278AC21AD22740812E1
:104523001020C200AC0AAD0BAA21AB221266E570C3
:1045330002D200901AF08013AC0AAD0BEE240BFAF2
:10454300E43FFB1266E5701B125138124DCB601E1F
:10455300A20040E48E828F83E0650C7004A3E065C3
:104563000D70E58E828F83A3A3E0650870DAEEFAFF
:10457300EFFB7408024A8EC082C083901AF0025A7D
:10458300EAC082C083901AF0E4F0A30247E074F714
:10459300120B5C901AF0126FE2800FEA2414F5827A
:1045A300E4126A6E121C99EEFAEFFBEA4B70EC9080
:1045B3001AF0E4F0A3F0024E4E74F2120B5C8A0C74
:1045C3008B0DEDFF890B8A828B83E08C828D83F0C8
:1045D300A3A882A9838A828B83124685124BFCE0AF
:1045E300C454F0FA88828983E04AF0EC2402F8E4A8
:1045F3003FF9850C828B83A3A3124685124698E06C
:10460300333354FC12468CE033333354F812468C64
:10461300A3E0A2E0E4331313FA88828983E04AF02B
:10462300EC2403FE50010FE50C2407F508E4350DD7
:10463300F509750A0078081210DB7C087D00EEFA94
:10464300EF12564C1210F2EE2408FE50010FE50C47
:10465300240FF508E4350DF50978081210DB7C0307
:104663007D00EEFAEF12564C1210F2E50BC3940FD5
:10467300400DE50C2412F582E4350D125C50F00276
:104683004A91A3E08882898322FA88828983E04A57
:10469300124698A322F0850C828B83A3A3A3A322A3
:1046A30074F2120B5CEBFF8C0C8D0D8A82F583E0A8
:1046B3008C828D831270B3A3A882A983E0125A95CA
:1046C300124A77C4125A8FF0EA1270BD125A9C1222
:1046D3004A75A2E2E4338C828D83124A7413131356
:1046E300541F125A95A3124A74A2E7E4338C828DA5
:1046F30083A3A3A3A3A3A3F0EA2403FE50010FF50E
:10470300088F09750A0078081210DB7C087D00E524
:104713000C24071256481210F2EE2408FE50010F23
:10472300F5088F0978081210DB7C037D00E50C2463
:104733000F1256481210F28E828F83A3A3A3E0C0F8
:10474300E01270D9D0E0F0024A9174F6120B5CEAE1
:10475300FEEBFF8A82F583A3858208858309E0F94E
:104763001224E5850882850983E064EB601E8E824E
:104773008F83A3E064E160148E828F83A3E064F1EE
:10478300600A8E828F83A3E0641A70078E828F8300
:10479300A3E4F0901CEA1213F31227AF7508017813
:1047A300081210E38E828F83A3E0F50878081210B5
:1047B300E37900901AA212646F901A981244F512CA
:1047C30010F212280F025E5DC082C083E9901B02C3
:1047D3007003E4800274018004EAF0A3EBF0025A50
:1047E300ED1267681223472274F6120B5C901B02CA
:1047F300E0701B7C0079017A007B0012283FEA4BB2
:10480300600C8A828B831268F460031227A3025E12
:104813005DC082C083124CAB401079FF122839E986
:10482300F89034E2E493C39850047901800279004C
:10483300025AED74F2120B5C8A0A8B0B8909C200CF
:104843008A828B83A3A3A3A3A3A3A3A3E0F9122820
:10485300458A0C8B0DAE0CAF0D750801EA4F600352
:10486300024917850A82850B83126469850A82854A
:104873000B83A3A3A3A3A3A3A3124A5612282D8A8F
:104883000C8B0DAE0CAF0DEA4F7003024A238A82E4
:104893008B83A3A3A3A3E4F0A3F0E50A240CFAE417
:1048A300350BFB8A82F583E0C0E0124A2AD0E0F0A0
:1048B300E50A240D124A4A240D12638F122923128A
:1048C30051501268B0E50A2411124A4A24111263A6
:1048D3008FE50A2413126A80C0E0125142D0E0F03F
:1048E300D200EE2406F8E43FF9124A3D124A785406
:1048F300046003024989901CFCE0F50A750B0074FF
:1049030007780A1212958E828F83A3A3A3A3A3A36E
:10491300124A34F08E828F83A3A3A3A3A3A3E0F54B
:104923000AA3E0F50B7407780A12136AE50A540721
:10493300FCE50960618E828F83A3A3A3A3A3A3A332
:10494300A3A37402124FA3124D40600B901A90124E
:1049530056D6A3A3126395EC70030249FAEE24061C
:10496300F8E43FF9E8FAE9124A3DF0EC24FFF50ACE
:10497300E434FFF50B7407780A1212958A8289834F
:10498300124A34F080718E828F83A3A3A3A3A3A3BF
:10499300E04480024916EC700575080080598E8248
:1049A3008F83A3A3A3A3A3A3E05420600C121BD95A
:1049B300EA547F7900245F80198E828F83A3A3A397
:1049C300A3A3A3E05410601A121BD9EA540F790071
:1049D300240A5001098E828F83A3A3A3A3F0A3E922
:1049E300800D8E828F83A3A3A3A37401F0A3E4128B
:1049F3004A817404124CC1A20050288E828F83A373
:104A0300A3A3A312676EF9EEFAEFFB122833E96052
:104A1300121268ED6003124A63EEFAEFFB121C995F
:104A2300750800A9088067EE240CF582E43FF5833E
:104A330022E0450AF0A3E0450B228882F583E05487
:104A43007FF0A3E054FC22F582E4350BF583126A70
:104A530059EE22A3E0F9850A82850B831267682247
:104A6300124A6A124EC022EE240FF582E43FF58308
:104A730022A3A3A3A3124A7C22126A9CE022124A15
:104A83008522124F99A3A3A32274031210F27F0667
:104A9300020E5474F4120B5C74F71211A07E001210
:104AA3002845EA4B7003024B498A828B83A3A3A355
:104AB300A3A3A3A3A3A3E064066003024B498A82D2
:104AC3008B83A3A3A3A3A3A3A3E0FF8A828B831255
:104AD300707BE0C0E0740812140AD0E0124E711229
:104AE3006382126395122857EF5408605785218219
:104AF30085228312646F7A007B00122827EA4B70A9
:104B0300431270E47C007D007A007B0080228E8259
:104B13008F8312597BF47003A3E0F46027901AA2E9
:104B2300124B4E124E53601C7C007D00EEFAEFFBDD
:104B33001228278A0A8B0BAE0AAF0BEE4F70CF7980
:104B43000012235F7E01EEF9023D2F124B5222E049
:104B5300FCA3E0FD8E828F8322C082C0838A828B76
:104B630083E58245837009901B0780068A828B83C5
:104B7300A3A3124D7460208A828B83A3A3A3A3A350
:104B8300A3A3E0540860E5EC4D6010124D7A700366
:104B9300A3E06D70D780047A007B00025AED74F2B3
:104BA300120B5C8A088B09890AECFEEDFF7A147BF1
:104BB30000121C93EA4B60378A828B83A3A3A3A3BF
:104BC300A3A3A3A3A3E4124C12E50A124E5DEEF0D5
:104BD300A3EF124C02124E78124C098A828B831275
:104BE30070FC124BF51267EBA3124BFCF0A3F0021F
:104BF3004A91EA240FF582E4221270B7A3A322128A
:104C03004E63E4F0A322A3F01270741267EB221236
:104C13004C1622124E67A3A3A3A32274F5120B5CB6
:104C2300EAFEEBFF890A8C088D09EA4F607574016F
:104C33006970127901122839E9F89034E4E493C3D6
:104C4300985015800A7404697009124CAB500979A5
:104C5300118052740269704B8E828F83A3A3A3A326
:104C6300A3A3A3A3A3E50A124CBA12539012697526
:104C7300A3E4F0A3F0901B071268F46018800312FA
:104C83006A5588828983A3A3124D7488828983A37A
:104C9300A370EC8003901B07EEF0A3EF124CC179D5
:104CA30000800279C1024FAC7904122839E9F890E7
:104CB30034E3E493C39822126979A3A3A322F07A7D
:104CC300207B00901AEFE0F9121C2122C082C083DE
:104CD300E9F87900901B07801D8A828B83A3A3A325
:104CE300A3A3A3A3A3A3E068600574FF68700109ED
:104CF3008A828B83A3A3124D7470DE025AED74F77C
:104D0300120B5CEA4B7005901B0780068A828B832B
:104D1300A3A3124D74601F8A828B83A3A3A3A3A3AF
:104D2300A3A3A3A3E06970E4EC600F8A828B8312D0
:104D33004D4070D880047A007B00024E4E1270946E
:104D4300E0540422C082C083901B0780068A828BB2
:104D530083A3A3124D7460128A828B83A3A3A3A39C
:104D6300A3A3A3A3E06970E580047A007B00025A41
:104D7300ED126768EA4B228A828B8312597F6C2279
:104D830074F2120B5C8A0A8B0B8C0C8D0D75080068
:104D9300750900EA4B602A901B0780068E828F8379
:104DA300A3A3124DCB601AAC0CAD0DEEFAEFFB854D
:104DB3000A82850B83122E2FE9640170DF8E088F20
:104DC30009AA08AB09024A91E0FEA3E0FFEE4F22D5
:104DD30074F7120B5C901B07126A557C007D0080F0
:104DE3000DE8FCE9FD88828983A3A3126A55E8498B
:104DF3006030EA687002EB6970E7901B0712676422
:104E0300E86A7002E96B88828983A3A37008126A37
:104E130055901B078009126A558C828D83A3A312B8
:104E23006395802774F7120B5CEAFEEBFFEA4F6091
:104E330015122851124EAC1268ED6003124A63EE4C
:104E4300FAEFFB121C9980031210F27F01020E5439
:104E5300126768122353E9641A22124E63A3A32232
:104E6300124E6722F08A828B83A3A3A3A32212701C
:104E7300B712597F22124C16A32274F6120B5C90C0
:104E83001B07126A718014126A8E124EAC124A63A7
:104E9300EEFAEFFB121C99AE08AF09EE4F70E890E3
:104EA3001B07E4F0A3F0025E5D8E828F83127068AD
:104EB300F583124EC08E828F83124EC022E0FAA376
:104EC300E0FB121C9922C082C083EAFCEBFDEA4D91
:104ED3006017EA24FBF582EB34FF1268F2700712C5
:104EE3004F1EE0F46007121BE57905802B901AEF43
:104EF300E0C0E0124F1ED0E0F09034DBE493F97A87
:104F0300097B1B121C1BE96401700B7A007B2012C6
:104F13004F2D790080027904025AEDEA24FFF582CD
:104F2300EB34FFF583227A207B00901AEFE0F9122D
:104F33001C212274F4120B5CA2AFE433F508C2AF58
:104F4300901B09124DCB6038EE24FBF582EF34FF42
:104F53001268F27A007B20901AEF6005124F3080BE
:104F630005E0F9121C27E4F50AF50B780A1210DFA5
:104F7300EEFCEFFD7A097B1B121C1574021210F272
:104F8300E508A2E092AFEEFAEFFB023D34124F9533
:104F9300E022124F9922124FA3A3A3A3A3A3A322F8
:104FA300F08E828F83221210F27F03020E5474F26A
:104FB300120B5C74FA1211A0EAFEEBFF7508FE7582
:104FC30009FF122815E9600579110251331256536E
:104FD300603C901D16E0C43354E0F8E0333354FCD6
:104FE30048C0E0EE1260623FF583D0E0126AB0FA87
:104FF300A3E0FB79FF1225EDEA4B60127508FFEE83
:10500300240F1256564404F0125653D2E0F08E8207
:105013008F8312516C6006EE2412126AC8EE2413B9
:10502300125656700D9034D9E493C0E0125142D019
:10503300E0F08E828F83E0A2E7500454038019EEE0
:1050430024141256567012901A81E0C0E01251389F
:10505300D0E0F0901A81E004F0EE24111256566469
:10506300017016901D00E0600D901A8CE0700A8E9E
:10507300828F83E07003126AC58E828F83E064019E
:105083007013EE240B12597564027009EE240F128B
:1050930056564440F0AC21AD22EEFAEFFB122881C4
:1050A3008A0A8B0B74FE6508700374FFF470031295
:1050B3006A8EEA4B60768E828F83E0C0E0740112C1
:1050C300140AD0E0F0740412140AEEF0A3EFF0EE29
:1050D300241E126A4F740212140A12639574011289
:1050E3001172880C890D780C1210DFEE24201251F6
:1050F300551210E3125150120F23EE240E12515584
:105103001210E3901A95120F23740812140AE0F98F
:10511300AC08AD0912287B74081210F2E9FE741072
:105123006E700BAA0AAB0B121C9980027E10EEF96B
:105133007406024A8EEE2414F582E43FF58322EED0
:10514300125147222413F582E43FF58322EE124ADB
:105153006B22F582E43FF583E0F50C780C228E8216
:105163008F83A3A3A3A3A3A3A3A3A312517222E098
:10517300FAA3E0FB12291DE922C082C08374D7126F
:1051830011A090BB87740312118274261210208A17
:10519300828B83A3A3A3A3126A55740E12140A125B
:1051A30068FA126A55740C12140A125275240D12FD
:1051B3005265C0E0741A12140AD0E0F01267F112BB
:1051C3006A53742012140A1252752415125265C0C0
:1051D300E0740812140AD0E0F0EA241CF582E43BE0
:1051E300126A53741212140A125275241112526560
:1051F300C0E0740912140AD0E0F0EA2412125265D6
:10520300C0E0740712140AD0E0F0EA241EF582E429
:105213003B126A53742412140A1252752420125238
:1052230065C0E0742612140AD0E012526D74FFF0C8
:10523300740112140A74FFF0740212140A74FFF05A
:1052430090C32C120F1F7404121182740712117A67
:105253001224BB74041210F2790074291210F202A2
:105263005AEDF582E43BF583E022F0852182852225
:105273008322E8F0A3E9F0EA2274F4120B5C74ECE5
:105283001211A08A0A8B0B8C088D09E9FF7E107A14
:10529300217B00121C93852182852283EAF0A3EBF4
:1052A300126904E84970030253897C217D00790067
:1052B300852182852283E0FA121BC7901AA2126706
:1052C300648521828522831264732409F582E4387C
:1052D300F5831268B0742012140A126A55741112FD
:1052E300140AE81259E41268B638F58374021259A5
:1052F300E712708274021259D11253901259E712B5
:10530300705FEFF0742212140A125992F9A3E0C9E4
:10531300126D5939F583E81256A7A3E0C9241FF586
:1053230082E439125397742312140A1267647406C1
:1053330012140A1268B0740812140AE8F0742612E0
:10534300140A12688AC082C083740C12140AAC82D5
:10535300AD83D083D0827405121020742512140AF1
:10536300E0C0E0741312140AD0E0F07900AA21AB74
:105373002212281BE9640170047E008009852182C2
:10538300852283124A66EEF97414023D31E508F072
:10539300A3E50922F583E50AF0A3E50BF02274F0F7
:1053A300120B5C74FF1211A0EAFEEBFF8C088D094F
:1053B3008A82F583A37408F0EA241612565660080D
:1053C3008A828B83A37410F0EA241712565660095D
:1053D3008A828B83A3E02408F0EA12565460088A79
:1053E300828B83A3E004F08A828B83A3A3A3A3A36A
:1053F300A3E060198A828B83A3A3A3A3A3A3A3E03F
:10540300C3332402F88A828B83A3E028F0EA2411B1
:1054130012565E6004740E8001E4F0901D0EE06489
:105423000170168A828B83E06401600D901A10E08C
:10543300600712563E7401800412563EE41256A7CA
:105443008A828B83A3E0F8EA1238F628298C828DAE
:1054530083F0EA24111256566005125C7F29F08509
:105463000882850983E0C394754009750C00750DA6
:1054730000025635E0FA7B00121C938A0C8B0DEA6E
:105483004B70030256358E828F83E0FA901A921284
:1054930056A074027808121295EA4508FAAB09EE91
:1054A300241212569A74067808121295A808EA482C
:1054B300FCEBFD1256536004780180027800EE2461
:1054C30016FAE43FFBE4C8F9ED49FDEE2411125648
:1054D30056F508880974097808121295ED4509FDF7
:1054E3008A828B831256A0740B7808121295ED45AD
:1054F30009FDEE241712569A740C7808121295EDD2
:105503004509FD8E828F83A3A3A3A3A3A31256A051
:10551300740A7808121295ED4509FDEE24231256FC
:105523009A740D7808121295ED4509F9EC850C82F1
:10553300850D83F0E9A3F0EE240212567D1256BCCA
:10554300F0EE240412567DA3A31256BCA3A3F0EEDF
:10555300241312568DF0EE241412568DA3F0750BFE
:10556300088A828B83E0601512696612646FE50C0A
:105573002408FAE4350DFB121D7D750B10EE24177C
:1055830012565660191264F212646FA80BE50C28C8
:10559300FAE4350DFB121D7D7408250BF50B8E8285
:1055A3008F83A3A3A3A3A3A3E0604EEE2407F50E6A
:1055B300E43FF50F850E82F583E0C0E012566CD010
:1055C300E01256ACE0C0E00812566ED0E01256ACC2
:1055D300A31268E01210DB850E82850F83E0125957
:1055E30046A80BE50C281256481210F2850E828548
:1055F3000F83E0C333250BF50B1256536008C0E04D
:1056030012566CD0E0F0125C3C1268E01210DB1210
:1056130038F5FC7D00740312140A125675E0F8E5A0
:105623000C28F8E4350DF9E82AFAE43912564C123D
:1056330010F2AA0CAB0D74010268C9EA2423F582A7
:10564300E43FF58322FAE4350DFB121BBB740322FE
:10565300EE2415F582E43FF583E022F582E43FF57D
:1056630083E085218285228322A80BE50C28125929
:105673005922E0FA8E828F83A322F8E43FF98882CD
:10568300F583E0850C82850D8322F582E43FF58363
:105693001256C6A3A3A322F582E43FF583E0F508DF
:1056A300750900221270A5F922F0050B8E828F83F3
:1056B300A3A3A3A3A3A3A3A322A3A3126A9CA3129A
:1056C30056C622E0850C82850D83A3A3A32274030F
:1056D300023D31126A598E828F83A3A32274F01282
:1056E3000B5C74FD1211A01268AA740212140AE969
:1056F300F08C0C8D0D750B017C267D007900AA0CB6
:10570300AB0D121BC7740212140AE0C394085003B2
:105713000258CF125685F0AC0CAD0D85218285223F
:105723008312597BFA852182852283125FA1125C41
:1057330078E96003750B0085218285228312688ACC
:1057430012599CE0F9EA850C82850D83A3A3A3A3D8
:10575300A3A3A3A3A3F0A3E91259D1A3A312599C12
:10576300A3A3E0F9E50C126909EA1259E412645F94
:10577300C0E0E50C24111270DDD0E01259E72407D4
:10578300F582E438F583E0C0E01270D9D0E0126806
:105793009D74081259C8A3E060268521828522835F
:1057A300E02408F8A3E03400F9E50C2413F582E4BF
:1057B300350D126393850C82850D83A3E02408F0D5
:1057C300850C82850D83A3A3A3A3A3A3A3A3E06056
:1057D3002A850C82850D83A385820E85830F12593A
:1057E30089F8A3E03400F9E50C126062350D126309
:1057F30093850E82850F83E02408F012594DE4F05F
:10580300125961E4F0A312689DA3A3A3A3E060115E
:105813001259AD850C82850D83A3A3A3A3A31259AB
:10582300D9E50C12596EE070030258BB1259ADFA58
:1058330012594DEA1259D9F8852182852283E0282D
:10584300FBA3E034008B82F583E0F8E50C241A1205
:1058530070DDE81259D9E8C39AE50C50561259691C
:10586300F89034DCE493C39850047E0C8006E50C76
:10587300125969FE850C82850D83125988F508A398
:10588300E03400F509750A0078081210DBEE1259AE
:10589300467ABE7B0C12564D1210F212596174BE39
:1058A300F0A3740CF0EEC333F8850E82850F83E00A
:1058B30028800412596EE4F0850C82850D83A3E0E1
:1058C300F8850C82850D83E0C398500479008070BD
:1058D300125988FAA3E03400FBE50C126ABF127078
:1058E300E01268B0850C82850D83E0C398C0E0E5C3
:1058F3000C24171270DDD0E01259C8E06040E50CAB
:105903002417FEE4350DFF8E82F583E024F2F0E5E3
:105913000C241DF8E4350DF98882F583E0240EFA92
:10592300A3E03400FB888289831268B0901A8DE06B
:10593300F9122773E9F88E828F83E0C398F0A90BDD
:105943000268C725E0FCE433FD22E50C125953221B
:10595300241912595922F582E4350DF58322E50CF9
:10596300241B12595922125953E0221268971259D3
:105973005C22F582E43FF58312597F22126A5EF5B9
:10598300838882E022A312598D221259922822E0A1
:10599300F8852182852283E022A3A3E0FA85218270
:1059A300852283126890A3A3A322850C82850D838D
:1059B300A385820E85830F12598DFAA3E034008AE2
:1059C30082F583E0221268A1A3A3A3A3A322125901
:1059D300ECF583888222F0850E82850F83E004F044
:1059E30022F0A3E91259ECC8221270A9F8A3E0220D
:1059F30074F4120B5C8A088B09EA125A9CA3A3F075
:105A0300EA1313543F125A8FA3F0EAC41313125A22
:105A13009C125AA67409780A12136A125A86A3A30F
:105A2300A3A3A3A3F0EB125A88125AA5740A780A07
:105A330012136AE50A5401C0E0EC1268973DF5833E
:105A4300D0E0125AAA740B780A12136A125A8612F9
:105A53005AA3740C780A12136A125A86A3125AA311
:105A6300740D780A12136AE50A5401C0E0EC242489
:105A7300F582E43DF583D0E0F0740E780812136AE2
:105A8300023D20E50A54018C828D8322125A95A38C
:105A9300A322540F8C828D832254038C828D832204
:105AA300A3A3A3A3A3A3A3F08A0A8B0B22C082C040
:105AB3008379008A828B83A3A3A3A3A3A3E0901A71
:105AC3008C600EE0701F8A828B83A3A3E070168024
:105AD30012E06011126757901A95E06A7003A3E011
:105AE3006B600279018003126764D083D082021055
:105AF300A474F2120B5C8A0A8B0B890CECFEEDFF8B
:105B03008A828B83E0FA125C78850A82850B83A3F1
:105B1300A3125C6CE0F9EA8E828F83A3A3A3A3A3F1
:105B2300A3A3A3A3125C91125C6CA3A3E0F9125C80
:105B33003CEA125C91A3A3E0C0E0EE2411F582E4F9
