:020000040000FA
:0600000002138502089DB9
:03002B000211526D
:03003300020E3C7E
:03004300021006A2
:030053000207D2CF
:03007B00020E145E
:10008300020831010000000000F8FF07FFFF000035
:100093000504000000030001FFFFFFFF00451014EB
:1000A3001027000018010000E0010000A0D30B009E
:1000B300100080DF10002000A0C1180030000020D5
:1000C300FD000200004A1B000000000000AA1B0004
:1000D300000000000000000000000000000000001D
:1000E3000000000000000000000000000000000607
:1000F300FFFF1E20FEFFFEFFFEFFFFFFFF01017C4F
:100103001F0000E21F0000000000000000000000CC
:1001130000000000000000FF3C003C0045003200EE
:100123000100E8030A000A000A000A000A001E0090
:10013300030104010C0002066CFB02A1FD03040190
:1001430007010201BAFD01B0FD0404010C00020124
:10015300B6FD00000001040000651A000000E8037A
:100163000000FFFFB61A0188130000E803000064D3
:10017300006400B801A0BB0D00A0BB0D0002020289
:10018300070401051E02051E020A0A0101080801EF
:1001930003B80B02803E0102FEFFE8030A050001DB
:1001A300FFFF020A1401E00100B0423BAAB83F8CF2
:1001B300906339AA0CA33A00941E3C8042633DCF5E
:1001C300FE753E1572313FF304353F8096184B00A0
:1001D3000080BF2292D43EDD9B2A3F04000040FFF3
:1001E300FF7F7FFFFF7FFF010080341872313F02E2
:1001F300000000050301010F0300030003000300D7
:100203000300030003000300030005000A001400B9
:1002130028004F009E000000793200000000AF313B
:1002230000000000FF000000FF001213B36046123D
:1002330013D1603DE9687008F618F618F618F6222F
:10024300748067F7120261090909748067F7221243
:1002530013D1601D1213B37005191919801A1212E4
:1002630071701F121285C37003E6673319191940A1
:10027300071818182208080874FFF618F618F61855
:10028300F622121285601712143F702192F0121495
:10029300487019501720F014080808090909E7F6EF
:1002A3001819E7F61819E7F61819E7F62212144891
:1002B30060E6E869701F0808E62480F608E436F66D
:1002C30018547FB47F0CE654806007F6E418F618E0
:1002D300F622181822E9C6CC08C6CD08C6CE08C631
:1002E300CFC0E0E8C0E0EAC0E0EBC0E009E9F8090C
:1002F300E7FA09E7FBE6F918E6F8C3EC98ED99EE9F
:100303009AEBC2E7F5F0EFC2E795F0500E600CEB05
:10031300CFFBEACEFAE9CDF9E8CCF8EAA2E7D2E7D7
:10032300FAEB33FB13F5F0EEA2E7D2E7FEEF33FF70
:10033300C5F013A2E730E601B313C5F0C3C0E0C0B4
:10034300F07F00C39BFB605E9418600F401D146038
:100353001AD0E023F9D0E0F80204338AF0E94860C8
:1003630003D2F0E4AFF0FAF9F8803BEB30E40D8907
:10037300F0EA6003D2F0E4AFF0F9CAF8EB30E30D32
:1003830088F0EF6002D2F0AFF0E4CAC9F8EB54078B
:100393006014FBC3EA13FAE913F9E813F8EF1350F7
:1003A30002D2E0FFDBEDD0E0C0E030E739C3E49FE9
:1003B300FFF5F0EC98FC42F0ED99FD42F0EE9AFE69
:1003C30042F0D0E0F9D0E0F8E5F0607AE923F9EE05
:1003D30020E742D8028067C3EF33FFEC33FCED33F1
:1003E300FDEE33FE80EAEC28FCED39FDEE3AFED05B
:1003F300E023F9D0E0F84002801BC3EE13FEED13B7
:10040300FDEC13FCEF135002D2E0FF08B800067FA7
:100413007F74FF802EEF3350178CF020F0026010B2
:100423000CBC000C0DBD00080EBE000408E860DF24
:10043300E933E813FFEE2313FE4F4D4C8008E954D4
:1004430080FFE4FEFDFCEE33EF33F47004FCFD7E2D
:1004530080D0E0FBD0E0FAD0E0F8D0E0CFC618CEF1
:10046300C618CDC618CCC6F9221213D170041818B9
:1004730018221213B3700D74FFF61819F61819F633
:100483001819F622E7548066F6121448700F1214F6
:100493003F70F014F608F608F608F680D112143F00
:1004A300700CF608F608768008E6447F80EC12129A
:1004B30088700C12127460BFE65480F6E480BB129D
:1004C3001274700519191980A5E869700C763F1824
:1004D300768018F618F6E8F922E6CDC0E018ECC0ED
:1004E300E0E633CD33CDD313F6E719FCE71919331F
:1004F300CC33C3947F400ECD9D502408E65480F640
:10050300E418F6800FF4043D14501408E6447FF613
:10051300187680E418F618F6D0E0FCD0E0FD22CC83
:10052300D313CCFD18E4C6CBC0E018E4C6CAC0E0C0
:100533000808ED08C633E613F618E433C675F0036E
:10054300C3CA97CA09CB97CB199C40047D08802E58
:10055300BD000302061516B6FF050606081618C3E6
:10056300CA33CACB33CB33CA27CA09CB37CB193CDF
:10057300C37D08803E187D0820E75CC633C6CA33B6
:10058300CACB33CB33DDF1D5F0EB30E77BCA97CA67
:1005930009CB974ACB199C406F4B7025E620E0218D
:1005A3008066187D08C3CA97CA09CB97CB199CD319
:1005B300C633C6CA33CACB33CB3350C9DDE7D5F014
:1005C300E1D3E4C636C608C636C608C636C608C66C
:1005D30036C61818188031C3CA97CA09CB97CB19E6
:1005E3009CB34097C633C6CA33CACB33CB33DD344F
:1005F300D5F02EC6A2E0C640C8CA27CA09CB371910
:100603004A70BECB3CB480B90808E63308E63360D1
:100613001F181818D0E0FAD0E0FBD0E0FCD0E0FDC2
:1006230022187D08CA27CA09CB37CB193CD380804F
:1006330013F618E4B67F11F618B6FF0EF618C604C3
:1006430070D20808768080CAF618F618F680C500BE
:100653001213D1604F1213B36012E7548066F6127F
:100663001271701112143F703B090909F4F618F660
:1006730018F618F622121285701512144808080885
:1006830060EAE6447FF618768018E4F618F622123C
:100693001448601612143F7012E4F608F608F608C0
:1006A300E65480F609090918181822EAC0E0EBC0DD
:1006B300E0ECC0E0EDC0E0E687F0A4FBACF008E6B8
:1006C30087F0A42CFCE435F0FA1809E687F0A42C93
:1006D3004B60027401CA35F0FCE433FB09E687F092
:1006E300D2F7A42CCB35F0FC1908E687F0A42BCC69
:1006F30035F0FBE433FD0819E687F0D2E7A42C4A72
:10070300CB35F0CD3400FC09E687F0D2E7A42DCC3D
:1007130035F0FDE433FA0918E687F0D2F7A42CCDBF
:1007230035F0CA3400FC08E687F0D2E7D2F7A42AF2
:10073300CC35F07A7E20E70B0ACB33CBCD33CDCC4F
:1007430033CC33CB3350147004ED30E00ED2F1E4EC
:10075300CD3DCDCC3CCC3B5005DA05C2F1EB547F0B
:10076300C63308E63392F0FBE73309E733C39A5005
:100773002D2B70190C0D4C4D70151806E608C3335C
:10078300700D20F10AA2F013F6E418800B4024E464
:10079300F630F002768018F618F618F68024D33B6C
:1007A30014501074FFA2F013F6187680E418F618AC
:1007B300F6800FA2F013F618E63303F618ECF618DA
:1007C300EDF6D0E0FDD0E0FCD0E0FBD0E0FA22C0B3
:1007D300E074F1120BD0A2AFE433F509D2AF85A7D1
:1007E30008AFA1EF5508FE74105E60061218CE75AF
:1007F300A1EF74085E60081218D475A1F78024EF86
:10080300A2E092F0E508A2E082F05017906198E030
:10081300F8900A6FE0C398A2D265D0335002E8F093
:1008230075A1FEE509A2E092AF7F02020C2FC0E0A2
:1008330074F2120BD0A2AFE433FED2AF9061A4E006
:10084300F8759B00E59158540860087591F71219E3
:10085300228023E59158541060087591EF121928EE
:100863008014E591A2E092F0E8A2E082F05007E064
:10087300C2E0F0121A729061A3E0F8E5E95854045B
:10088300600E121A4875E9FB906193E0A2E640F20C
:10089300EEA2E092AF7F01020C2FC0E074F2120BC4
:1008A300D0A2AFE433FED2AF9061A5E0F8E5BF5824
:1008B3005404600675BFFB121A8A80D412091430DF
:1008C300F043120959803E8A088B098C0A8D0B78F4
:1008D3000812091420F01430E72B74FFFCFBFA74A0
:1008E3007F8022E4FCFBFA7480801AB48008BC0089
:1008F300F2BB00EF800F50EBF9E4C39AFAE49BFBE1
:10090300E49CFCE499C6CC18C6CB18C6CA18C6F931
:1009130022E4C9C608CAC608CBC6D3330308CCC66B
:100923003392F0C3947F402E94184019C9B9070439
:10093300CACBCC225025C309CA33CACB33CBCC3361
:10094300CC33D9F422F4600DC9CCC313CB13CBCA77
:1009530013CAD9F6CC22E4FCFBFA2214FCFBFA22DC
:10096300C3E498F8E499F91209A48026C3E49AFA37
:10097300E49BFBE920E7E91209A4E498F8E499F978
:1009830022C3E498F8E499F91209A4E498F8E499E5
:10099300F9C3E49AFAE49BFB22EB20E7CFE920E7D3
:1009A300E0B90010BB0008E88AF084F8AAF022E45A
:1009B300FBC8FA22EB70227B10C833C8C933C93392
:1009C3005007C39AC3DBF280069A50012ADBEAC8B8
:1009D30033F4C8C933F4C9FA2275F008E4C833C83C
:1009E300C933C933C99AC99B5004C92AC93BD5F035
:1009F300ECFBC833F4C8E4C9FA22080808EAC0E0EB
:100A0300EBC0E086F0E7A4FA180986F0E7A42AFA17
:100A1300180986F0E7A42AFA180986F0E7A42AFA47
:100A23001986F0E7A4FBE5F02AFA190886F0E7A493
:100A33002BFBE5F03AFA190886F0E7A42BFBE5F067
:100A43003AFA18180986F0E7A4C5F02BFBE43AFA42
:100A53001908E7C5F0C6A426F6E5F03BFBE43AFA2D
:100A63001886F0E7A4F6E5F00826F6E43B08F6E47A
:100A73003A08F6D0E0FBD0E0FA22080808E630E7AF
:100A830011121235120A95080808C64480C61818B0
:100A93001822181818E9799EC608CAC608CBC608D2
:100AA300CCC6C370207996CACBCC7019798ECBCCC7
:100AB30070137986CC700EF9802ACA33CACB33CB34
:100AC300CC33CC331930E7F2CCCBCA335014700497
:100AD300EA30E00DE4CA3ACACB3BCBCC3CCC500263
:100AE30009C3E913C6CC182313C6CB18C6CA18C644
:100AF300F922E4CFC0E0E4CEC0E0E4CDC0E0E4CC32
:100B0300C0E075F020E626F608E633F608E633F68D
:100B130008E633F6181818EC33FCED33FDEE33FE1C
:100B2300EF33FFC3EC9709ED9709EE9709EF971998
:100B33001919400FFFEC97FC09ED97FD09EE97FE9D
:100B4300191906D5F0BFECF709EDF709EEF709EF30
:100B5300F7191919D0E0FCD0E0FDD0E0FED0E0FF9A
:100B6300222521C582C0E0E52234FFC583C0E0E52C
:100B730021C3958224F810AF0885832285822180C2
:100B830008858322858221D2AFCEF0A3E520F0A38E
:100B93007808E608F0A3DEFAEFF0A3E58124FAF87B
:100BA300E608F0A3E608F0A3E608F0A30808E608C1
:100BB300F0A3E608F0A315811581D0E0FED0E0F89C
:100BC300158115811581E8C0E0EEC0E022C0D02573
:100BD30021C582C0E0E52234FFC583C0E0E521C31F
:100BE300958224F310AF08858322858221800885AE
:100BF3008322858221D2AFC8F0A3E9F0A3EAF0A350
:100C0300EBF0A37908E709F0A3D8FAECF0A3EDF031
:100C1300A3EEF0A3EFF0A3D0E0F0A3D0E0F0A3D0D5
:100C2300E0F0A3E520F0A3E5F0F0A322852283857D
:100C33002182E0C0E0A3E0F9A3E0FAA3E0FBA378FC
:100C430008E0F608A3DFFAE0FCA3E0FDA3E0FEA3BF
:100C5300E0FFA3E0C0E0A3E0C0E0A3E0F5D0A3E0A1
:100C6300F520A3E0A3F5F010AF0885832285822148
:100C73008008858322858221D2AFD082D083D0E0C1
:100C8300F8D0E03212142AB90003020CC6E490042F
:100C9300017853791A8002F0A3D8FCD9FA7A537BEE
:100CA3001D90008678A879028015E493A3AD82AEE7
:100CB300838A828B83F0A3AA82AB838D828E83D8AF
:100CC300E9D9E77582397583D774061210C975821D
:100CD300D075832E74001210C975F0108E238F24E3
:100CE300858228858327852182852283E0CEA3E020
:100CF300CF852882852783EBC9EAC8EDCBECCAC32D
:100D0300E833C8E933C9EA33CAEB33CBC3EA9EF508
:100D130026EB9FF525B35004AB25AA26EC33CCED87
:100D230033CDD5F0DAAE23AF24221213D1601C12D7
:100D330013B36017121448700712143F7001D322C3
:100D4300C0D012143F7006D0D0B322C32233D0D008
:100D5300501430E0F6C3E7960809E7960809E796CA
:100D63000809E796B32220E0D5E6970809E6970835
:100D730009E6970809E697B322D083D082ECC0E056
:100D8300EDC0E0E493A3FCE493A3FDED4C600D12EE
:100D93000EE8EC24FFFCED34FFFD80EFE493A3FCAD
:100DA300E493A3FDED4C600D120FB1EC24FFFCEDB9
:100DB30034FFFD80EFD0E0FDD0E0FCE493A3C0E07E
:100DC300E493C0E0221213D1601B1213B360161216
:100DD3001448700712143F600CB322C0D012143FA2
:100DE3007005D0D022C32233D0D0501330E0EBC3F0
:100DF300E7960809E7960809E7960809E796222087
:100E0300E0E4E6970809E6970809E6970809E697F4
:100E130022C0E074F2120BD0A2AFE433FED2AFE5EE
:100E23008AA2E350057902121802758A00C2EBEE1A
:100E3300A2E092AF7F01020C2FC0E074F2120BD03C
:100E4300A2AFE433FED2AFE58BA2E05005790412E2
:100E53001802758B00C2E880D6D083D082E9C0E047
:100E6300E493A3C386F0C5F095F0F908E493A38651
:100E7300F0C5F095F0700BE493A3C3994005E90422
:100E83008002A3E475F002A42582F582E5F03583A0
:100E9300F583D0E0F9E493A3C0E0E493C0E02285B6
:100EA3002283852182E0A3FEE0A3F5207808E0A356
:100EB300F608DFFAE0A3FFE0A3C0E0E0A3C0E0E0B0
:100EC300A3C0E0E0A3C0E0E0A3C0E010AF088582C8
:100ED300218583228008858221858322D2AFD08316
:100EE300D0820210CFC0E0C3E493960874019396B6
:100EF30018400FE493667008087401936618700035
:100F03007019A3A3C3E49396087401939618A3A33B
:100F1300400DD0E0D0E0D0E0020DB8A3A3A3A3A37B
:100F2300A3D0E0227404800474028000CCC0E0EDFE
:100F3300C0E0E521C39CCCAD2250011D10AF068C4F
:100F4300218D2280068C218D22D2AF12104BD0E04E
:100F5300FDD0E0FC2274028000CCC0E0EDC0E0E5EF
:100F630021C39CCCAD2250011D10AF068C218D22D4
:100F730080068C218D22D2AF121029D0E0FDD0E063
:100F8300FC221213D160251213B36020121448708F
:100F93000302143F080808E76670101819E7667023
:100FA3000A1819E76670041819E76622F422C0E0EC
:100FB300C0F088F0E49366700808740193661870B3
:100FC30000A8F0A3A3700BD0F0D0E0D0E0D0E002F3
:100FD3000DB8A3A3D0F0D0E022D083D082CCC0E060
:100FE300E493A3600612106C1470FAE493A36006F2
:100FF3001211CB1470FAD0E0FCE493A3C0E0E493A5
:10100300C0E022C0E074F2120BD0A2AFE433FED2F0
:10101300AFC2C0E5D1A2E4500312184AEEA2E09297
:10102300AF7F01020C2FCAC0E0E493A3C582CCC5F5
:1010330082C583CDC583F0A3C582CCC582C583CDCC
:10104300C583DAE5D0E0CA22CAC0E0E0A3C582CCFA
:10105300C582C583CDC583F0A3C582CCC582C583B4
:10106300CDC583DAE6D0E0CA22C0E0E493A3D39CE3
:101073005010E493A3C39C400AD0E0D0E0D0E00238
:101083000FF9A3A3A3D0E022700908080822601671
:10109300181818C6C333C608C633C608C633C608ED
:1010A300C633C6D5E0EA22C008C3E096F50808A314
:1010B300E096420808A3E096420808A3E096450894
:1010C3007001D3D00822C09FF59FE473D09F22D034
:1010D30083D082C09FE493C0E0740193C0E07402A4
:1010E30093F59F227404800A7403800674028002BD
:1010F3007401C0E0F40412111DD0E01213ED2200BC
:10110300C0D0252110AF08F521500C05228008F529
:101113002150020522D2AFD0D0222521F58210AF73
:1011230008F521400C15228008F52140021522D232
:10113300AF85228322BB0102E722C082C08389825A
:101143008A83BB0003E08002E493D083D08222C071
:10115300E0C0D0E8C0E0A8A8D2AFC2C7E8A2E79237
:10116300AFD0E0F8D0D0D0E0326016080808C6C38C
:1011730013C618C613C618C613C618C613C6D5E0B9
:10118300EA222521F8E43522F9222521FAE4352241
:10119300FB222521FCE43522FD22C3E0C696F60896
:1011A300A3E0C696F608A3E0C696F608A3E0C696A3
:1011B300F622252110AF08F521400C15228008F5F1
:1011C3002140021522D2AF22C0E0E493A36C700940
:1011D300D0E0D0E0D0E0020FF9A3A3D0E022C3E730
:1011E300960809E7960809E7960809E796A2D265E3
:1011F300D03322E76670100809E766700A0809E72A
:101203006670040809E76622C3E09608A3E096081F
:10121300A3E09608A3E096A2D265D03322E06670DD
:101223001008A3E066700A08A3E066700408A3E050
:101233006622181818E4C396F608E496F608E496AE
:10124300F608E496F622C3E096F008A3E096F008C9
:10125300A3E096F008A3E096F022C3E697F6080908
:10126300E697F60809E697F60809E697F6221818AE
:1012730018E60846087009E626087005E633F422E6
:101283000822191919E70947097009E727097005A1
:10129300E733F4220922C3E4939608740193960872
:1012A30074029396087403939622E627F60809E6D8
:1012B30037F60809E637F60809E637F622700422FE
:1012C300600D18C6C333C608C633C6D5E0F418226A
:1012D300E657F60809E657F60809E657F60809E659
:1012E30057F622E026F608A3E036F608A3E036F622
:1012F30008A3E036F622E026F008A3E036F008A3C0
:10130300E036F008A3E036F022E056F008A3E056FA
:10131300F008A3E056F008A3E056F022E647F608EB
:1013230009E647F60809E647F60809E647F622E024
:1013330056F608A3E056F608A3E056F608A3E056CF
:10134300F622600D08C6A2E713C618C613C6D5E079
:10135300F322C6F4C608C6F4C608C6F4C608C6F423
:10136300C622C3E09608A3E09608A3E09608A3E08C
:101373009622C3E7960809E7960809E7960809E75E
:10138300962275D00075813F7521017522040002F4
:101393000C87600C08C6C313C618C613C6D5E0F481
:1013A30022E6F008A3E6F008A3E6F008A3E6F0229D
:1013B300E7094709C3134709336002E733F422E01F
:1013C300F608A3E0F608A3E0F608A3E0F622E60891
:1013D3004608C3134608336002E633F42280010053
:1013E300E9F874FF28F90470F622CAC0E0E6F0A316
:1013F30008DAFAD0E0FA22E0F8A3E0F9A3E0FAA3CE
:10140300E0FB22E8F0A3E9F0A3EAF0A3EBF022EA81
:10141300F0A3EBF0A3ECF0A3EDF022E0FAA3E0FBE2
:10142300A3E0FCA3E0FD22E5C754F84401F5C77926
:1014330001222521F582E43522F58322E727194786
:101443001947194722E62618461846184622C2AFFE
:1014530075D69F020000221210D2EC88041210D21B
:101463007489041210D22F8A041210D2928A0412A1
:1014730010D2D68A041210D2708B041210D2EE8BC3
:10148300041210D2218C041210D22F8D041210D208
:101493004F8D041210D2A38D041210D28B8E04121E
:1014A30010D28D90041210D22F91041210D27F9378
:1014B300041210D20394041210D20897041210D20B
:1014C3003C99041210D27499041210D2D39A0412C4
:1014D30010D2DD9A041210D22C9B041210D2FE9C5F
:1014E300041210D21ED9061210D252D9061210D2EB
:1014F300A5D9061210D2A8DA061210D20BD1061201
:1015030010D269D1061210D2ABD1061210D2CDD1AE
:10151300061210D287D2061210D2CBD2061210D2E4
:1015230000D3061210D297BD051210D213BE0512B6
:1015330010D246BE051210D274BE051210D2B2BE2E
:10154300051210D2EDC0051210D20CC1051210D233
:1015530051C1051210D2E7C1051210D233C20512D0
:1015630010D2C7C2051210D29FC3051210D2FBC3FB
:10157300051210D259C4051210D2D6C4051210D2C6
:101583000CC5051210D257C5051210D27DC5051220
:1015930010D20DC6051210D2A4C6051210D2F0C681
:1015A300051210D221C7051210D258C7051210D246
:1015B300DEC8051210D2A8C9051210D278CA0512C6
:1015C30010D23EE0051210D248E0051210D259E0C5
:1015D300051210D271E0051210D2D7E0051210D215
:1015E30002E1051210D21DE1051210D252E10512DB
:1015F30010D27AE1051210D2A2E1051210D2D1E184
:10160300051210D2CEE2051210D21BE3051210D23E
:1016130030E3051210D2C2E3051210D211E4051211
:1016230010D239E4051210D25EE5051210D22BE771
:10163300051210D2CEE9051210D2E8E9051210D234
:10164300BDC2061210D2E9C2061210D209C3061295
:1016530010D230C3061210D277C4061210D298C427
:10166300061210D256C5061210D2EDC5061210D2BC
:1016730039E5061210D27CE5061210D2F9E50612FE
:1016830010D21BE6061210D20987061210D2168852
:10169300061210D22688061210D25488061210D2CF
:1016A3007288061210D2A188061210D2D3880612AD
:1016B30010D2548A061210D2038C061210D2A88CB0
:1016C300061210D21C8D061210D27A8D061210D279
:1016D300C38D061210D2C68D061210D2C98D061202
:1016E30010D2DA8D061210D2E48D061210D2398E82
:1016F300061210D27D8E061210D2878E061210D2D9
:10170300918E061210D2ED8E061210D2618F061240
:1017130010D24890061210D2AC91061210D2D79272
:10172300061210D2E192061210D2A693061210D21C
:10173300C093061210D2C993061210D2D293061286
:1017430010D23194061210D29A7D001210D2617E0B
:10175300001210D2737E001210D2EE7E001210D24D
:1017630037EA061210D248EA061210D2E6EA061247
:1017730010D2F1EA061210D209EB061210D2F9FFC9
:10178300011210D2B9EF061210D2B8EB061210D222
:10179300C8EB061210D2E0EB061210D248EC061288
:1017A30010D243E7061210D2C6E7061210D22CE875
:1017B300061210D22FD5061210D243D5061210D21C
:1017C300AAD5061210D2F3D5061210D21BD60612D2
:1017D30010D23FD6061210D262D6061210D29AD673
:1017E300061210D2C2D6061210D2FDD6061210D29D
:1017F30027E4061210D2B0E4061210D2BFE4061298
:1018030010D2EFE4061210D2F0BB061210D2FEBBC8
:10181300061210D277BC061210D24FBD061210D298
:1018230012BF061210D203EF061210D249FB0212A6
:1018330010D2B6FB021210D26EFC021210D281FD3E
:10184300021210D20CFF021210D275FF021210D234
:10185300C4FF021210D2CDFF021210D2E1FF021216
:1018630010D2F4FF021210D2D199061210D2FD99B0
:10187300061210D2419C061210D2819C061210D27D
:10188300C19C061210D2D59C061210D2EE9C0612F1
:1018930010D2E09D061210D2859E061210D2999E98
:1018A300061210D2AFDC061210D2D3DC061210D20D
:1018B300ECDC061210D21EDD061210D24EDD06122B
:1018C30010D27BDD061210D2DDDD061210D2ECDD64
:1018D300061210D2F6DD061210D203DE061210D263
:1018E30015CC061210D235CC061210D274CC0612C7
:1018F30010D28FCC061210D2AECC061210D214CD59
:10190300061210D21DCD061210D27ACD061210D2B5
:1019130089CD061210D2ADCD061210D26ECE0612AC
:1019230010D27BCE061210D28CCE061210D280FFBC
:10193300041210D2C8FF041210D2F4FF041210D202
:101943008CA3061210D2E6A4061210D2F4A4061237
:1019530010D207A5061210D21CA5061210D231A56B
:10196300061210D244A5061210D2B8A5061210D240
:101973001DA6061210D2BFA6061210D283A7061206
:1019830010D293A7061210D2A2A7061210D21FEBF1
:10199300061210D243EB061210D26BEB061210D2D2
:1019A30093EB061210D2BACE061210D2E1CE061273
:1019B30010D2FFCE061210D272CF061210D242C935
:1019C300061210D25BC9061210D267C9061210D2D2
:1019D3007BC9061210D299C9061210D2A3C90612E6
:1019E30010D2ADC9061210D2C0C9061210D246CA0F
:1019F300061210D2BBCA061210D2EACA061210D2BD
:101A030038CB061210D287CB061210D2A2CB061205
:101A130010D2ACCB061210D2BDCB061210D200CC22
:101A2300061210D239EE061210D2BFF3051210D2ED
:101A3300E9F3051210D206F4051210D219F40512B7
:101A430010D22FF4051210D28DF4051210D2C5F462
:101A5300051210D2B9F8051210D2FEF9051210D2F0
:101A630031FA051210D294FA051210D2F4FB0512C2
:101A730010D21CFC051210D231FC051210D241FC0D
:101A8300051210D285FC051210D2E0FC051210D20B
:101A9300F0FC051210D2D9E1061210D2F3E10612BE
:101AA30010D21BE2061210D234E2061210D258E210
:101AB300061210D276E2061210D28DE2061210D26E
:101AC300BBE2061210D2D6E2061210D284EE061240
:101AD30010D26BB8061210D27BB8061210D280B99E
:101AE300061210D2B2B9061210D2E2B9061210D2FF
:101AF30005BA061210D21CBA061210D256BA061232
:101B030010D2BBBA061210D2FDBA061210D23CBBD9
:101B1300061210D26DBB061210D298BB061210D259
:101B2300A7E0061210D2C5E0061210D225E1061274
:101B330010D2C4E1061210D245E9061210D263DFB7
:101B4300061210D287E0061210D20ED6051210D25A
:101B530075D9051210D266DB051210D29CDC051272
:101B630010D27DDD051210D2F9DE051210D2C5DFC9
:101B7300051210D219E0051210D202DB061210D2A0
:101B830023DB061210D248DC061210D272DC0612D6
:101B930010D2C8EE061210D2D8EE061210D2E2EE20
:101BA300061210D258AC051210D25BAC051210D23B
:101BB300F3B3051210D2FFB4051210D27EB605128C
:101BC30010D240B7051210D226B8051210D21DB993
:101BD300051210D20BBA051210D2C8BA051210D2D0
:101BE300F8BA051210D2A9BC051210D20DDE0612E6
:101BF30010D21FDE061210D233DF061210D236DFE8
:101C0300061210D23FE6061210D275E6061210D263
:101C13008BE6061210D2CDE6061210D2DDE60612CE
:101C230010D221E7061210D22BE7061210D2008041
:101C3300061210D20A80061210D24D80061210D25C
:101C4300B280061210D2CF80061210D2E88006129C
:101C530010D28A81061210D29381061210D2D88133
:101C6300061210D20182061210D20E82061210D270
:101C73008982061210D21483061210D259830612D7
:101C830010D2A483061210D20984061210D22C8417
:101C9300061210D29D84061210D2F284061210D2BC
:101CA3002D85061210D26285061210D27485061293
:101CB30010D28685061210D2A585061210D2AE85E3
:101CC300061210D25C86061210D29F86061210D21C
:101CD300DD86061210D228ED061210D2AD9E061232
:101CE30010D2ED9F061210D210A0061210D221A01E
:101CF300061210D2F3A1061210D213A2061210D2AA
:101D0300C3FD011210D2F9FD011210D241FE0112DE
:101D130010D29AFF011210D2EDEB041210D206ED8D
:101D2300041210D240ED041210D2EEEE041210D2BF
:101D33001CEF041210D282F1041210D2C2F1041269
:101D430010D266F3041210D2F6F3041210D24AF43E
:101D5300041210D2ECF4041210D22EF5041210D295
:101D630070F5041210D2CDF6041210D21BF804122F
:101D730010D252FA041210D280FA041210D2A7FA27
:101D8300041210D2B0FA041210D207FB041210D2BC
:101D9300A2FB041210D2AAFE041210D231FF0412C5
:101DA30010D2A3EF061210D27CB0061210D292B05A
:101DB300061210D236B1061210D275B1061210D225
:101DC30092B1061210D2C3B1061210D210B206128B
:101DD30010D243B2061210D27EB2061210D273B4DE
:101DE300061210D245E8061210D2A4E8061210D249
:101DF300E2E8061210D223E9061210D285ED06128C
:101E030010D20080031210D20C80031210D26E8005
:101E1300031210D27880031210D20981031210D258
:101E23004581031210D22E82031210D24182031273
:101E330010D28E82031210D21D83031210D2538349
:101E4300031210D2CE83031210D29D85031210D237
:101E53009787031210D27588031210D29389031245
:101E630010D2D98B031210D21C8D031210D2CB8D3A
:101E7300031210D26B92031210D25F93031210D28B
:101E83000394031210D22894031210D2C4940312A1
:101E930010D2D994031210D2FD94031210D26B9571
:101EA300031210D28895031210D2B295031210D2E6
:101EB3004897031210D26997031210D20F98031296
:101EC30010D25798031210D2AC98031210D24C9927
:101ED300031210D2B099031210D20E9A031210D229
:101EE300BB9A031210D2299B031210D25C9B0312DC
:101EF30010D2CA9B031210D21B9D031210D2719DE4
:101F0300031210D20E9E031210D268A0031210D235
:101F1300D1A0031210D247A2031210D271A203124E
:101F230010D28DA4031210D238A7031210D261A8C5
:101F3300031210D2BDCC021210D2C6CE021210D29E
:101F430038D0021210D29FD0021210D2EDD002125A
:101F530010D21AD6021210D256D7021210D243D878
:101F6300021210D269D8021210D29FD8021210D2D4
:101F73002BD9021210D242DA021210D2D0DA021294
:101F830010D2E3DA021210D205DB021210D266DBA2
:101F9300021210D2CADB021210D2CCDC021210D20F
:101FA300E3DC021210D210DD021210D22BDD02127A
:101FB30010D252DD021210D2ACE0021210D233E87A
:101FC300021210D2E2E9021210D255ED021210D21F
:101FD300C4F0021210D266F4021210D2FDF70212FC
:101FE30010D2ECF8021210D210F9021210D2DDED69
:101FF300061210D2B594061210D24295061210D2D0
:10200300BC95061210D2DD95061210D2B9960612AF
:1020130010D22698061210D28296051210D2B496C8
:10202300051210D22C97051210D22F98051210D238
:102033008B98051210D2029A051210D21E9A05121D
:1020430010D2709A051210D2AE9A051210D2C19A0C
:10205300051210D2139B051210D26C9B051210D2DD
:10206300279C051210D2A19C051210D2CB9C0512FD
:1020730010D2039D051210D2759E051210D24E9FE9
:10208300051210D29DA0051210D270A1051210D214
:10209300F8A1051210D242A2051210D25CA20512B9
:1020A30010D2A3A2051210D295F0051210D259A393
:1020B300051210D2D3A3051210D2DEA3051210D23B
:1020C30033A4051210D28DA4051210D2DEA405127A
:1020D30010D26FA7051210D292A8051210D2CEA863
:1020E300051210D2C0A9051210D2E8A9051210D208
:1020F300EBA9051210D2F5A9051210D208AA0512F0
:1021030010D287AA051210D2BDAA051210D2E9AACD
:10211300051210D210AB051210D234AB051210D237
:10212300A5AB051210D2B3AB051210D2C9AB051281
:1021330010D2EAAB051210D218AC051210D22EAC95
:10214300051210D246AC051210D29F88041210D289
:102153005EEC061210D23582041210D2FCFF01127B
:1021630010D2939E041210D2B69E041210D2FC9F7A
:10217300041210D245A0041210D2ADA0041210D242
:1021830007A1041210D20AA1041210D256A10412FC
:1021930010D2C9A1041210D251A2041210D254A217
:1021A300041210D2DEA2041210D21FA3041210D202
:1021B300F4A6041210D28CA8041210D2C6A80412DA
:1021C30010D22DA9041210D27BAC041210D206AD8A
:1021D300041210D2F1AD041210D22FAF041210D298
:1021E3004CB0041210D20FB1041210D27AB20412FE
:1021F30010D216B3041210D223B4041210D25FB655
:10220300041210D2A3B7041210D2DAD3041210D2DC
:1022130084D4041210D2EAD4041210D203D50412C7
:1022230010D27FD5041210D2C3D5041210D2DED639
:10223300041210D21AD7041210D29AD7041210D251
:10224300E5D7041210D24CD8041210D2C7D9041205
:1022530010D2F5DA041210D27ADB041210D280DD28
:10226300041210D229DE041210D2CDDE041210D2D1
:102273002CDF041210D2A1DF041210D2F9E00412F1
:1022830010D2C1E1041210D20BE2041210D227E2E1
:10229300041210D2CDE2041210D219E3041210D2A8
:1022A300A5E3041210D2F5E4041210D2A7E6041237
:1022B30010D269E8041210D21AE9041210D284E988
:1022C300041210D2A4EA041210D269B9041210D273
:1022D300DDB9041210D225BA041210D269BA04125D
:1022E30010D2B2BA041210D2FCBA041210D234BB08
:1022F300041210D2B2BB041210D20CBC041210D2BE
:1023030060BD041210D2F1BD041210D249BE0412F2
:1023130010D263BE041210D28BBE041210D2E3BEDD
:10232300041210D252C1041210D271C1041210D27D
:1023330055C2041210D285C3041210D202C404126F
:1023430010D251C4041210D2B2C4041210D258C510
:10235300041210D226C7041210D226C8041210D2B7
:10236300A4C9041210D285CB041210D2EBCD0412EF
:1023730010D29BCF041210D26BD0041210D2D9D03A
:10238300041210D2F0D0041210D2E8D1041210D2E9
:10239300D8D2041210D243D3041210D257BF06125C
:1023A30010D2A3C0061210D260C1061210D2C4C14B
:1023B300061210D238C2061210D21CC6061210D250
:1023C30037C6061210D27BC6061210D2A1C6061259
:1023D30010D2C7C6061210D2DFC6061210D242C7E9
:1023E300061210D257C7061210D27AC8061210D29C
:1023F30083C8061210D28CC8061210D295C80612D2
:1024030010D29FC8061210D2DBA7061210D2DAAB85
:10241300061210D2DFAB061210D2E1AB061210D2B5
:10242300ABD7061210D267EF061210D220FD0512A9
:1024330010D209E3061210D2C7EC061210D220D331
:10244300061210D23BEF061210D280B4061210D23D
:1024530048AC061210D285EF061210D26DFF03129C
:1024630010D297FF031210D2C8D8031210D2FBD890
:10247300031210D267D9031210D202DA031210D258
:102483009FDA031210D2E4DA031210D206DB03122E
:1024930010D21FDB031210D245DB031210D267DB0D
:1024A300031210D2A5DB031210D2E9DB031210D200
:1024B3000BDC031210D26DDC031210D234DD0312D5
:1024C30010D2EBDD031210D25DDE031210D228DF2F
:1024D300031210D27BDF031210D2E1DF031210D2FA
:1024E3001BE0031210D26DE0031210D2DBE00312E3
:1024F30010D246E1031210D249E1031210D2CAE10D
:10250300031210D261E2031210D2C2E2031210D2FC
:10251300B2E3031210D2D1E3031210D235E5031252
:1025230010D242E5031210D24EE6031210D25BE63C
:10253300031210D264E6031210D23CE8031210D245
:1025430056E9031210D2CFE9031210D241EA031263
:1025530010D263EA031210D2F7EA031210D2CBECC3
:10256300031210D2A2F0031210D2B6F0031210D24B
:10257300C6F0031210D2D0F0031210D2D9F0031216
:1025830010D2E2F0031210D2ECF0031210D219F1C0
:10259300031210D242F1031210D24DF1031210D2E2
:1025A30071F1031210D295F1031210D2FFF103124D
:1025B30010D245F2031210D262F2031210D2DFF2EC
:1025C300031210D216F3031210D255F3031210D2D2
:1025D300A2F3031210D228F4031210D2F6F5031259
:1025E30010D28BF6031210D26FF7031210D2D6F962
:1025F300031210D22FFA031210D279FA031210D257
:10260300D4FB031210D212FC031210D264FC031287
:1026130010D219FD031210D2C8FD031210D205FE09
:10262300031210D29AFE031210D206FF031210D225
:102633000080021210D23280021210D26080021285
:1026430010D23682021210D21683021210D26E8377
:10265300021210D2A984021210D2F584021210D2EF
:102663001E88021210D2118B021210D2618C021238
:1026730010D2F78C021210D2038D021210D2358DB4
:10268300021210D2B88E021210D26990021210D226
:10269300FD90021210D24091021210D2BE9102128A
:1026A30010D2DB91021210D20B92021210D240927E
:1026B300021210D21093021210D2B993021210D246
:1026C3003F96021210D25F97021210D24A9802125A
:1026D30010D2CC98021210D2009D021210D23D9D4E
:1026E300021210D2959D021210D2C89D021210D26E
:1026F300329E021210D2689E021210D2F39E021270
:1027030010D24B9F021210D222A0021210D2DBA0D1
:10271300021210D276A1021210D27EA4021210D29B
:102723009AA5021210D23DA9021210D231AA0212A6
:1027330010D234AA021210D263AA021210D269ACC8
:10274300021210D242AD021210D285AD021210D283
:10275300DBAE021210D21AAF021210D2A3AF0212D2
:1027630010D2D7AF021210D29CB0021210D2B4B260
:10277300021210D225B3021210D265B3021210D284
:10278300F3B3021210D215B5021210D2D7B502124A
:1027930010D2DEB7021210D2F6B7021210D20AB864
:1027A300021210D242B8021210D270B8021210D222
:1027B300EFB9021210D214BB021210D271BB021273
:1027C30010D223BC021210D24ABC021210D211BD85
:1027D300021210D2A9BD021210D2CFBF021210D220
:1027E30004C0021210D267C0021210D296C10212A4
:1027F30010D23EC2021210D26FC2021210D287C28E
:10280300021210D216C3021210D2CAC5021210D27B
:10281300A2C7021210D2BEC7021210D2DAC7021226
:1028230010D2A8C8021210D29BCC021210D28E353D
:10283300001210D2C035001210D2AF39001210D2DC
:10284300FB39001210D2413A001210D2E33A0012BF
:1028530010D23F3B001210D2843B001210D2CB3C6B
:10286300001210D2DF3D001210D2CE41001210D25E
:102873005242001210D25F43001210D2BB43001227
:1028830010D2AB45001210D22046001210D22A46B5
:10289300001210D23746001210D26246001210D234
:1028A3004947001210D2F347001210D271480012A8
:1028B30010D29148001210D2BA48001210D2DC484C
:1028C300001210D23C4B001210D2024C001210D254
:1028D300474C001210D2C44C001210D2754D001296
:1028E30010D2A74D001210D2ED4D001210D2294E76
:1028F300001210D2794E001210D2CD4E001210D217
:10290300234F001210D26F4F001210D2DC4F00126F
:1029130010D25750001210D22252001210D222535A
:10292300001210D24754001210D28657001210D250
:10293300995A001210D2565B001210D29A5B001201
:1029430010D24A5D001210D25E5D001210D2685D93
:10295300001210D2725D001210D27E5D001210D2EE
:102963009A5D001210D2455E001210D2845E0012EE
:1029730010D28E5E001210D2985E001210D2085F41
:10298300001210D2535F001210D26860001210D2EE
:10299300C460001210D24561001210D2046200120A
:1029A30010D20D63001210D24164001210D22F65B1
:1029B300001210D24765001210D2A265001210D285
:1029C300C065001210D20866001210D22F660012E2
:1029D30010D2CA66001210D29067001210D2226879
:1029E300001210D29C68001210D2B669001210D2E5
:1029F300636A001210D28B6B001210D2DB6B0012D1
:102A030010D23F6C001210D2A16C001210D2CF6C06
:102A1300001210D2F36C001210D2286D001210D2E3
:102A2300596D001210D28C6D001210D2AC6D0012D1
:102A330010D2146E001210D2086F001210D2636FFE
:102A4300001210D28C6F001210D21470001210D228
:102A53009770001210D2C270001210D2A771001228
:102A630010D28572001210D2BD72001210D2DE7223
:102A7300001210D22073001210D28273001210D2EF
:102A83008C73001210D29C73001210D2D7730012F1
:102A930010D2B777001210D2A479001210D28A7B19
:102AA300001210D2217C001210D2C37C001210D26B
:102AB300B7AD031210D235AE031210D291AE03128A
:102AC30010D2DCAE031210D2F7AE031210D222AF33
:102AD300031210D23FAF031210D24BAF031210D226
:102AE300E2B0031210D2FBB0031210D280B1031272
:102AF30010D293B1031210D2B2B1031210D256B254
:102B0300031210D2D7B3031210D28AB5031210D214
:102B130020B6031210D223B6031210D293B60312B7
:102B230010D2B1B6031210D248B7031210D290B725
:102B3300031210D293B7031210D259B8031210D252
:102B4300C6B8031210D2ECB8031210D277B903122D
:102B530010D295B9031210D2DBB9031210D28FBA77
:102B6300031210D2D9BA031210D208BB031210D227
:102B730065BB031210D29ABB031210D2C6BB031259
:102B830010D2D4BB031210D221BC031210D291BCB9
:102B9300031210D2DABC031210D226BD031210D2D4
:102BA30052BD031210D25DBD031210D27BBD0312BE
:102BB30010D266BE031210D270BE031210D2ABBE87
:102BC300031210D2BBBE031210D2C4BE031210D222
:102BD30018BF031210D22CBF031210D25BC0031212
:102BE30010D270C0031210D2FEC0031210D243C120
:102BF300031210D2CFC1031210D2DAC1031210D2C2
:102C03001CC3031210D237C3031210D283C303129F
:102C130010D2F2C3031210D22BC4031210D245C434
:102C2300031210D287C4031210D257C7031210D253
:102C330004C8031210D271C8031210D2B1CA03120E
:102C430010D2C9CA031210D2CCCA031210D2D8CAE6
:102C5300031210D2ECCA031210D2F4CA031210D218
:102C630027CB031210D229CC031210D2B0CC0312FB
:102C730010D220CD031210D2A2CD031210D263CEF4
:102C8300031210D282CE031210D223CF031210D21A
:102C930080CF031210D283CF031210D2F7CF0312C7
:102CA30010D246D1031210D24CD2031210D2D7D273
:102CB300031210D2F2D3031210D2BAD4031210D2D9
:102CC300EBD4031210D20ED5031210D217D5031270
:102CD30010D246D5031210D2D6D5031210D28CD6F9
:102CE300031210D201D7031210D2A8D7031210D2A5
:102CF3001DD8031210D254D8031210D292D8031243
:102D030010D2F8EF051210D2EEEF051210D298EFA1
:102D1300051210D284EF051210D2E3EE051210D281
:102D2300E7ED051210D211ED051210D21AEB0512C0
:102D330010D26DEA051210D2FFE9051210D2529695
:102D4300051210D27288041210D2DB87041210D23B
:102D53004896051210D2DD95051210D27681041221
:102D630010D2D380041210D23194051210D2EF93F3
:102D7300051210D20F93051210D2F992051210D238
:102D8300BA92051210D21592051210D20F8F0512A6
:102D930010D2FD8C051210D2CA8C051210D2658C8C
:102DA300051210D2F88B051210D2B78B051210D270
:102DB300F08A051210D28B8A051210D2368A0512B8
:102DC30010D2D989051210D2B088051210D24D88BD
:102DD300051210D29787051210D29287051210D2CE
:102DE3008687051210D23984051210D292800412FC
:102DF30010D27380041210D24080041210D22B80A0
:102E0300041210D20080041210D279F3051210D2EA
:102E130041F3051210D21384051210D2B8830512A0
:102E230010D26383051210D22483051210D2EAF262
:102E3300051210D21183051210D20683051210D287
:102E4300E282051210D2F180051210D252EC061262
:102E530010D27080051210D27C85041210D22C80FF
:102E6300051210D20080051210D2B0D5051210D26F
:102E730072D5051210D245D5051210D211D50512FF
:102E830010D2B0D4051210D298D4051210D274D433
:102E9300051210D23DD1051210D209CF051210D25E
:102EA300F0CC051210D27FCC051210D22ECC051215
:102EB30010D292EC061210D2E8CB051210D253F1C5
:102EC300051210D251CB051210D2C3A20500000087
:102ED30080FBE47387000100721E350004003B1E73
:102EE300250002003F1E26000200411E27000200AB
:102EF300431E280001004D1E290001004E1E8400C0
:102F03000400411B86000100611D2A0001004F1EC1
:102F13002B000100501E2C000100541E2D00080040
:102F23004D1B2E000100551E2F000100561E3000C0
:102F33000100571E31000100581E32000100551BCD
:102F430033000100561B34000100591E36000100F6
:102F5300571B380001005A1E39000100531E83001D
:102F63000200701E63000100631B64000100511E18
:102F730065000100521E6D000100641B7100080012
:102F8300451B660001006F1E43000100601E4400E4
:102F93000200611E45000100631E46000200641E1C
:102FA300470008005B1B48000100661E4B00010040
:102FB300671E04000100731EA1000100761E370086
:102FC3000100751E88000100741E3C000100581B9F
:102FD3003D0001005B1E49000200681E67000100FE
:102FE300651B4D0002006A1E4E0001006C1E4F005F
:102FF30002006D1E3E0001005F1E51000100591BBF
:10300300520001005D1E530001005E1E54000100CA
:103013005A1B000000000000000000002001C2FD58
:10302300000001002001BCFD000002002001BFFDE3
:10303300000003002001C1FD000004004201C7FBA2
:10304300000005004201B9FA00000600420186FAB9
:10305300000007003001C0FD00000040420186FA75
:103063000000FDFF2101B8FD010020002005691DBE
:103073000100210020056A1D010003F02127FE1D28
:103083000600000010052B1A0A000000E227251A8B
:103093000A0007002327251A040204F02027001E34
:1030A3000204000029051D1A020401F02127EE1D68
:1030B300020402F02127F61D0304000029051F1A4C
:1030C300030410002905211A030414002805E71D31
:1030D300030401F02127F01D030402F02127F81D4A
:1030E300050400002105231A050401F02127F21D20
:1030F300050402F02127FA1D000136360101000103
:10310300020100010301000104010606050200009B
:10311300070100340801000F090401010D0100FF3C
:103123000E08000017020000190100FF1A01000138
:103133001B0100FE1C0100081D0200001F0100010D
:1031430020010001210200002301000F24020000DE
:103153002601000127010008280200FF2A010007B9
:103163002B0102402C0100002D0100012E01000162
:103173002F0100FF30010B1D310800003A01000848
:103183003B01000F3C0100013D0100FF3E04000034
:1031930042040000460400004A0400004E040000FC
:1031A30052040000560400005A0400000103710396
:1031B30001030103010301030103220302030103CA
:1031C30010030003000300030003000300030003D4
:1031D3004203000324030603000300030403120352
:1031E300250323032503230304030403000300032C
:1031F30000034403000300032303000365032100CA
:1032030035038103000305030003000300030003E8
:1032130025032303030271023001600211027002CD
:103223000102020202028002100261023A0041001E
:103233006302730272026202430200021302380045
:103243000002000204021202000200020002000255
:1032530004020402370037003C0244020002390032
:10326300000200026502000235028102000205022B
:10327300820283020002030071003001600011002A
:103283007000310220035004800010006100000030
:103293001400630073007200620043000000130017
:1032A30006000000000004001200000000000000FF
:1032B300000004000400370037003C024400000013
:1032C30000000000000065000000350081000000E0
:1032D30005000000830000000101710101010101EB
:1032E300110101013101010101018001100161019D
:1032F3003B00140063017301720162014301000189
:10330300130106013D013500040112010001000112
:103313000001000104010401330133013C014401B4
:103323003201360000010001650100013500810111
:10333300000105018201830100013600010006003E
:1033430000000F000000000000000000000000006B
:1033530003FFFF00000403FFFF0000FFFF0FF40162
:103363000005C4040320000100000B00000000005E
:1033730000000003010F0000000000000000000037
:10338300000000000000000000000000000000003A
:103393000000000000000000EC1E1C1FF21E201E97
:1033A300F81E221FF81E2E1FFE1E201EF81E221FAF
:1033B300041F201E000000000A1F201E0000000042
:1033C300101F201E161F201E00000000000000001A
:1033D30000000000000000000000000000000000EA
:1033E30000000000000000000000000000000000DA
:1033F3000000000000004622010046220200862150
:103403000280802103008C210400922104809821F2
:1034130005009E210600AA213000C8213100C221E7
:103423003300D4213400DA211100E0211400E62115
:103433001500BC21FFFF0000030003000400080087
:1034430010001F003E007B00F600EC01D703AF071E
:103453005D0FB91E713D00000600000010012B1A1C
:103463000604000018052C1A060410002127E81D85
:10347300060411002127EA1D000400002105291A72
:10348300000401F02127F41D000400F02127EC1DA6
:10349300000402F02127FC1D07ECFDFDFDECDCDC44
:1034A300CCBCACAC9C9C8C7C7C6C6C5C5C5C4C4CF9
:1034B3003C3C2C2C1C1C03EAF5E5D5D5C5B5A595DC
:1034C30095858575756565555545453535252515A9
:1034D30015050AA628027028057C280776280C58AB
:1034E300280D6428FF000000160F00000B150B02C7
:1034F3000002220F3300000E0F5A696742656541CF
:103503006C6C69616E63653039D0D1D2D3D4D5D6B2
:10351300D7D8D9DADBDCDDDEDF30301718192130FC
:103523001B1D1F3000034D4C4651181A2505020080
:10353300011916181616182303003030161819200F
:10354300231A1C1E30003C40423A3F3F392F47307C
:103553000C0E020B040B0A0708000F020402010100
:1035630001010902E803000000BE040A010024006F
:103573000300E803FF04091C0404031E1E030A0CD2
:1035830004100828020C0508150F0674F7120B64C3
:10359300E9901C38F0901BEDE4F0121BEC901C50EA
:1035A300E4F0A3F0901C39F0A3F01229F6121BF2F9
:1035B300901B75E4F0A3F01223EA024EF474F012A8
:1035C3000B6474D31211B512695054806066901C59
:1035D30038E0F9121C708A088B09AF09EA4F604C76
:1035E3007C0080010CEC75F003A4F8A9F074D528D5
:1035F300F582743439F583E493F46029E493F88A0B
:10360300828B83E06870DDEC75F003A4F874D62830
:10361300F582743439F583E493C0E0740193F58340
:10362300D082122ED5AA08EFFB121C5E12708264A0
:103633008002398F852182852283A3E05420601F75
:1036430012290C8A088B09AF09EA4F600A12286411
:10365300AA08EFFB121C5E127082642002398F8568
:103663002182852283E0A2E05042901BF2E0640FA6
:10367300702E900D5612708D900D56C3E094E9A3F1
:10368300E09403400A7A007B80901A65124FD67942
:103693000012283AE96009901E3B12141E122852A8
:1036A300852182852283E0640102397454207003EA
:1036B3000239797A207B00901C38E0F9121DD2EA96
:1036C3004B4C4D701A901C4C1213FAE8494A4B703C
:1036D3000E750801750900750A00750B00806D757C
:1036E3000C00750D00750E00750F00121DDE8A08A3
:1036F3008B098C0A8D0B901C4C1213FAE8494A4B28
:103703006031901C4C78081210AA400E750CFF759E
:103713000DFF750EFF750F7F801985080C85090D48
:103723008C0E8D0F901C4C780C12119D7401780C2B
:1037330012116C850C08850D09850E0A850F0BE5A2
:10374300084509450A450B70030238D37C00790408
:103753007A007B001228E28A0C8B0DAE0CAF0D02AF
:103763003817740212143574FFF07403121435748D
:10377300FFF0740412143574FF12504912680A746E
:1037830007121195126AC0E96401706A12399B44E9
:1037930080F8A3E0F97428121435E8F0A3E9126D58
:1037A30054E0C0E0742A121435D0E01250365408A5
:1037B30060167428121435A3E044011239A8C0E03E
:1037C300742C121435D0E0F01269936011E8240BC5
:1037D30012418EF87416121435E8F0A3E4F090FD4C
:1037E30065120F277406121195740B12118D122591
:1037F3005E74041211028E828F83A3A3A3A3A3A3D7
:10380300A3A3A374061239A8F91228C474051214C9
:1038130035126B17EE4F70030238D37C007904EE38
:10382300FAEFFB1228E27405121435EAF0A3EB1247
:103833004D60E0F50CA3E0F50DE4F50EF50F780807
:10384300790C1213754023EE2404F8E43FF985083C
:103853000C85090D8882F583C3E0950CF0A3E095F0
:103863000D127177E84970A4800C8E828F83A3A315
:10387300A3A3E4F0A3F08E828F83A3A3A3A3A3A3A4
:10388300A3A3A3A3E064018E828F83A3A3A3A3A313
:10389300A37020E0540460030237658E828F83A3F4
:1038A300A3A3A3A3A3A3A3A37406F07AB7123ACE48
:1038B30002380FA3A3A3A3E060030237658E828FB0
:1038C30083A3A3A3A3A3A3A3A3A37401F002380F09
:1038D3001228B27C0079017A007B001228E2EA4BBD
:1038E3006003124FCF7C0079047A007B001228E238
:1038F300EA4B701380448A828B83A3A3A3A3126B26
:103903002FEE98EF99400B8A828B83A3A3A3A31274
:103913006B177C0079041228E28B0BA90BEA497020
:10392300D5C3E5089EE5099F500DC3EE9508FEEF4C
:103933009509FFEE4F700D124FCF901C4C1239A119
:10394300A3F08024EE2EFEEF338E08F509E4F50A8A
:10395300F50B78081210E77A20123B771211021246
:103963001DDE901C4C121412852182852283E06493
:1039730020FAA3E08016A3E0540460131261E71257
:103983002E2279011243551270826404FB80047A5B
:10399300007B00742D02696FEE12697DE022E4F072
:1039A300A3F0A3F02212503BA3A3E022C082C08362
:1039B30074EA1211B57C167D007900AA21AB22129C
:1039C3001C4074081214357402F0901BE112642336
:1039D3001239EF740912143512643B74131214353F
:1039E300E41260BA1223DE7416025305E8F0A3E969
:1039F300F0901BEB126AFF2274F7120B6474DA1255
:103A030011B5EAFEEBFFEA4F602DAC21AD2212297E
:103A13002A7406121435E0601E7417121435E0FD83
:103A23007401121435E0FCEEFAEFFB790012281052
:103A3300E9600479A4800279007426024EF174F7D8
:103A4300120B64EAFEEBFF8A82F583A3A3A3A3A36D
:103A5300A3E0544060178A828B8312693012521498
:103A630060067AFF7BFF801512692C8003901BE1AF
:103A730012680A74FE6A700374FF6B604112692C4A
:103A83001269561229C0E98E828F83600B12651961
:103A9300127142E4F0A38003127131F07C407D285F
:103AA3008E828F8312488AE9F5087015EE4F6009FC
:103AB3007901EEFAEFFB1228BEA908024EF475084D
:103AC300CDAA08123ACEE960E380EE8E828F83128C
:103AD300651D240CF582E438F583E0F912284C22A5
:103AE30074F6120B64E9FEEAFF7A0F7B00121C588E
:103AF300EA4B601A8A828B83740CF0EEA3A3F0EF77
:103B03008A828B83124CAF1261187900802BEEF9F5
:103B13001228E88B09A909EA49601C8A828B83A3CE
:103B2300A3A3A3A3A3A3A3A37406124CB8E0F912FF
:103B33002600EEF91228C47910025F0374F4120B05
:103B4300648A088B098C0A8D0B901BF2E0640F705A
:103B53001EEA4B4C4D6018901BEDE064086005E0D5
:103B63006404700B78081210E7123B7512110202FD
:103B73003DDA7A017B00901C38E0F9121DC0740411
:103B83002274F4120B6474FC1211B5EAFEEBFF8A83
:103B930082F583A3A3E0F91228E88A088B09EA4B8C
:103BA3007003023CBD8E828F83A3A882A983E0C0E9
:103BB300E0EA12610ED0E0124B1E64F160288E829F
:103BC3008F83A3E064CD601E8E828F83A3E0641A8B
:103BD30060148E828F83A3E064E9600A8E828F83F0
:103BE300A3E064E1703379001228BEE9602BE50895
:103BF3002404F50AE43509F50B850882850983A3B6
:103C0300A3A3A3A3A3124BF4124AFC121BFE850A1F
:103C130082850B8312695680708E828F83A3E0C0E6
:103C2300E07402121435D0E01253131254361245C5
:103C3300A4C0E07403121435D0E0F0E508126DFF60
:103C430012424DE0AA21AB227005122558800312BF
:103C530029A87402121435E064E9702D8508828561
:103C630009831243B3750A01780A1210F3750AE93E
:103C7300780A1210F3124AD0124571FCA3E0FD8AB0
:103C8300828B8312459B121102850882850983A3C7
:103C9300A3A3A3A3A3A3A3A3E06402701285088232
:103CA300850983A3A3A3A3A3A3A3A3A37406F08E4D
:103CB300828F83A3A3E0F91228C41228B2901E4175
:103CC3001241BF7404023DD774F4120B64EAFEEB95
:103CD300FF7508008A82F583A3A3A3A3A3E060383A
:103CE3007508081267FD79FF122690EA4B6010757C
:103CF300082C8E828F83A3A3A3A3A3E0D2E0F08E2C
:103D0300828F83A3A3A3A3A3E054036401600302EC
:103D13003DC6430811023DC6EA24181256FC60361C
:103D2300EA241A1256FC6003F47013126ADF70035C
:103D3300A3E0696003023DC6750822023DC6EA247A
:103D43001B123DCA241A1256FCFAEE24191256FC11
:103D5300F91225EE806D8A828B83A3A3A3A3A3A369
:103D6300A3A3A31241AA70037508018E828F831245
:103D73006AE37003A3E0697006E508D2E1F508E59C
:103D83000860158E828F83A3A3E07006E508D2E551
:103D93008004E508D2E6F50812520764017006E5CF
:103DA30008D2E0F5088E828F83A3A3E06015EE248A
:103DB3001D125A1BF91229AEE964016006E508C217
:103DC300E0F508A9088010F582E43FF58312719AA3
:103DD300EA2274091211027F04020EA274F0120B7C
:103DE3006474D71211B5EAFEEBFF8A82F583A3A3AD
:103DF300A3A3E0600E901E3F12699A6006901E3FD7
:103E03001241BF74031211958E828F83A3A3A31251
:103E130062E612680812292AE97003023F707801EA
:103E23007405121435E0C39402400278007407123B
:103E33001435E0C3940240027800740C121435E088
:103E430064F87003A3E0F47003023F70740C12145F
:103E530035E064F97003A3E0F47003023F70740C5F
:103E6300121435E064FA7003A3E0F47003023F70A8
:103E7300740C121435E064FB7003A3E0F4700302C6
:103E83003F707406121435E0F9901BDBE0696003A0
:103E9300023F70E8A2E04003023F7074271214351A
:103EA300E06003023F70EE2413126AF574221214C9
:103EB300351262F0241C126AF57410121435126460
:103EC3003B7409121435E0601D741A121435E0FDB9
:103ED3007404121435E0FC8E828F83126808790112
:103EE300122810E9703B740312118D12285EE9F554
:103EF3000C7409121435E0702C901BD5E060267405
:103F030022596422601F744259644270147420124F
:103F130014351241A4600E742012143512419D60B1
:103F2300047ACF804AE9A2E6504D74201214351268
:103F33005A2124FD600F14600C24FD600824FD60E9
:103F43000424FE70287420121435124196700E74E6
:103F530020121435126047A3E0640D601A74031233
:103F6300118D1229D8E96401700D0241867AD37B41
:103F73000012215C024186EE242DF582E43FF58395
:103F83001243AA7003A3E069701D75080078081234
:103F930010F378081210F3EE242F1256FCF9124195
:103FA300B012459B1211027409121435E07003021A
:103FB300404E1241B012680A122A268A0E8B0FEA6B
:103FC3004B70030240DF7404121435E0F88E828FC5
:103FD30083A3A3E028F8A3E03400F9E8240D1241F9
:103FE3008EF88A828B83A3A3A3E068600EE88A829B
:103FF3008B83A3A3A3124CA81239A27904E9121448
:104003003512571BA3E02AF8A3E034008882F58316
:10401300A3AA82AB83121C4C8A088B098C0A8D0BD2
:10402300850E82850F83A3A3A3A378081210AA4049
:104033000302418690FCFD78081212E6850E828504
:104043000F83A3A31271A0A312543F901BEDE0644E
:10405300046008E064096003024186E50CA2E540C0
:1040630003024119EE242F125704F0EE24301256A6
:10407300FCC0E07401121435D0E0F0EE2431125686
:10408300FCC0E07402121435D0E0F074141214353D
:10409300E064017026740E121435124AF7241312C9
:1040A30056FC687003A3E0697011740C1214351286
:1040B30041AA70077414121435E4F0EE2425F58236
:1040C300E43FF583120F277404121195740712113C
:1040D3008D12255E7404121102024186901C32E097
:1040E3006401600302404E74201214351241A4701F
:1040F30009E50CA2E6500302404E7410121435E099
:10410300F47003A3E0F4607BEEFCEFFD7403121183
:104113008D12286A806DA2E650697420121435123C
:1041230065297016741A121435E06402705574030D
:1041330012118D79001229A28049742012143512AC
:10414300419D7014741A121435E0640470357403BD
:1041530012118D122996802B742012143512419658
:10416300700C7900740312118D1229E480157420E8
:10417300121435126047E0640C7008740312118D39
:104183001229F0742902696FE82406F582E439F5EF
:1041930083E022126936E0640322126936E0640781
:1041A30022125A25640622125218640222EE242B8C
:1041B300F582E43F127198EE1251ED22E0F508A367
:1041C300E0AA08FBE4FCFD1228522274F4120B64EB
:1041D300EAFEEBFF8C088D09901B55E0600F126A15
:1041E300DF7003A3E06970051225DC8053790012A8
:1041F30067FD12260C8A828B83E5824583602CA39C
:10420300A3A3A3A3A3E054186021E508241C12422E
:104213004A120F2B124246120F2BEE24181245821C
:10422300125CE2126AB7121102801579008E828F36
:1042330083A3A3A312650F125CE212680A1225E29C
:10424300023DDAE5082413F582E43509F583227487
:10425300F7120B6474F71211B5EAFEEBFF901BED36
:10426300E06403600DE064016008E0640960030238
:1042730043508A828B83A3E0600302431E7C007D4C
:10428300007A027B00121BF8126B5C8A82126AF9B5
:10429300901BDE12643B79531223CC901BEDE06438
:1042A300096009901BEB12680A122A208521828576
:1042B3002283740112605F901BED7404F074011289
:1042C300118D794A1223C674011211957AE37B1B6F
:1042D300121DF6901A68E0640B70057406F08005F1
:1042E3007900124355901BDE1265157A037B001289
:1042F3001BF8901BE11265157A047B00121BF890E2
:104303001BD8E0A2E35004D2F08002C2F012604C4A
:10431300901E3B12141E122852802FFC7D007A033C
:104323007B10121BF8901A68E0640B7003740AF098
:10433300901B59E4F0FA7B40125E3C8E828F83A37C
:10434300E0F9124355901BEDE4F01228947409022E
:104353004EF1901BEB12680E12257022C082C083AF
:10436300901B7512699A7017901BEDE024FB600592
:10437300146007800A901B7B801F901B7D801AE8C6
:1043830049600712418B6401700C8A828B83A3E01E
:10439300F9122564800E901C6712699A60061260F8
:1043A30048122ED5025B93126AFF901BEBE0682242
:1043B300126AFFE8FAE9FB2274F5120B6474D8124F
:1043C30011B58A088B098A828B83A3A3A3A3A3A312
:1043D300A3A3E0C3940F500302456C8A828B83A38B
:1043E300A3A3126B1774151211958A828B83A3A34F
:1043F300A3A3A3A3A3A3124571FAA3E0FB1228A0CE
:104403007415121435E0702E850882850983A3A3E1
:10441300A3A3A3A3A3A3E0C3940B401A8E828F8309
:10442300A3A3A3A3A3A3A3A3E064027009EE240B95
:104433001256FCF4600302456C7417121435E060E5
:10444300076402600302456C901BEDE06402601C8C
:10445300E064066017901B7512699A700302456C3D
:1044630012418B6401600302456C8025901B751219
:10447300699A701D75080078081210F378081210F5
:10448300F3EE24101245828E828F8312459B121104
:10449300028E828F8312716F124B27126AFB740292
:1044A3001214351262F012399CC0E07404121435F0
:1044B300D0E01245A4F508A3E0F509740F780812BB
:1044C30013957405121435E508F07419121435E0C8
:1044D300C0E07406121435D0E0F0741B121435E0FA
:1044E300C0E07407121435D0E0F07416121435E0EE
:1044F300C0E07409121435D0E0F07417121435E0DB
:10450300C0E07408121435D0E0F0EE24101256FC0B
:10451300C0E0740A121435D0E0F0741A121435E0B6
:10452300C0E0740B121435D0E0F07427121435E098
:10453300C0E0740C121435D0E0F0741C121435A9C9
:1045430082AA8389088A09750A0078081210EB7C0D
:10455300087D007410121435AA82AB831256F3122D
:104563001102AA21AB2212256A742802504FE0F9E6
:104573008A828B83A3A3A3A3A3A3A3A3A3E022F56C
:1045830082E43FF583E0F98E828F83A3A3A3A3A3E1
:10459300A3A3A3A312719A2212680E1229607402B4
:1045A30022F0EE125CE7E02274F2120B6474F8124C
:1045B30011B58A0A8B0B8C0C8D0D890890FC18ACF5
:1045C30021AD22740812104BC200AC0AAD0BAA2114
:1045D300AB2212678B7002D200901C398013AC0A95
:1045E300AD0BEE240BFAE43FFB12678B701B1251E9
:1045F300DE124E71601EA20040E48E828F83E0655E
:104603000C7004A3E0650D70E58E828F83A3A3E095
:10461300650870DAEEFAEFFB7408024B34C082C00F
:1046230083901C39025B90C082C083901C39E4F0F4
:10463300A302488674F7120B64901C3912708880A9
:104643000FEA2414F582E4126B14121D12EEFAEF32
:10465300FBEA4B70EC901C39E4F0A3F0024EF474C7
:10466300F2120B648A0C8B0DEDFF890B8A828B830C
:10467300E08C828D83F0A3A882A9838A828B831224
:10468300472B124CA2E0C454F0FA88828983E04A93
:10469300F0EC2402F8E43FF9850C828B83A3A31288
:1046A300472B12473EE0333354FC124732E0333397
:1046B3003354F8124732A3E0A2E0E4331313FA8829
:1046C300828983E04AF0EC2403FE50010FE50C24B9
:1046D30007F508E4350DF509750A0078081210EBA3
:1046E3007C087D00EEFAEF1256F2121102EE240856
:1046F300FE50010FE50C240FF508E4350DF509789C
:10470300081210EB7C037D00EEFAEF1256F2121141
:1047130002E50BC3940F400DE50C2412F582E4353A
:104723000D125CF6F0024B37A3E08882898322FAEC
:1047330088828983E04A12473EA322F0850C828B4C
:1047430083A3A3A3A32274F2120B64EBFF8C0C8D3F
:104753000D8A82F583E08C828D83127159A3A8821E
:10476300A983E0125B3B124B1DC4125B35F0EA12C6
:104773007163125B42124B1BA2E2E4338C828D8382
:10478300124B1A131313541F125B3BA3124B1AA29F
:10479300E7E4338C828D83A3A3A3A3A3A3F0EA242A
:1047A30003FE50010FF5088F09750A0078081210EF
:1047B300EB7C087D00E50C24071256EE121102EE85
:1047C3002408FE50010FF5088F0978081210EB7CBE
:1047D300037D00E50C240F1256EE1211028E828F18
:1047E30083A3A3A3E0C0E012717FD0E0F0024B37B4
:1047F30074F6120B64EAFEEBFF8A82F583A38582CB
:1048030008858309E0F9122588850882850983E0F4
:1048130064EB601E8E828F83A3E064E160148E825A
:104823008F83A3E064F1600A8E828F83A3E0641A0E
:1048330070078E828F83A3E4F0901E3B12141E1226
:10484300285275080178081210F38E828F83A3E033
:10485300F50878081210F37900901BEB1265159098
:104863001BE112459B1211021228B2025F03C082A0
:10487300C083E9901C4B7003E4800274018004EA56
:10488300F0A3EBF0025B9312680E1223E42274F69A
:10489300120B64901C4BE0701B7C0079017A007B47
:1048A300001228E2EA4B600C8A828B8312699A60B9
:1048B30003122846025F03C082C083124D51401089
:1048C30079FF1228DCE9F8903588E493C398500403
:1048D300790180027900025B9374F2120B648A0AF5
:1048E3008B0B8909C2008A828B83A3A3A3A3A3A3EF
:1048F300A3A3E0F91228E88A0C8B0DAE0CAF0D755B
:104903000801EA4F60030249BD850A82850B8312C1
:10491300650F850A82850B83A3A3A3A3A3A3A31275
:104923004AFC1228D08A0C8B0DAE0CAF0DEA4F70E7
:1049330003024AC98A828B83A3A3A3A3E4F0A3F04F
:10494300E50A240CFAE4350BFB8A82F583E0C0E028
:10495300124AD0D0E0F0E50A240D124AF0240D12D9
:1049630064351229C61251F6126956E50A2411124A
:104973004AF02411126435E50A2413126B26C0E0B1
:104983001251E8D0E0F0D200EE2406F8E43FF91229
:104993004AE3124B1E54046003024A2F901E4DE05B
:1049A300F50A750B007407780A1212C08E828F8382
:1049B300A3A3A3A3A3A3124ADAF08E828F83A3A394
:1049C300A3A3A3A3E0F50AA3E0F50B7407780A12E7
:1049D3001395E50A5407FCE50960618E828F83A372
:1049E300A3A3A3A3A3A3A3A37402125049124DE646
:1049F300600B901BD912577CA3A312643BEC70038A
:104A0300024AA0EE2406F8E43FF9E8FAE9124AE381
:104A1300F0EC24FFF50AE434FFF50B7407780A126F
:104A230012C08A828983124ADAF080718E828F8360
:104A3300A3A3A3A3A3A3E044800249BCEC70057520
:104A4300080080598E828F83A3A3A3A3A3A3E0545A
:104A530020600C121C52EA547F7900245F80198E67
:104A6300828F83A3A3A3A3A3A3E05410601A121CF1
:104A730052EA540F7900240A5001098E828F83A3CE
:104A8300A3A3A3F0A3E9800D8E828F83A3A3A3A383
:104A93007401F0A3E4124B277404124D67A2005073
:104AA300288E828F83A3A3A3A3126814F9EEFAEFCF
:104AB300FB1228D6E960121269936003124B09EEC8
:104AC300FAEFFB121D12750800A9088067EE240C8B
:104AD300F582E43FF58322E0450AF0A3E0450B228B
:104AE3008882F583E0547FF0A3E054FC22F582E44E
:104AF300350BF583126AFFEE22A3E0F9850A82855E
:104B03000B8312680E22124B10124F6622EE240FF3
:104B1300F582E43FF58322A3A3A3A3124B2222121F
:104B23006B42E022124B2B2212503FA3A3A3227409
:104B3300031211027F06020EA274F4120B6474F7BF
:104B43001211B57E001228E8EA4B7003024BEF8A7C
:104B5300828B83A3A3A3A3A3A3A3A3A3E06406605D
:104B630003024BEF8A828B83A3A3A3A3A3A3A3E094
:104B7300FF8A828B83127121E0C0E074081214351E
:104B8300D0E0124F1712642812643B1228FAEF5434
:104B93000860578521828522831265157A007B0080
:104BA3001228CAEA4B704312718A7C007D007A0096
:104BB3007B0080228E828F83125A21F47003A3E03C
:104BC300F46027901BEB124BF4124EF9601C7C002F
:104BD3007D00EEFAEFFB1228CA8A0A8B0BAE0AAFEE
:104BE3000BEE4F70CF79001223FC7E01EEF9023DEC
:104BF300D5124BF822E0FCA3E0FD8E828F8322C006
:104C030082C0838A828B83E58245837009901C501E
:104C130080068A828B83A3A3124E1A60208A828B1A
:104C230083A3A3A3A3A3A3A3E0540860E5EC4D606F
:104C330010124E207003A3E06D70D780047A007BBE
:104C430000025B9374F2120B648A088B09890AECE5
:104C5300FEEDFF7A147B00121D0CEA4B60378A824B
:104C63008B83A3A3A3A3A3A3A3A3A3E4124CB8E599
:104C73000A124F03EEF0A3EF124CA8124F1E124C70
:104C8300AF8A828B831271A2124C9B126891A3127A
:104C93004CA2F0A3F0024B37EA240FF582E4221270
:104CA300715DA3A322124F09E4F0A322A3F01271B2
:104CB3001A12689122124CBC22124F0DA3A3A3A374
:104CC3002274F5120B64EAFEEBFF890A8C088D0946
:104CD300EA4F6075740169701279011228DCE9F8F2
:104CE30090358AE493C3985015800A740469700957
:104CF300124D51500979118052740269704B8E82A2
:104D03008F83A3A3A3A3A3A3A3A3A3E50A124D6025
:104D1300125436126A1BA3E4F0A3F0901C501269DC
:104D23009A60188003126AFB88828983A3A3124EB8
:104D33001A88828983A3A370EC8003901C50EEF041
:104D4300A3EF124D677900800279C10250527904B2
:104D53001228DCE9F8903589E493C39822126A1F7C
:104D6300A3A3A322F07A207B00901C38E0F9121C45
:104D73009A22C082C083E9F87900901C50801D8A72
:104D8300828B83A3A3A3A3A3A3A3A3A3E068600528
:104D930074FF687001098A828B83A3A3124E1A7071
:104DA300DE025B9374F7120B64EA4B7005901C50A0
:104DB30080068A828B83A3A3124E1A601F8A828B7A
:104DC30083A3A3A3A3A3A3A3A3A3E06970E4EC60B9
:104DD3000F8A828B83124DE670D880047A007B00A1
:104DE300024EF412713AE0540422C082C083901C34
:104DF3005080068A828B83A3A3124E1A60128A8282
:104E03008B83A3A3A3A3A3A3A3A3E06970E5800457
:104E13007A007B00025B9312680EEA4B228A828B34
:104E230083125A256C2274F2120B648A0A8B0B8C40
:104E33000C8D0D750800750900EA4B602A901C5013
:104E430080068E828F83A3A3124E71601AAC0CADC1
:104E53000DEEFAEFFB850A82850B83122ED5E964EA
:104E63000170DF8E088F09AA08AB09024B37E0FEF9
:104E7300A3E0FFEE4F2274F7120B64901C50126AEA
:104E8300FB7C007D00800DE8FCE9FD88828983A31B
:104E9300A3126AFBE8496030EA687002EB6970E7C5
:104EA300901C5012680AE86A7002E96B8882898351
:104EB300A3A37008126AFB901C508009126AFB8C32
:104EC300828D83A3A312643B802774F7120B64EAD9
:104ED300FEEBFFEA4F60151228F4124F521269934A
:104EE3006003124B09EEFAEFFB121D12800312113D
:104EF300027F01020EA212680E1223F0E9641A2245
:104F0300124F09A3A322124F0D22F08A828B83A38F
:104F1300A3A3A32212715D125A2522124CBCA32211
:104F230074F6120B64901C50126B178014126B34BE
:104F3300124F52124B09EEFAEFFB121D12AE08AFDD
:104F430009EE4F70E8901C50E4F0A3F0025F038E6B
:104F5300828F8312710EF583124F668E828F8312B6
:104F63004F6622E0FAA3E0FB121D1222C082C08327
:104F7300EAFCEBFDEA4D6017EA24FBF582EB34FF14
:104F83001269987007124FC4E0F46007121C5E792F
:104F930005802B901C38E0C0E0124FC4D0E0F090A5
:104FA3003581E493F97A527B1C121C94E9640170F5
:104FB3000B7A007B20124FD3790080027904025BC5
:104FC30093EA24FFF582EB34FFF583227A207B00FA
:104FD300901C38E0F9121C9A2274F4120B64A2AFED
:104FE300E433F508C2AF901C52124E716038EE24C0
:104FF300FBF582EF34FF1269987A007B20901C380E
:105003006005124FD68005E0F9121CA0E4F50AF5FD
:105013000B780A1210EFEEFCEFFD7A527B1C121C88
:105023008E7402121102E508A2E092AFEEFAEFFBD2
:10503300023DDA12503BE02212503F22125049A3A4
:10504300A3A3A3A3A322F08E828F83221211027F34
:1050530003020EA274F2120B6474FA1211B5EAFE83
:10506300EBFF7508FE7509FF1228B8E96005791191
:105073000251D91256F9603C901E67E0C43354E0E4
:10508300F8E0333354FC48C0E0EE1261083FF58387
:10509300D0E0126B56FAA3E0FB79FF122690EA4B9D
:1050A30060127508FFEE240F1256FC4404F01256EA
:1050B300F9D2E0F08E828F831252126006EE241230
:1050C300126B6EEE24131256FC700D90357FE49331
:1050D300C0E01251E8D0E0F08E828F83E0A2E75067
:1050E3000454038019EE24141256FC7012901BCA48
:1050F300E0C0E01251DED0E0F0901BCAE004F0EE15
:1051030024111256FC64017016901E51E0600D903C
:105113001BD5E0700A8E828F83E07003126B6B8E57
:10512300828F83E064017013EE240B125A1B640216
:105133007009EE240F1256FC4440F0AC21AD22EE70
:10514300FAEFFB1229248A0A8B0B74FE650870039D
:1051530074FFF47003126B34EA4B60768E828F8394
:10516300E0C0E07401121435D0E0F0740412143579
:10517300EEF0A3EFF0EE241E126AF574021214355A
:1051830012643B7401121185880C890D780C12107E
:10519300EFEE24201251FB1210F31251F6120F2BD3
:1051A300EE240E1251FB1210F3901BDE120F2B7420
:1051B30008121435E0F9AC08AD0912291E7408125F
:1051C3001102E9FE74106E700BAA0AAB0B121D12CA
:1051D30080027E10EEF97406024B34EE2414F5823D
:1051E300E43FF58322EE1251ED222413F582E43FCE
:1051F300F58322EE124B1122F582E43FF583E0F5AD
:105203000C780C228E828F83A3A3A3A3A3A3A3A3AF
:10521300A312521822E0FAA3E0FB1229C0E922C02C
:1052230082C08374D71211B590F46F740312119571
:10523300742612104B8A828B83A3A3A3A3126AFB47
:10524300740E1214351269A0126AFB740C12143511
:1052530012531B240D12530BC0E0741A121435D0D1
:10526300E0F0126897126AF9742012143512531B76
:10527300241512530BC0E07408121435D0E0F0EA81
:10528300241CF582E43B126AF9741212143512538A
:105293001B241112530BC0E07409121435D0E0F033
:1052A300EA241212530BC0E07407121435D0E0F055
:1052B300EA241EF582E43B126AF9742412143512AF
:1052C300531B242012530BC0E07426121435D0E074
:1052D30012531374FFF0740112143574FFF0740247
:1052E30012143574FFF090FD65120F277404121128
:1052F30095740712118D12255E7404121102790040
:105303007429121102025B93F582E43BF583E022D8
:10531300F085218285228322E8F0A3E9F0EA227452
:10532300F4120B6474EC1211B58A0A8B0B8C088D82
:1053330009E9FF7E107A217B00121D0C85218285ED
:105343002283EAF0A3EB1269AAE849700302542FFF
:105353007C217D007900852182852283E0FA121C5D
:1053630040901BEB12680A852182852283126519FE
:105373002409F582E438F583126956742012143532
:10538300126AFB7411121435E8125A8A12695C38D6
:10539300F5837402125A8D1271287402125A77120D
:1053A3005436125A8D127105EFF07422121435120D
:1053B3005A38F9A3E0C9126DFF39F583E812574D46
:1053C300A3E0C9241FF582E43912543D7423121457
:1053D3003512680A740612143512695674081214C9
:1053E30035E8F07426121435126930C082C0837414
:1053F3000C121435AC82AD83D083D08274051210A5
:105403004B7425121435E0C0E07413121435D0E048
:10541300F07900AA21AB221228BEE9640170047E50
:10542300008009852182852283124B0CEEF97414C6
:10543300023DD7E508F0A3E50922F583E50AF0A3C9
:10544300E50BF02274F0120B6474FF1211B5EAFE3F
:10545300EBFF8C088D098A82F583A37408F0EA2494
:10546300161256FC60088A828B83A37410F0EA2418
:10547300171256FC60098A828B83A3E02408F0EAA2
:105483001256FA60088A828B83A3E004F08A828B27
:1054930083A3A3A3A3A3A3E060198A828B83A3A3FB
:1054A300A3A3A3A3A3E0C3332402F88A828B83A319
:1054B300E028F0EA24111257046004740E8001E41A
:1054C300F0901E5FE0640170168A828B83E06401B2
:1054D300600D901B59E060071256E47401800412BA
:1054E30056E4E412574D8A828B83A3E0F8EA12391B
:1054F3009C28298C828D83F0EA24111256FC6005C6
:10550300125D2529F0850882850983E0C3947540DF
:1055130009750C00750D000256DBE0FA7B00121DC5
:105523000C8A0C8B0DEA4B70030256DB8E828F8341
:10553300E0FA901BDB125746740278081212C0EA95
:105543004508FAAB09EE2412125740740678081284
:1055530012C0A808EA48FCEBFD1256F96004780172
:1055630080027800EE2416FAE43FFBE4C8F9ED4923
:10557300FDEE24111256FCF5088809740978081207
:1055830012C0ED4509FD8A828B83125746740B784E
:10559300081212C0ED4509FDEE2417125740740C92
:1055A30078081212C0ED4509FD8E828F83A3A3A351
:1055B300A3A3A3125746740A78081212C0ED450933
:1055C300FDEE2423125740740D78081212C0ED45E6
:1055D30009F9EC850C82850D83F0E9A3F0EE240232
:1055E300125723125762F0EE2404125723A3A31277
:1055F3005762A3A3F0EE2413125733F0EE241412D0
:105603005733A3F0750B088A828B83E06015126A07
:105613000C126515E50C2408FAE4350DFB121DF692
:10562300750B10EE24171256FC601912659812655B
:1056330015A80BE50C28FAE4350DFB121DF67408CA
:10564300250BF50B8E828F83A3A3A3A3A3A3E060F3
:105653004EEE2407F50EE43FF50F850E82F583E049
:10566300C0E0125712D0E0125752E0C0E0081257C0
:1056730014D0E0125752A31269861210EB850E82E2
:10568300850F83E01259ECA80BE50C281256EE1295
:105693001102850E82850F83E0C333250BF50B12B0
:1056A30056F96008C0E0125712D0E0F0125CE21223
:1056B30069861210EB12399BFC7D007403121435BA
:1056C30012571BE0F8E50C28F8E4350DF9E82AFA3F
:1056D300E4391256F2121102AA0CAB0D74010269DD
:1056E3006FEA2423F582E43FF58322FAE4350DFBC8
:1056F300121C34740322EE2415F582E43FF583E093
:1057030022F582E43FF583E085218285228322A866
:105713000BE50C281259FF22E0FA8E828F83A32215
:10572300F8E43FF98882F583E0850C82850D8322B6
:10573300F582E43FF58312576CA3A3A322F582E419
:105743003FF583E0F5087509002212714BF922F049
:10575300050B8E828F83A3A3A3A3A3A3A3A322A337
:10576300A3126B42A312576C22E0850C82850D8332
:10577300A3A3A3227403023DD7126AFF8E828F83F1
:10578300A3A32274F0120B6474FD1211B5126950B5
:105793007402121435E9F08C0C8D0D750B017C2607
:1057A3007D007900AA0CAB0D121C40740212143553
:1057B300E0C39408500302597512572BF0AC0CAD9B
:1057C3000D852182852283125A21FA852182852221
:1057D30083126047125D1EE96003750B0085218209
:1057E300852283126930125A42E0F9EA850C8285D8
:1057F3000D83A3A3A3A3A3A3A3A3A3F0A3E9125A73
:1058030077A3A3125A42A3A3E0F9E50C1269AFEA06
:10581300125A8A126505C0E0E50C2411127183D077
:10582300E0125A8D2407F582E438F583E0C0E012D4
:10583300717FD0E01269437408125A6EA3E06026A8
:10584300852182852283E02408F8A3E03400F9E56A
:105853000C2413F582E4350D126439850C82850D11
:1058630083A3E02408F0850C82850D83A3A3A3A35F
:10587300A3A3A3A3E0602A850C82850D83A385825D
:105883000E85830F125A2FF8A3E03400F9E50C12AA
:105893006108350D126439850E82850F83E0240873
:1058A300F01259F3E4F0125A07E4F0A3126943A388
:1058B300A3A3A3E06011125A53850C82850D83A321
:1058C300A3A3A3A3125A7FE50C125A14E070030298
:1058D3005961125A53FA1259F3EA125A7FF8852181
:1058E30082852283E028FBA3E034008B82F583E0EA
:1058F300F8E50C241A127183E8125A7FE8C39AE57B
:105903000C5056125A0FF8903582E493C398500402
:105913007E0C8006E50C125A0FFE850C82850D83E2
:10592300125A2EF508A3E03400F509750A00780829
:105933001210EBEE1259EC7ACC7B0E1256F31211C5
:1059430002125A0774CCF0A3740EF0EEC333F88539
:105953000E82850F83E0288004125A14E4F0850C2C
:1059630082850D83A3E0F8850C82850D83E0C398BF
:10597300500479008070125A2EFAA3E03400FBE53C
:105983000C126B65127186126956850C82850D8324
:10599300E0C398C0E0E50C2417127183D0E0125ADB
:1059A3006EE06040E50C2417FEE4350DFF8E82F5B2
:1059B30083E024F2F0E50C241DF8E4350DF9888228
:1059C300F583E0240EFAA3E03400FB888289831276
:1059D3006956901BD6E0F9122816E9F88E828F8358
:1059E300E0C398F0A90B02696D25E0FCE433FD22C6
:1059F300E50C1259F92224191259FF22F582E435D4
:105A03000DF58322E50C241B1259FF221259F9E0EC
:105A13002212693D125A0222F582E43FF583125A9B
:105A23002522126B04F5838882E022A3125A3322C3
:105A3300125A382822E0F8852182852283E022A3A6
:105A4300A3E0FA852182852283126936A3A3A322C8
:105A5300850C82850D83A385820E85830F125A33AD
:105A6300FAA3E034008A82F583E022126947A3A3F4
:105A7300A3A3A322125A92F583888222F0850E8271
:105A8300850F83E004F022F0A3E9125A92C8221290
:105A9300714FF8A3E02274F4120B648A088B09EAAD
:105AA300125B42A3A3F0EA1313543F125B35A3F036
:105AB300EAC41313125B42125B4C7409780A121383
:105AC30095125B2CA3A3A3A3A3A3F0EB125B2E124B
:105AD3005B4B740A780A121395E50A5401C0E0EC93
:105AE30012693D3DF583D0E0125B50740B780A12C6
:105AF3001395125B2C125B49740C780A12139512DE
:105B03005B2CA3125B49740D780A121395E50A54B2
:105B130001C0E0EC2424F582E43DF583D0E0F07489
:105B23000E7808121395023DC6E50A54018C828D46
