:020000040000FA
:060000000213890208A0B2
:03002B0002115669
:03003300020E407A
:0300430002100A9E
:030053000207D5CC
:03007B00020E185A
:10008300020834010000000000F8FF07FFFF000032
:100093000504000000030001FFFFFFFF00451014EB
:1000A3001027000018010000E0010000A0D30B009E
:1000B300100080DF10002000A0C1180030000020D5
:1000C300FD000200004E1B000000000000AE1B00FC
:1000D300000000000000000000000000000000001D
:1000E3000000000000000000000000000000000607
:1000F300FFFF1E20FEFFFEFFFEFFFFFFFF0101FFCC
:10010300FFFF861F0000EC1F00000000000000003E
:1001130000000000000000000000FF3C003C004520
:100123000032000100E8030A000A000A000A000A7C
:10013300001E00030104010C00020608FD0235FF46
:10014300030401070102014EFF0144FF0404010CF3
:100153000002014AFF00000001040000681A0000C9
:1001630000E8030000FFFFB91A0188130000E80349
:10017300000064006400B801A0BB0D00A0BB0D002B
:10018300020202070401051E02051E020A0A0101FA
:1001930008080103B80B02803E0102FEFFE8030AD0
:1001A300050001FFFF020A1401E00100B0423BAA6F
:1001B300B83F8C906339AA0CA33A00941E3C80424A
:1001C300633DCFFE753E1572313FF304353F809694
:1001D300184B000080BF2292D43EDD9B2A3F0400CF
:1001E3000040FFFF7F7FFFFF7FFF01008034187215
:1001F300313F02000000050301010F030003000368
:100203000003000300030003000300030005000ACA
:1002130000140028004F009E0000008932000000F7
:1002230000BF3100000000FF000000FF001213B701
:1002330060461213D5603DE9687008F618F618F6A3
:1002430018F622748067F71202640909097480673B
:10025300F7221213D5601D1213B7700519191980EF
:100263001A121275701F121289C37003E6673319CD
:10027300191940071818182208080874FFF618F609
:1002830018F618F62212128960171214437021927D
:10029300F012144C7019501720F0140808080909BB
:1002A30009E7F61819E7F61819E7F61819E7F62219
:1002B30012144C60E6E869701F0808E62480F6080B
:1002C300E436F618547FB47F0CE654806007F6E4F6
:1002D30018F618F622181822E9C6CC08C6CD08C6A7
:1002E300CE08C6CFC0E0E8C0E0EAC0E0EBC0E0095A
:1002F300E9F809E7FA09E7FBE6F918E6F8C3EC9829
:10030300ED99EE9AEBC2E7F5F0EFC2E795F0500EE8
:10031300600CEBCFFBEACEFAE9CDF9E8CCF8EAA220
:10032300E7D2E7FAEB33FB13F5F0EEA2E7D2E7FEF1
:10033300EF33FFC5F013A2E730E601B313C5F0C3F3
:10034300C0E0C0F07F00C39BFB605E9418600F4069
:100353001D14601AD0E023F9D0E0F80204368AF0C5
:10036300E9486003D2F0E4AFF0FAF9F8803BEB30F0
:10037300E40D89F0EA6003D2F0E4AFF0F9CAF8EBD8
:1003830030E30D88F0EF6002D2F0AFF0E4CAC9F8B1
:10039300EB54076014FBC3EA13FAE913F9E813F803
:1003A300EF135002D2E0FFDBEDD0E0C0E030E739DD
:1003B300C3E49FFFF5F0EC98FC42F0ED99FD42F0A9
:1003C300EE9AFE42F0D0E0F9D0E0F8E5F0607AE989
:1003D30023F9EE20E742D8028067C3EF33FFEC3303
:1003E300FCED33FDEE33FE80EAEC28FCED39FDEE47
:1003F3003AFED0E023F9D0E0F84002801BC3EE13AD
:10040300FEED13FDEC13FCEF135002D2E0FF08B82E
:1004130000067F7F74FF802EEF3350178CF020F09F
:100423000260100CBC000C0DBD00080EBE000408D9
:10043300E860DFE933E813FFEE2313FE4F4D4C80F2
:1004430008E95480FFE4FEFDFCEE33EF33F470045F
:10045300FCFD7E80D0E0FBD0E0FAD0E0F8D0E0CF26
:10046300C618CEC618CDC618CCC6F9221213D5703D
:1004730004181818221213B7700D74FFF61819F622
:100483001819F61819F622E7548066F612144C7000
:100493000F12144370F014F608F608F608F680D12C
:1004A300121443700CF608F608768008E6447F8041
:1004B300EC12128C700C12127860BFE65480F6E4D2
:1004C30080BB121278700519191980A5E869700CA0
:1004D300763F18768018F618F6E8F922E6CDC0E0E4
:1004E30018ECC0E0E633CD33CDD313F6E719FCE7C0
:1004F300191933CC33C3947F400ECD9D502408E6A5
:100503005480F6E418F6800FF4043D14501408E602
:10051300447FF6187680E418F618F6D0E0FCD0E0B5
:10052300FD22CCD313CCFD18E4C6CBC0E018E4C63F
:10053300CAC0E00808ED08C633E613F618E433C66C
:1005430075F003C3CA97CA09CB97CB199C40047DA6
:1005530008802EBD000302061816B6FF050606081E
:100563001618C3CA33CACB33CB33CA27CA09CB370E
:10057300CB193CC37D08803E187D0820E75CC63359
:10058300C6CA33CACB33CB33DDF1D5F0EB30E77BCF
:10059300CA97CA09CB974ACB199C406F4B7025E683
:1005A30020E0218066187D08C3CA97CA09CB97CB80
:1005B300199CD3C633C6CA33CACB33CB3350C9DD38
:1005C300E7D5F0E1D3E4C636C608C636C608C63654
:1005D300C608C636C61818188031C3CA97CA09CBCD
:1005E30097CB199CB34097C633C6CA33CACB33CB18
:1005F30033DD34D5F02EC6A2E0C640C8CA27CA09E7
:10060300CB37194A70BECB3CB480B90808E633082F
:10061300E633601F181818D0E0FAD0E0FBD0E0FCF6
:10062300D0E0FD22187D08CA27CA09CB37CB193C75
:10063300D3808013F618E4B67F11F618B6FF0EF6D2
:1006430018C60470D20808768080CAF618F618F621
:1006530080C5001213D5604F1213B76012E75480A0
:1006630066F61212757011121443703B090909F4EE
:10067300F618F618F618F622121289701512144C91
:1006830008080860EAE6447FF618768018E4F6184E
:10069300F62212144C60161214437012E4F608F694
:1006A30008F608E65480F609090918181822EAC062
:1006B300E0EBC0E0ECC0E0EDC0E0E687F0A4FBAC0B
:1006C300F008E687F0A42CFCE435F0FA1809E68775
:1006D300F0A42C4B60027401CA35F0FCE433FB092F
:1006E300E687F0D2F7A42CCB35F0FC1908E687F0A7
:1006F300A42BCC35F0FBE433FD0819E687F0D2E7F1
:10070300A42C4ACB35F0CD3400FC09E687F0D2E7C0
:10071300A42DCC35F0FDE433FA0918E687F0D2F7BF
:10072300A42CCD35F0CA3400FC08E687F0D2E7D21A
:10073300F7A42ACC35F07A7E20E70B0ACB33CBCD56
:1007430033CDCC33CC33CB3350147004ED30E00EC7
:10075300D2F1E4CD3DCDCC3CCC3B5005DA05C2F122
:10076300EB547FC63308E63392F0FBE73309E733F4
:10077300C39A502D2B70190C0D4C4D70151806E6AD
:1007830008C333700D20F10AA2F013F6E418800BAE
:100793004024E4F630F002768018F618F618F68056
:1007A30024D33B14501074FFA2F013F6187680E4A0
:1007B30018F618F6800FA2F013F618E63303F618AE
:1007C300ECF618EDF6D0E0FDD0E0FCD0E0FBD0E095
:1007D300FA22C0E074F1120BD3A2AFE433F509D2CD
:1007E300AF85A708AFA1EF5508FE74105E6006122F
:1007F30018D275A1EF74085E60081218D875A1F7B6
:100803008024EFA2E092F0E508A2E082F050179076
:100813006198E0F8900A6FE0C398A2D265D0335094
:1008230002E8F075A1FEE509A2E092AF7F02020C97
:1008330032C0E074F2120BD3A2AFE433FED2AF9016
:1008430061A4E0F8759B00E5915854086008759120
:10085300F71219268023E59158541060087591EF1B
:1008630012192C8014E591A2E092F0E8A2E082F044
:100873005007E0C2E0F0121A769061A3E0F8E5E9D0
:10088300585404600E121A4C75E9FB906193E0A270
:10089300E640F2EEA2E092AF7F01020C32C0E074B8
:1008A300F2120BD3A2AFE433FED2AF9061A5E0F80E
:1008B300E5BF585404600675BFFB121A8E80D4122C
:1008C300091730F04312095C803E8A088B098C0AB1
:1008D3008D0B780812091720F01430E72B74FFFCF6
:1008E300FBFA747F8022E4FCFBFA7480801AB480E4
:1008F30008BC00F2BB00EF800F50EBF9E4C39AFA97
:10090300E49BFBE49CFCE499C6CC18C6CB18C6CA8E
:1009130018C6F922E4C9C608CAC608CBC6D333032E
:1009230008CCC63392F0C3947F402E94184019C963
:10093300B90704CACBCC225025C309CA33CACB3367
:10094300CBCC33CC33D9F422F4600DC9CCC313CB55
:1009530013CBCA13CAD9F6CC22E4FCFBFA2214FC4B
:10096300FBFA22C3E498F8E499F91209A78026C395
:10097300E49AFAE49BFBE920E7E91209A7E498F873
:10098300E499F922C3E498F8E499F91209A7E498E1
:10099300F8E499F9C3E49AFAE49BFB22EB20E7CF4E
:1009A300E920E7E0B90010BB0008E88AF084F8AA60
:1009B300F022E4FBC8FA22EB70227B10C833C8C9CB
:1009C30033C9335007C39AC3DBF280069A50012A16
:1009D300DBEAC833F4C8C933F4C9FA2275F008E472
:1009E300C833C8C933C933C99AC99B5004C92AC972
:1009F3003BD5F0ECFBC833F4C8E4C9FA2208080875
:100A0300EAC0E0EBC0E086F0E7A4FA180986F0E755
:100A1300A42AFA180986F0E7A42AFA180986F0E747
:100A2300A42AFA1986F0E7A4FBE5F02AFA19088646
:100A3300F0E7A42BFBE5F03AFA190886F0E7A42BBC
:100A4300FBE5F03AFA18180986F0E7A4C5F02BFB8A
:100A5300E43AFA1908E7C5F0C6A426F6E5F03BFB2D
:100A6300E43AFA1886F0E7A4F6E5F00826F6E43B44
:100A730008F6E43A08F6D0E0FBD0E0FA22080808CA
:100A8300E630E711121239120A98080808C64480A2
:100A9300C618181822181818E9799EC608CAC60875
:100AA300CBC608CCC6C370207996CACBCC70197953
:100AB3008ECBCC70137986CC700EF9802ACA33CAD8
:100AC300CB33CBCC33CC331930E7F2CCCBCA335056
:100AD300147004EA30E00DE4CA3ACACB3BCBCC3CF9
:100AE300CC500209C3E913C6CC182313C6CB18C6CE
:100AF300CA18C6F922E4CFC0E0E4CEC0E0E4CDC01A
:100B0300E0E4CCC0E075F020E626F608E633F6080C
:100B1300E633F608E633F6181818EC33FCED33FD2C
:100B2300EE33FEEF33FFC3EC9709ED9709EE970918
:100B3300EF97191919400FFFEC97FC09ED97FD0981
:100B4300EE97FE191906D5F0BFECF709EDF709EE9C
:100B5300F709EFF7191919D0E0FCD0E0FDD0E0FE5A
:100B6300D0E0FF222521C582C0E0E52234FFC58302
:100B7300C0E0E521C3958224F810AF088583228560
:100B830082218008858322858221D2AFCEF0A3E51E
:100B930020F0A37808E608F0A3DEFAEFF0A3E581DE
:100BA30024FAF8E608F0A3E608F0A3E608F0A308A1
:100BB30008E608F0A3E608F0A315811581D0E0FE4E
:100BC300D0E0F8158115811581E8C0E0EEC0E02280
:100BD300C0D02521C582C0E0E52234FFC583C0E033
:100BE300E521C3958224F310AF08858322858221F2
:100BF3008008858322858221D2AFC8F0A3E9F0A3C0
:100C0300EAF0A3EBF0A37908E709F0A3D8FAECF034
:100C1300A3EDF0A3EEF0A3EFF0A3D0E0F0A3D0E0B8
:100C2300F0A3D0E0F0A3E520F0A3E5F0F0A3228544
:100C33002283852182E0C0E0A3E0F9A3E0FAA3E0E8
:100C4300FBA37808E0F608A3DFFAE0FCA3E0FDA32A
:100C5300E0FEA3E0FFA3E0C0E0A3E0C0E0A3E0F573
:100C6300D0A3E0F520A3E0A3F5F010AF088583221D
:100C73008582218008858322858221D2AFD082D0CC
:100C830083D0E0F8D0E03212142EB90003020CC96D
:100C9300E49004017856791A8002F0A3D8FCD9FABB
:100CA3007A567B1D90008678AB79028015E493A376
:100CB300AD82AE838A828B83F0A3AA82AB838D82BB
:100CC3008E83D8E9D9E77582EB7583E17406121038
:100CD300CD7582E075832E74001210CDFF75F01070
:100CE3008E238F24858228858327852182852283ED
:100CF300E0CEA3E0CF852882852783EBC9EAC8ED40
:100D0300CBECCAC3E833C8E933C9EA33CAEB33CB04
:100D1300C3EA9EF526EB9FF525B35004AB25AA261F
:100D2300EC33CCED33CDD5F0DAAE23AF242212135E
:100D3300D5601C1213B7601712144C7007121443BA
:100D43007001D322C0D01214437006D0D0B322C393
:100D53002233D0D0501430E0F6C3E7960809E79663
:100D63000809E7960809E796B32220E0D5E6970835
:100D730009E6970809E6970809E697B322D083D0D6
:100D830082ECC0E0EDC0E0E493A3FCE493A3FDEDAB
:100D93004C600D120EECEC24FFFCED34FFFD80EFF4
:100DA300E493A3FCE493A3FDED4C600D120FB5ECAB
:100DB30024FFFCED34FFFD80EFD0E0FDD0E0FCE448
:100DC30093A3C0E0E493C0E0221213D5601B121377
:100DD300B7601612144C7007121443600CB322C090
:100DE300D01214437005D0D022C32233D0D0501375
:100DF30030E0EBC3E7960809E7960809E796080988
:100E0300E7962220E0E4E6970809E6970809E697C3
:100E13000809E69722C0E074F2120BD3A2AFE433C1
:100E2300FED2AFE58AA2E350057902121806758A4D
:100E330000C2EBEEA2E092AF7F01020C32C0E0747D
:100E4300F2120BD3A2AFE433FED2AFE58BA2E05094
:100E5300057904121806758B00C2E880D6D083D0BA
:100E630082E9C0E0E493A3C386F0C5F095F0F908E6
:100E7300E493A386F0C5F095F0700BE493A3C399B4
:100E83004005E9048002A3E475F002A42582F582FB
:100E9300E5F03583F583D0E0F9E493A3C0E0E49370
:100EA300C0E022852283852182E0A3FEE0A3F52012
:100EB3007808E0A3F608DFFAE0A3FFE0A3C0E0E0D0
:100EC300A3C0E0E0A3C0E0E0A3C0E0E0A3C0E01063
:100ED300AF0885822185832280088582218583222C
:100EE300D2AFD083D0820210D3C0E0C3E49396087C
:100EF3007401939618400FE4936670080874019385
:100F0300661870007019A3A3C3E493960874019341
:100F13009618A3A3400DD0E0D0E0D0E0020DBCA30F
:100F2300A3A3A3A3A3D0E0227404800474028000CB
:100F3300CCC0E0EDC0E0E521C39CCCAD2250011D47
:100F430010AF068C218D2280068C218D22D2AF1208
:100F5300104FD0E0FDD0E0FC2274028000CCC0E052
:100F6300EDC0E0E521C39CCCAD2250011D10AF06BE
:100F73008C218D2280068C218D22D2AF12102DD090
:100F8300E0FDD0E0FC221213D560251213B76020D8
:100F930012144C7003021443080808E76670101813
:100FA30019E766700A1819E76670041819E76622CC
:100FB300F422C0E0C0F088F0E4936670080874017E
:100FC3009366187000A8F0A3A3700BD0F0D0E0D004
:100FD300E0D0E0020DBCA3A3D0F0D0E022D083D0B8
:100FE30082CCC0E0E493A360061210701470FAE49C
:100FF30093A360061211CF1470FAD0E0FCE493A31C
:10100300C0E0E493C0E022C0E074F2120BD3A2AFBD
:10101300E433FED2AFC2C0E5D1A2E4500312184EAE
:10102300EEA2E092AF7F01020C32CAC0E0E493A3C8
:10103300C582CCC582C583CDC583F0A3C582CCC58B
:1010430082C583CDC583DAE5D0E0CA22CAC0E0E019
:10105300A3C582CCC582C583CDC583F0A3C582CC8D
:10106300C582C583CDC583DAE6D0E0CA22C0E0E4F9
:1010730093A3D39C5010E493A3C39C400AD0E0D025
:10108300E0D0E0020FFDA3A3A3D0E022700908087B
:1010930008226016181818C6C333C608C633C60814
:1010A300C633C608C633C6D5E0EA22C008C3E096F5
:1010B300F50808A3E096420808A3E096420808A3AF
:1010C300E09645087001D3D00822C09FF59FE473D2
:1010D300D09F22D083D082C09FE493C0E074019359
:1010E300C0E0740293F59F227404800A740380069F
:1010F300740280027401C0E0F404121121D0E012E2
:1011030013F12200C0D0252110AF08F521500C05A2
:10111300228008F52150020522D2AFD0D02225210A
:10112300F58210AF08F521400C15228008F5214007
:10113300021522D2AF85228322BB0102E722C0829D
:10114300C08389828A83BB0003E08002E493D08357
:10115300D08222C0E0C0D0E8C0E0A8A8D2AFC2C706
:10116300E8A2E792AFD0E0F8D0D0D0E03260160822
:101173000808C6C313C618C613C618C613C618C6AE
:1011830013C6D5E0EA222521F8E43522F9222521E8
:10119300FAE43522FB222521FCE43522FD22C3E0BB
:1011A300C696F608A3E0C696F608A3E0C696F60828
:1011B300A3E0C696F622252110AF08F521400C15B1
:1011C300228008F52140021522D2AF22C0E0E49329
:1011D300A36C7009D0E0D0E0D0E0020FFDA3A3D050
:1011E300E022C3E7960809E7960809E7960809E7A6
:1011F30096A2D265D03322E76670100809E76670BD
:101203000A0809E76670040809E76622C3E096083E
:10121300A3E09608A3E09608A3E096A2D265D03394
:1012230022E066701008A3E066700A08A3E0667007
:101233000408A3E06622181818E4C396F608E49697
:10124300F608E496F608E496F622C3E096F008A3BF
:10125300E096F008A3E096F008A3E096F022C3E638
:1012630097F60809E697F60809E697F60809E69758
:10127300F622181818E60846087009E626087005CD
:10128300E633F4220822191919E70947097009E717
:1012930027097005E733F4220922C3E493960874FF
:1012A3000193960874029396087403939622E62793
:1012B300F60809E637F60809E637F60809E637F6C9
:1012C30022700422600D18C6C333C608C633C6D5C0
:1012D300E0F41822E657F60809E657F60809E65738
:1012E300F60809E657F622E026F608A3E036F608E4
:1012F300A3E036F608A3E036F622E026F008A3E0E2
:1013030036F008A3E036F008A3E036F022E056F00A
:1013130008A3E056F008A3E056F008A3E056F02235
:10132300E647F60809E647F60809E647F60809E638
:1013330047F622E056F608A3E056F608A3E056F671
:1013430008A3E056F622600D08C6A2E713C618C626
:1013530013C6D5E0F322C6F4C608C6F4C608C6F41D
:10136300C608C6F4C622C3E09608A3E09608A3E025
:101373009608A3E09622C3E7960809E7960809E7CB
:10138300960809E7962275D00075813F752101758E
:10139300220400020C8A600C08C6C313C618C613C5
:1013A300C6D5E0F422E6F008A3E6F008A3E6F008C9
:1013B300A3E6F022E7094709C3134709336002E7AD
:1013C30033F422E0F608A3E0F608A3E0F608A3E06E
:1013D300F622E6084608C3134608336002E633F4F0
:1013E30022800100E9F874FF28F90470F622CAC0CC
:1013F300E0E6F0A308DAFAD0E0FA22E0F8A3E0F995
:10140300A3E0FAA3E0FB22E8F0A3E9F0A3EAF0A348
:10141300EBF022EAF0A3EBF0A3ECF0A3EDF022E073
:10142300FAA3E0FBA3E0FCA3E0FD22E5C754F844E4
:1014330001F5C77901222521F582E43522F58322BE
:10144300E72719471947194722E626184618461869
:101453004622C2AF75D69F020000221210D6DDE9E4
:10146300031210D665EA031210D620EB031210D62E
:1014730083EB031210D6C7EB031210D661EC0312F1
:1014830010D6DFEC031210D612ED031210D620EEA5
:10149300031210D640EE031210D694EE031210D6A8
:1014A3007CEF031210D67EF1031210D620F2031242
:1014B30010D670F4031210D6F4F4031210D6F9F711
:1014C300031210D62DFA031210D665FA031210D6A2
:1014D300C4FB031210D6CEFB031210D61DFC03125D
:1014E30010D6EFFD031210D6D0E3061210D604E493
:1014F300061210D657E4061210D65AE5061210D675
:10150300BDDB061210D61BDC061210D65DDC0612FC
:1015130010D67FDC061210D639DD061210D67DDD1B
:10152300061210D6B2DD061210D62AD1051210D635
:10153300A6D1051210D6D9D1051210D607D205129D
:1015430010D645D2051210D680D4051210D69FD4DA
:10155300051210D6E4D4051210D67AD5051210D68A
:10156300C6D5051210D65AD6051210D632D7051293
:1015730010D68ED7051210D6ECD7051210D669D81F
:10158300051210D69FD8051210D6EAD8051210D628
:1015930010D9051210D6A0D9051210D637DA0512C4
:1015A30010D683DA051210D6B4DA051210D6EBDAA8
:1015B300051210D671DC051210D63BDD051210D6CC
:1015C3000BDE051210D614E9051210D61EE905121A
:1015D30010D62FE9051210D647E9051210D6ADE94A
:1015E300051210D6D8E9051210D6F3E9051210D664
:1015F30028EA051210D650EA051210D678EA051229
:1016030010D6A7EA051210D6A4EB051210D6F1EBFB
:10161300051210D606EC051210D698EC051210D65A
:10162300E7EC051210D60FED051210D634EE0512B5
:1016330010D601F0051210D6A4F2051210D6BEF290
:10164300051210D64FC8061210D67BC8061210D644
:101653009BC8061210D6C2C8061210D609CA0612B3
:1016630010D62ACA061210D6E8CA061210D67FCBA5
:10167300061210D68DEE061210D6D0EE061210D634
:101683004DEF061210D66FEF061210D66A900612AF
:1016930010D67791061210D68791061210D6B591FF
:1016A300061210D6D391061210D60292061210D645
:1016B3003492061210D6B593061210D6649506120C
:1016C30010D60996061210D67D96061210D6DB9612
:1016D300061210D62497061210D62797061210D694
:1016E3002A97061210D63B97061210D64597061274
:1016F30010D69A97061210D6DE97061210D6E897E0
:10170300061210D6F297061210D64E98061210D66D
:10171300C298061210D6A999061210D60D9B06126E
:1017230010D6389C061210D6429C061210D6079D7E
:10173300061210D6219D061210D62A9D061210D627
:10174300339D061210D6929D061210D622D706128A
:1017530010D6E9D7061210D6FBD7061210D676D8C4
:10176300061210D68BF3061210D69CF3061210D66F
:101773003AF4061210D645F4061210D65DF406129A
:1017830010D6FA7F001210D66CF8061210D66CF43D
:10179300061210D67CF4061210D694F4061210D654
:1017A300FCF4061210D697F0061210D61AF10612A0
:1017B30010D680F1061210D6E1DF061210D6F5DF3F
:1017C300061210D65CE0061210D6A5E0061210D65B
:1017D300CDE0061210D6F1E0061210D614E106127F
:1017E30010D64CE1061210D674E1061210D6AFE102
:1017F300061210D67BED061210D604EE061210D692
:1018030013EE061210D643EE061210D695FC0512FF
:1018130010D6A3FC051210D61CFD051210D6F4FD3C
:10182300051210D6B7FF051210D6E2F7061210D62E
:10183300F2A2061210D65FA3061210D617A4061240
:1018430010D62AA5061210D6B5A6061210D61EA7C4
:10185300061210D66DA7061210D676A7061210D65A
:101863008AA7061210D69DA7061210D6169E061238
:1018730010D6429E061210D686A0061210D6C6A017
:10188300061210D606A1061210D61AA1061210D6F9
:1018930033A1061210D625A2061210D6CAA206122A
:1018A30010D6DEA2061210D66CFE021210D690FEDF
:1018B300021210D6A9FE021210D6DBFE021210D6B7
:1018C3000BFF021210D638FF021210D69AFF021233
:1018D30010D6A9FF021210D6B3FF021210D6C0FF12
:1018E300021210D67DD4061210D69DD4061210D63D
:1018F300DCD4061210D6F7D4061210D616D506126B
:1019030010D67CD5061210D685D5061210D6E2D590
:10191300061210D6F1D5061210D615D6061210D619
:10192300D6D6061210D6E3D6061210D6F4D6061271
:1019330010D684FF031210D6CCFF031210D6F8FF83
:10194300031210D685AC061210D6DFAD061210D6E0
:10195300EDAD061210D600AE061210D615AE061265
:1019630010D62AAE061210D63DAE061210D6B1AE70
:10197300061210D616AF061210D6B8AF061210D63E
:101983007CB0061210D68CB0061210D69BB006128D
:1019930010D65EFF011210D682FF011210D6AAFFE5
:1019A300011210D6D2FF011210D6A97D001210D653
:1019B300D07D001210D6EE7D001210D6617E00128B
:1019C30010D6AAD1061210D6C3D1061210D6CFD183
:1019D300061210D6E3D1061210D601D2061210D683
:1019E3000BD2061210D615D2061210D628D2061222
:1019F30010D6AED2061210D623D3061210D652D367
:101A0300061210D6A0D3061210D6EFD3061210D6A4
:101A13000AD4061210D614D4061210D625D40612F0
:101A230010D668D4061210D618F7061210D6008006
:101A3300061210D62A80061210D64780061210D638
:101A43005A80061210D67080061210D6CE80061267
:101A530010D60681061210D6FA84061210D63F86D7
:101A6300061210D67286061210D6D586061210D626
:101A73003588061210D65D88061210D672880612B3
:101A830010D68288061210D6C688061210D621896F
:101A9300061210D63189061210D62DEB061210D677
:101AA30047EB061210D66FEB061210D688EB061220
:101AB30010D6ACEB061210D6CAEB061210D6E1EB29
:101AC300061210D60FEC061210D62AEC061210D608
:101AD30063F7061210D664C1061210D674C106123B
:101AE30010D679C2061210D6ABC2061210D6DBC2CC
:101AF300061210D6FEC2061210D615C3061210D651
:101B03004FC3061210D6B4C3061210D6F6C306127C
:101B130010D635C4061210D666C4061210D691C468
:101B2300061210D6FBE9061210D619EA061210D6D1
:101B330079EA061210D618EB061210D699F206129D
:101B430010D6B7E8061210D6DBE9061210D6E4DE8B
:101B5300051210D64BE2051210D63CE4051210D63E
:101B630072E5051210D653E6051210D6CFE705121B
:101B730010D69BE8051210D6EFE8051210D6B4E58F
:101B8300061210D6D5E5061210D6FAE6061210D6BE
:101B930024E7061210D6A7F7061210D6B7F70612D7
:101BA30010D6C1F7061210D6EBBF051210D6EEBF42
:101BB300051210D686C7051210D692C8051210D684
:101BC30011CA051210D6D3CA051210D6B9CB051205
:101BD30010D6B0CC051210D69ECD051210D65BCE12
:101BE300051210D68BCE051210D63CD0051210D696
:101BF30061E7061210D673E7061210D687E80612BD
:101C030010D68AE8061210D693EF061210D6C9EF43
:101C1300061210D6DFEF061210D621F0061210D6E8
:101C230031F0061210D675F0061210D67FF00612A8
:101C330010D66189061210D66B89061210D6AE89AA
:101C4300061210D6138A061210D6308A061210D640
:101C5300498A061210D6EB8A061210D6F48A0612A7
:101C630010D6398B061210D6628B061210D66F8BE4
:101C7300061210D6EA8B061210D6758C061210D6F1
:101C8300BA8C061210D6058D061210D66A8D06126E
:101C930010D68D8D061210D6FE8D061210D6538ED9
:101CA300061210D68E8E061210D6C38E061210D6CA
:101CB300D58E061210D6E78E061210D6068F0612A0
:101CC30010D60F8F061210D6BD8F061210D60090B5
:101CD300061210D63E90061210D65FF6061210D6E4
:101CE300A6A7061210D6E6A8061210D609A9061250
:101CF30010D61AA9061210D6ECAA061210D60CABEF
:101D0300061210D687D9061210D6BDD9061210D6E0
:101D130005DA061210D65EDB061210D658AC051291
:101D230010D671AD051210D6ABAD051210D659AF52
:101D3300051210D687AF051210D6EDB1051210D6D5
:101D43002DB2051210D6D1B3051210D661B4051207
:101D530010D6B5B4051210D657B5051210D699B5DD
:101D6300051210D6DBB5051210D638B7051210D6FA
:101D730086B8051210D6BDBA051210D6EBBA0512F5
:101D830010D612BB051210D61BBB051210D672BBA0
:101D9300051210D60DBC051210D615BF051210D6AC
:101DA3009CBF051210D656F8061210D675B9061246
:101DB30010D68BB9061210D62FBA061210D66EBAE9
:101DC300061210D68BBA061210D6BCBA061210D65B
:101DD30009BB061210D63CBB061210D677BB0612FF
:101DE30010D66CBD061210D699F1061210D6F8F172
:101DF300061210D636F2061210D677F2061210D655
:101E0300A5FF041210D6BDCC021210D6C9CC021203
:101E130010D62BCD021210D635CD021210D6C6CD58
:101E2300021210D602CE021210D6EBCE021210D638
:101E3300FECE021210D64BCF021210D6DACF021208
:101E430010D610D0021210D68BD0021210D65AD24E
:101E5300021210D654D4021210D632D5021210D662
:101E630050D6021210D696D8021210D6D9D9021221
:101E730010D688DA021210D628DF021210D61CE020
:101E8300021210D6C0E0021210D6E5E0021210D6FC
:101E930081E1021210D696E1021210D6BAE10212C3
:101EA30010D628E2021210D645E2021210D66FE2D3
:101EB300021210D605E4021210D626E4021210D63E
:101EC300CCE4021210D614E5021210D669E5021210
:101ED30010D609E6021210D66DE6021210D6CBE632
:101EE300021210D678E7021210D6E6E7021210D6D5
:101EF30019E8021210D687E8021210D6D8E90212A6
:101F030010D62EEA021210D6CBEA021210D625ED15
:101F1300021210D68EED021210D604EF021210D662
:101F23002EEF021210D64AF1021210D6F5F3021266
:101F330010D61EF5021210D60080031210D6158299
:101F4300031210D60085031210D6A385031210D6F0
:101F53000E86031210D65C86031210D6A88B0312CA
:101F630010D6E98C031210D6D88D031210D6FE8D2D
:101F7300031210D6348E031210D6C08E031210D65D
:101F8300D98F031210D67490031210D687900312C0
:101F930010D6A990031210D60A91031210D66E918F
:101FA300031210D67092031210D68792031210D622
:101FB300B492031210D6CF92031210D6F6920312E4
:101FC30010D66896031210D6CFA1031210D67DA3A4
:101FD300031210D6E4A6031210D682AA031210D657
:101FE30005AE031210D673B1031210D660B20312FA
:101FF30010D684B2031210D6BCF6061210D650F9CE
:10200300021210D6DDF9021210D657FA021210D6B8
:1020130078FA021210D654FB021210D6C1FC021237
:1020230010D68296051210D6B496051210D62C97A8
:10203300051210D62F98051210D68B98051210D6BC
:10204300029A051210D61E9A051210D6709A05121E
:1020530010D6AE9A051210D6C19A051210D6139B4C
:10206300051210D66C9B051210D6279C051210D6AC
:10207300A19C051210D6CB9C051210D6039D051208
:1020830010D6759E051210D64E9F051210D69DA030
:10209300051210D670A1051210D6F8A1051210D69C
:1020A30042A2051210D65CA2051210D6A3A20512F5
:1020B30010D66BF9051210D659A3051210D6D3A367
:1020C300051210D6DEA3051210D633A4051210D6BE
:1020D3008DA4051210D6DEA4051210D66FA7051223
:1020E30010D692A8051210D6CEA8051210D6C0A9F4
:1020F300051210D6E8A9051210D6EBA9051210D6C1
:10210300F5A9051210D608AA051210D687AA05123A
:1021130010D6BDAA051210D6E9AA051210D610AB27
:10212300051210D634AB051210D6A5AB051210D686
:10213300B3AB051210D6C9AB051210D6EAAB051224
:1021430010D618AC051210D62EAC051210D646AC1C
:10215300051210D690E9031210D695F5061210D683
:1021630026E3031210D6FD7F001210D6A5A6041293
:1021730010D6C8A6041210D60EA8041210D657A85B
:10218300041210D6BFA8041210D619A9041210D62F
:102193001CA9041210D668A9041210D6DBA90412D4
:1021A30010D663AA041210D666AA041210D6F0AA97
:1021B300041210D631AB041210D606AF041210D697
:1021C3009EB0041210D6D8B0041210D63FB1041238
:1021D30010D68DB4041210D618B5041210D603B657
:1021E300041210D641B7041210D65EB8041210D6EA
:1021F30021B9041210D68CBA041210D628BB0412CB
:1022030010D635BC041210D621BE041210D65ABF04
:10221300041210D69EC0041210D6D5DC041210D6B8
:102223007FDD041210D6E5DD041210D6FEDD0412A4
:1022330010D67ADE041210D6BEDE041210D6D9DF11
:10224300041210D615E0041210D695E0041210D62D
:10225300E0E0041210D647E1041210D6C2E20412E1
:1022630010D6F0E3041210D675E4041210D67BE600
:10227300041210D624E7041210D6C8E7041210D6AD
:1022830027E8041210D69CE8041210D6F4E90412CD
:1022930010D6BCEA041210D606EB041210D622EBB9
:1022A300041210D6C8EB041210D614EC041210D684
:1022B300A0EC041210D6F0ED041210D6A2EF041213
:1022C30010D664F1041210D615F2041210D67FF260
:1022D300041210D69FF3041210D664C2041210D64F
:1022E300D8C2041210D620C3041210D664C3041239
:1022F30010D6ADC3041210D6F7C3041210D62FC4E0
:10230300041210D6ADC4041210D607C5041210D699
:102313005BC6041210D6ECC6041210D644C70412CE
:1023230010D65EC7041210D686C7041210D6DEC7B5
:10233300041210D64DCA041210D66CCA041210D659
:1023430050CB041210D680CC041210D6FDCC04124C
:1023530010D64CCD041210D6ADCD041210D653CEE8
:10236300041210D621D0041210D621D1041210D693
:102373009FD2041210D680D4041210D6E6D60412CB
:1023830010D696D8041210D666D9041210D6D4D912
:10239300041210D6EBD9041210D6E3DA041210D6C5
:1023A300D3DB041210D63EDC041210D6E9C40612A5
:1023B30010D635C6061210D6F2C6061210D656C768
:1023C300061210D6CAC7061210D6AECB061210D606
:1023D300C9CB061210D60DCC061210D633CC06127A
:1023E30010D659CC061210D671CC061210D6D4CC06
:1023F300061210D6E9CC061210D60CCE061210D651
:1024030015CE061210D61ECE061210D627CE0612F1
:1024130010D631CE061210D6D4B0061210D6D3B4CD
:10242300061210D6D8B4061210D6DAB4061210D695
:102433005DE2061210D61AF8061210D6D4CE061292
:1024430010D65DEC061210D6FEF5061210D6D2DDBC
:10245300061210D6CAFF021210D679BD061210D684
:1024630041B5061210D638F8061210D606F5061234
:1024730010D630F5061210D60080041210D6338021
:10248300041210D69F80041210D63A81041210D67B
:10249300D781041210D61C82041210D63E82041275
:1024A30010D65782041210D67D82041210D69F8252
:1024B300041210D6DD82041210D62183041210D622
:1024C3004383041210D6A583041210D66C8404121D
:1024D30010D62385041210D69585041210D6608673
:1024E300041210D6B386041210D61987041210D61C
:1024F3005387041210D6A587041210D6138804122A
:1025030010D67E88041210D68188041210D6028950
:10251300041210D69989041210D6FA89041210D61F
:10252300EA8A041210D6098B041210D66D8C041299
:1025330010D67A8C041210D6868D041210D6938D81
:10254300041210D69C8D041210D6748F041210D668
:102553008E90041210D60791041210D679910412AA
:1025630010D69B91041210D62F92041210D6039406
:10257300041210D6DA97041210D6EE97041210D66E
:10258300FE97041210D60898041210D6119804125C
:1025930010D61A98041210D62498041210D6519803
:1025A300041210D67A98041210D68598041210D605
:1025B300A998041210D6CD98041210D63799041294
:1025C30010D67D99041210D69A99041210D6179A30
:1025D300041210D64E9A041210D68D9A041210D6F5
:1025E300DA9A041210D6609B041210D62E9D0412A0
:1025F30010D6C39D041210D6A79E041210D60EA1A6
:10260300041210D667A1041210D6B1A1041210D679
:102613000CA3041210D64AA3041210D69CA30412CE
:1026230010D651A4041210D600A5041210D63DA54D
:10263300041210D6D2A5041210D63EA6041210D648
:102643000080021210D63280021210D6608002126D
:1026530010D63682021210D61683021210D66E835B
:10266300021210D6A984021210D6F584021210D6D3
:102673001E88021210D6118B021210D6618C021220
:1026830010D6F78C021210D6038D021210D6358D98
:10269300021210D6B88E021210D66990021210D60A
:1026A300FD90021210D64091021210D6BE91021272
:1026B30010D6DB91021210D60B92021210D6409262
:1026C300021210D61093021210D6B993021210D62A
:1026D3003F96021210D65F97021210D64A98021242
:1026E30010D6CC98021210D6009D021210D63D9D32
:1026F300021210D6959D021210D6C89D021210D652
:10270300329E021210D6689E021210D6F39E021257
:1027130010D64B9F021210D622A0021210D6DBA0B5
:10272300021210D676A1021210D67EA4021210D67F
:102733009AA5021210D63DA9021210D631AA02128E
:1027430010D634AA021210D663AA021210D669ACAC
:10275300021210D642AD021210D685AD021210D667
:10276300DBAE021210D61AAF021210D6A3AF0212BA
:1027730010D6D7AF021210D69CB0021210D6B4B244
:10278300021210D625B3021210D665B3021210D668
:10279300F3B3021210D615B5021210D6D7B5021232
:1027A30010D6DEB7021210D6F6B7021210D60AB848
:1027B300021210D642B8021210D670B8021210D606
:1027C300EFB9021210D614BB021210D671BB02125B
:1027D30010D623BC021210D64ABC021210D611BD69
:1027E300021210D6A9BD021210D6CFBF021210D604
:1027F30004C0021210D667C0021210D696C102128C
:1028030010D63EC2021210D66FC2021210D687C271
:10281300021210D616C3021210D6CAC5021210D65F
:10282300A2C7021210D6BEC7021210D6DAC702120E
:1028330010D6A8C8021210D69BCC021210D69D3512
:10284300001210D6CF35001210D6BE39001210D6A2
:102853000A3A001210D6503A001210D6F23A001279
:1028630010D64E3B001210D6933B001210D6DA3C22
:10287300001210D6EE3D001210D6DD41001210D624
:102883006142001210D66E43001210D6CA430012E2
:1028930010D6BA45001210D62F46001210D639466C
:1028A300001210D64646001210D67146001210D6FA
:1028B3005847001210D60248001210D68048001262
:1028C30010D6A048001210D6C948001210D6EB4803
:1028D300001210D64B4B001210D6114C001210D61A
:1028E300564C001210D6D34C001210D6844D001251
:1028F30010D6B64D001210D6FC4D001210D6384E2D
:10290300001210D6884E001210D6DC4E001210D6DC
:10291300324F001210D67E4F001210D6EB4F00122A
:1029230010D66650001210D63152001210D6315311
:10293300001210D65654001210D69557001210D616
:10294300A85A001210D6655B001210D6A95B0012BC
:1029530010D6595D001210D66D5D001210D6775D4A
:10296300001210D6815D001210D68D5D001210D6B4
:10297300A95D001210D6545E001210D6935E0012A9
:1029830010D69D5E001210D6A75E001210D6175FF8
:10299300001210D6625F001210D67760001210D6B4
:1029A300D360001210D65461001210D613620012C5
:1029B30010D61C63001210D65064001210D63E6568
:1029C300001210D65665001210D6B165001210D64B
:1029D300CF65001210D61766001210D63E6600129D
:1029E30010D6D966001210D69F67001210D6316830
:1029F300001210D6AB68001210D6C569001210D6AB
:102A0300726A001210D69A6B001210D6EA6B00128B
:102A130010D64E6C001210D6B06C001210D6DE6CBD
:102A2300001210D6026D001210D6376D001210D6A8
:102A3300686D001210D69B6D001210D6BB6D00128C
:102A430010D6236E001210D6176F001210D6726FB5
:102A5300001210D69B6F001210D62370001210D6EE
:102A6300A670001210D6D170001210D6B6710012E3
:102A730010D69472001210D6CC72001210D6ED72DA
:102A8300001210D62F73001210D69173001210D6B5
:102A93009B73001210D6AB73001210D6E6730012AC
:102AA30010D6C677001210D6B379001210D6997BD0
:102AB300001210D6307C001210D6D27C001210D631
:102AC300E0B5031210D65EB6031210D6BAB60312DF
:102AD30010D605B7031210D620B7031210D64BB782
:102AE300031210D668B7031210D674B7031210D6A8
:102AF3000BB9031210D624B9031210D6A9B90312C5
:102B030010D6BCB9031210D6DBB9031210D67FBAA4
:102B1300031210D600BC031210D6B3BD031210D695
:102B230049BE031210D64CBE031210D6BCBE03120C
:102B330010D6DABE031210D671BF031210D6B9BF76
:102B4300031210D6BCBF031210D682C0031210D6D4
:102B5300EFC0031210D615C1031210D6A0C1031281
:102B630010D6BEC1031210D604C2031210D6B8C2C7
:102B7300031210D602C3031210D631C3031210D6A8
:102B83008EC3031210D6C3C3031210D6EFC30312AE
:102B930010D6FDC3031210D64AC4031210D6BAC40A
:102BA300031210D603C5031210D64FC5031210D655
:102BB3007BC5031210D686C5031210D6A4C5031213
:102BC30010D68FC6031210D699C6031210D6D4C6D8
:102BD300031210D6E4C6031210D6EDC6031210D6A4
:102BE30041C7031210D655C7031210D684C8031267
:102BF30010D699C8031210D627C9031210D66CC970
:102C0300031210D6F8C9031210D603CA031210D642
:102C130045CB031210D660CB031210D6ACCB0312F4
:102C230010D61BCC031210D654CC031210D66ECC84
:102C3300031210D6B0CC031210D680CF031210D6D5
:102C43002DD0031210D69AD0031210D6DAD2031263
:102C530010D6F2D2031210D6F5D2031210D601D336
:102C6300031210D615D3031210D61DD3031210D698
:102C730050D3031210D652D4031210D6D9D4031250
:102C830010D649D5031210D6CBD5031210D68CD645
:102C9300031210D6ABD6031210D64CD7031210D69C
:102CA300A9D7031210D6ACD7031210D620D803121B
:102CB30010D66FD9031210D675DA031210D600DBC3
:102CC300031210D61BDC031210D6E3DC031210D65A
:102CD30014DD031210D637DD031210D640DD0312C4
:102CE30010D66FDD031210D6FFDD031210D6B5DE4A
:102CF300031210D62ADF031210D6D1DF031210D627
:102D030046E0031210D67DE0031210D6BBE0031297
:102D130010D6CEF8051210D6C4F8051210D66EF8E8
:102D2300051210D65AF8051210D6B9F7051210D6A7
:102D3300BDF6051210D6E7F5051210D6F0F305120D
:102D430010D643F3051210D6D5F2051210D65296BB
:102D5300051210D663E9031210D6CCE8031210D67D
:102D63004896051210D6DD95051210D667E20312B8
:102D730010D6C4E1031210D63194051210D6EF9386
:102D8300051210D60F93051210D6F992051210D61C
:102D9300BA92051210D61592051210D60F8F05128E
:102DA30010D6FD8C051210D6CA8C051210D6658C70
:102DB300051210D6F88B051210D6B78B051210D654
:102DC300F08A051210D68B8A051210D6368A0512A0
:102DD30010D6D989051210D6B088051210D64D88A1
:102DE300051210D69787051210D69287051210D6B2
:102DF3008687051210D63984051210D683E1031293
:102E030010D664E1031210D631E1031210D61CE18F
:102E1300031210D6F1E0031210D64FFC051210D6A0
:102E230017FC051210D61384051210D6B8830512A9
:102E330010D66383051210D62483051210D6C0FB67
:102E4300051210D61183051210D60683051210D66B
:102E5300E282051210D6F180051210D689F506120A
:102E630010D67080051210D66DE6031210D62C8092
:102E7300051210D60080051210D647FF041210D693
:102E830009FF041210D6DCFE041210D6A8FE0412A9
:102E930010D647FE041210D62FFE041210D60BFED6
:102EA300041210D6D4FA041210D6A0F8041210D6C5
:102EB30087F6041210D616F6041210D6C5F50412BE
:102EC30010D6C9F5061210D67FF5041210D629FACA
:102ED300051210D6E8F4041210D6C3A205000000B0
:102EE30080FBE47387000100781E35000400411E57
:102EF30025000200451E26000200471E270002008F
:102F0300491E28000100531E29000100541E84009D
:102F13000400441B86000100641D2A000100551EA5
:102F23002B000100561E2C0001005A1E2D00080024
:102F3300501B2E0001005B1E2F0001005C1E3000A1
:102F430001005D1E310001005E1E32000100581BAE
:102F530033000100591B340001005F1E36000100DD
:102F63005A1B38000100601E39000100591E8300FE
:102F73000200761E63000100661B64000100571EF9
:102F830065000100581E6D000100671B71000800F9
:102F9300481B66000100751E43000100661E4400C5
:102FA3000200671E45000100691E460002006A1EFA
:102FB300470008005E1B480001006C1E4B00010027
:102FC3006D1E04000100791EA10001007C1E370064
:102FD30001007B1E880001007A1E3C0001005B1B80
:102FE3003D000100611E490002006E1E67000100E2
:102FF300681B4D000200701E4E000100721E4F0040
:103003000200731E3E000100651E510001005C1B9F
:1030130052000100631E53000100641E54000100AE
:103023005D1B00000000000000000000200156FFAF
:1030330000000100200150FF00000200200153FFA7
:1030430000000300200155FF00000400420157FD6A
:103053000000050042012BFC0000060042013CFC7D
:1030630000000700300154FF0000004042013CFC17
:103073000000FDFF21014CFF0100200020056C1D15
:103083000100210020056D1D010003F02127041E0E
:103093000600000010052E1A0A000000E227281A75
:1030A3000A0007002327281A040204F02027061E1B
:1030B300020400002905201A020401F02127F41D4F
:1030C300020402F02127FC1D030400002905221A33
:1030D300030410002905241A030414002805ED1D18
:1030E300030401F02127F61D030402F02127FE1D2E
:1030F300050400002105261A050401F02127F81D07
:10310300050402F02127001E0001363601010001EB
:10311300020100010301000104010606050200008B
:10312300070100340801000F090401010D0100FF2C
:103133000E08000017020000190100FF1A01000128
:103143001B0100FE1C0100081D0200001F010001FD
:1031530020010001210200002301000F24020000CE
:103163002601000127010008280200FF2A010007A9
:103173002B0102402C0100002D0100012E01000152
:103183002F0100FF30010B1D310800003A01000838
:103193003B01000F3C0100013D0100FF3E04000024
:1031A30042040000460400004A0400004E040000EC
:1031B30052040000560400005A0400000103710386
:1031C30001030103010301030103220302030103BA
:1031D30010030003000300030003000300030003C4
:1031E3004203000324030603000300030403120342
:1031F300250323032503230304030403000300031C
:1032030000034403000300032303000365032100B9
:1032130035038103000305030003000300030003D8
:1032230025032303030271023001600211027002BD
:103233000102020202028002100261023A0041000E
:103243006302730272026202430200021302380035
:103253000002000204021202000200020002000245
:1032630004020402370037003C0244020002390022
:10327300000200026502000235028102000205021B
:10328300820283020002030071003001600011001A
:103293007000310220035004800010006100000020
:1032A3001400630073007200620043000000130007
:1032B30006000000000004001200000000000000EF
:1032C300000004000400370037003C024400000003
:1032D30000000000000065000000350081000000D0
:1032E30005000000830000000101710101010101DB
:1032F300110101013101010101018001100161018D
:103303003B00140063017301720162014301000178
:10331300130106013D013500040112010001000102
:103323000001000104010401330133013C014401A4
:103333003201360000010001650100013500810101
:10334300000105018201830100013600010006002E
:1033530000000F000000000000000000000000005B
:1033630003FFFF00000403FFFF0000FFFF0FF40152
:103373000005C4040320000100000B00000000004E
:1033830000000003010F0000000000000000000027
:10339300000000000000000000000000000000002A
:1033A3000000000000000000F01E201FF61E241E77
:1033B300FC1E261FFC1E321F021F241EFC1E261F7E
:1033C300081F241E000000000E1F241E0000000022
:1033D300141F241E1A1F241E0000000000000000FA
:1033E30000000000000000000000000000000000DA
:1033F30000000000000000000000000000000000CA
:103403000000000000005622010056220200902115
:1034130002808A210300962104009C210480A221BA
:103423000500A8210600B4213000D2213100CC21AF
:103433003300DE213400E4211100EA211400F021DD
:103443001500C621FFFF000003000300040008006D
:1034530010001F003E007B00F600EC01D703AF070E
:103463005D0FB91E713D00000600000010012E1A09
:103473000604000018052F1A060410002127EE1D6C
:10348300060411002127F01D0004000021052C1A59
:10349300000401F02127FA1D000400F02127F21D8A
:1034A300000402F02127021E07ECFDFDFDECDCDC2D
:1034B300CCBCACAC9C9C8C7C7C6C6C5C5C5C4C4CE9
:1034C3003C3C2C2C1C1C03EAF5E5D5D5C5B5A595CC
:1034D3009585857575656555554545353525251599
:1034E30015050AB628028028058C280786280C684B
:1034F300280D7428FF000000160F00000B150B02A7
:103503000002220F3300000E0F5A696742656541BE
:103513006C6C69616E63653039D0D1D2D3D4D5D6A2
:10352300D7D8D9DADBDCDDDEDF30301718192130EC
:103533001B1D1F3000034D4C4651181A2505020070
:1035430001191618161618230300303016181920FF
:10355300231A1C1E30003C40423A3F3F392F47306C
:103563000C0E020B040B0A0708000F0204020101F0
:1035730001010902E803000000BE040A010024005F
:103583000300E80304091C0404031E1E030A0C04BD
:10359300100828020C0508150F0674F7120B67E9CB
:1035A300901C3BF0901BF0E4F0121BF0901C53E4D2
:1035B300F0A3F0901C3CF0A3F0122A06121BF69025
:1035C3001B78E4F0A3F01223FA024F0374F0120BFA
:1035D3006774D31211B912695F54806066901C3B03
:1035E300E0F9121C748A088B09AF09EA4F604C7C1E
:1035F3000080010CEC75F003A4F8A9F074E528F53C
:1036030082743439F583E493F46029E493F88A826D
:103613008B83E06870DDEC75F003A4F874E628F59D
:1036230082743439F583E493C0E0740193F583D055
:1036330082122EE5AA08EFFB121C621270916480BD
:1036430002399E852182852283A3E05420601F12C4
:10365300291C8A088B09AF09EA4F600A122874AA49
:1036630008EFFB121C62127091642002399E8521BF
:1036730082852283E0A2E05042901BF5E0640F7044
:103683002E900D5612709C900D56C3E094E9A3E062
:103693009403400A7A007B80901A68124FE5790000
:1036A30012284AE96009901E4112142212286285E9
:1036B3002182852283E0640102398354207003024E
:1036C30039887A207B00901C3BE0F9121DD6EA4B27
:1036D3004C4D701A901C4F1213FEE8494A4B700E62
:1036E300750801750900750A00750B00806D750C6E
:1036F30000750D00750E00750F00121DE28A088B10
:10370300098C0A8D0B901C4F1213FEE8494A4B603B
:1037130031901C4F78081210AE400E750CFF750DDA
:10372300FF750EFF750F7F801985080C85090D8CB9
:103733000E8D0F901C4F780C1211A17401780C128E
:103743001170850C08850D09850E0A850F0BE50898
:103753004509450A450B70030238E27C0079047A77
:10376300007B001228F28A0C8B0DAE0CAF0D0238D1
:1037730026740212143974FFF0740312143974FF9F
:10378300F0740412143974FF125058126819740734
:10379300121199126ACFE96401706A1239AA44803E
:1037A300F8A3E0F97428121439E8F0A3E9126D6361
:1037B300E0C0E0742A121439D0E012504554086076
:1037C300167428121439A3E044011239B7C0E07407
:1037D3002C121439D0E0F01269A26011E8240B1204
:1037E300419DF87416121439E8F0A3E4F090FEF941
:1037F300120F2B7406121199740B12119112256E6C
:1038030074041211068E828F83A3A3A3A3A3A3A37D
:10381300A3A374061239B7F91228D4740512143904
:10382300126B26EE4F70030238E27C007904EEFA45
:10383300EFFB1228F27405121439EAF0A3EB124DD0
:103843006FE0F50CA3E0F50DE4F50EF50F780879BC
:103853000C1213794023EE2404F8E43FF985080C95
:1038630085090D8882F583C3E0950CF0A3E0950DDF
:10387300127186E84970A4800C8E828F83A3A3A360
:10388300A3E4F0A3F08E828F83A3A3A3A3A3A3A394
:10389300A3A3A3E064018E828F83A3A3A3A3A3A303
:1038A3007020E0540460030237748E828F83A3A3D5
:1038B300A3A3A3A3A3A3A37406F07AB7123ADD02CA
:1038C300381EA3A3A3A3E060030237748E828F8301
:1038D300A3A3A3A3A3A3A3A3A37401F002381E125B
:1038E30028C27C0079017A007B001228F2EA4B603F
:1038F30003124FDE7C0079047A007B001228F2EA7F
:103903004B701380448A828B83A3A3A3A3126B3EC1
:10391300EE98EF99400B8A828B83A3A3A3A3126B28
:10392300267C0079041228F28B0BA90BEA4970D587
:10393300C3E5089EE5099F500DC3EE9508FEEF957C
:1039430009FFEE4F700D124FDE901C4F1239B0A3DA
:10395300F08024EE2EFEEF338E08F509E4F50AF528
:103963000B78081210EB7A20123B86121106121DF7
:10397300E2901C4F121416852182852283E0642075
:10398300FAA3E08016A3E0540460131261F6122E2A
:103993003279011243641270916404FB80047A004B
:1039A3007B00742D02697EEE12698CE022E4F0A3A1
:1039B300F0A3F02212504AA3A3E022C082C0837472
:1039C300EA1211B97C167D007900AA21AB22121CE0
:1039D3004474081214397402F0901BE41264321216
:1039E30039FE740912143912644A7413121439E437
:1039F3001260C91223EE7416025314E8F0A3E9F01F
:103A0300901BEE126B0E2274F7120B6774DA12110D
:103A1300B9EAFEEBFFEA4F602DAC21AD2212293A41
:103A23007406121439E0601E7417121439E0FD7421
:103A330001121439E0FCEEFAEFFB7900122820E9B9
:103A4300600479A4800279007426024F0074F7128F
:103A53000B67EAFEEBFF8A82F583A3A3A3A3A3A3C9
:103A6300E0544060178A828B8312693F12522360AD
:103A7300067AFF7BFF801512693B8003901BE412DB
:103A8300681974FE6A700374FF6B604112693B121C
:103A930069651229D0E98E828F83600B1265281223
:103AA3007151E4F0A38003127140F07C507D288EA5
:103AB300828F83124899E9F5087015EE4F600979F2
:103AC30001EEFAEFFB1228CEA908024F037508CDC9
:103AD300AA08123ADDE960E380EE8E828F831265D5
:103AE3002C240CF582E438F583E0F912285C227467
:103AF300F6120B67E9FEEAFF7A0F7B00121C5CEA01
:103B03004B601A8A828B83740CF0EEA3A3F0EF8AC6
:103B1300828B83124CBE1261277900802BEEF9123F
:103B230028F88B09A909EA49601C8A828B83A3A31D
:103B3300A3A3A3A3A3A3A37406124CC7E0F912265D
:103B430010EEF91228D47910025F1274F4120B6785
:103B53008A088B098C0A8D0B901BF5E0640F701E8D
:103B6300EA4B4C4D6018901BF0E064086005E0647C
:103B730004700B78081210EB123B84121106023DFD
:103B8300E97A017B00901C3BE0F9121DC474042206
:103B930074F4120B6774FC1211B9EAFEEBFF8A820C
:103BA300F583A3A3E0F91228F88A088B09EA4B707E
:103BB30003023CCC8E828F83A3A882A983E0C0E05A
:103BC300EA12611DD0E0124B2D64F160288E828FC2
:103BD30083A3E064CD601E8E828F83A3E0641A60AA
:103BE300148E828F83A3E064E9600A8E828F83A39D
:103BF300E064E1703379001228CEE9602BE50824F4
:103C030004F50AE43509F50B850882850983A3A326
:103C1300A3A3A3A3124C03124B0B121C02850A820B
:103C2300850B8312696580708E828F83A3E0C0E069
:103C33007402121439D0E01253221254451245B3C0
:103C4300C0E07403121439D0E0F0E508126E0E12CE
:103C5300425CE0AA21AB2270051225688003122979
:103C6300B87402121439E064E9702D85088285095D
:103C7300831243C2750A01780A1210F7750AE978AC
:103C83000A1210F7124ADF124580FCA3E0FD8A8274
:103C93008B831245AA121106850882850983A3A383
:103CA300A3A3A3A3A3A3A3E0640270128508828540
:103CB3000983A3A3A3A3A3A3A3A3A37406F08E8240
:103CC3008F83A3A3E0F91228D41228C2901E4712AF
:103CD30041CE7404023DE674F4120B67EAFEEBFF77
:103CE3007508008A82F583A3A3A3A3A3E0603875B4
:103CF300080812680C79FF1226A0EA4B60107508B9
:103D03002C8E828F83A3A3A3A3A3E0D2E0F08E82A1
:103D13008F83A3A3A3A3A3E0540364016003023D21
:103D2300D5430811023DD5EA241812570B6036EA31
:103D3300241A12570B6003F47013126AEE7003A374
:103D4300E0696003023DD5750822023DD5EA241BD4
:103D5300123DD9241A12570BFAEE241912570BF9F4
:103D63001225FE806D8A828B83A3A3A3A3A3A3A39F
:103D7300A3A31241B970037508018E828F83126A5F
:103D8300F27003A3E0697006E508D2E1F508E508DF
:103D930060158E828F83A3A3E07006E508D2E580C9
:103DA30004E508D2E6F50812521664017006E50828
:103DB300D2E0F5088E828F83A3A3E06015EE241D65
:103DC300125A2AF91229BEE964016006E508C2E025
:103DD300F508A9088010F582E43FF5831271A9EA7A
:103DE3002274091211067F04020EA674F0120B67E7
:103DF30074D71211B9EAFEEBFF8A82F583A3A3A35A
:103E0300A3E0600E901E451269A96006901E45123C
:103E130041CE74031211998E828F83A3A3A31262DE
:103E2300F512681712293AE97003023F7F7801748B
:103E330005121439E0C39402400278007407121487
:103E430039E0C3940240027800740C121439E06420
:103E5300F87003A3E0F47003023F7F740C1214396B
:103E6300E064F97003A3E0F47003023F7F740C1263
:103E73001439E064FA7003A3E0F47003023F7F7423
:103E83000C121439E064FB7003A3E0F47003023FE7
:103E93007F7406121439E0F9901BDEE069600302B7
:103EA3003F7FE8A2E04003023F7F7427121439E00A
:103EB3006003023F7FEE2413126B04742212143941
:103EC3001262FF241C126B04741012143912644A18
:103ED3007409121439E0601D741A121439E0FD7468
:103EE30004121439E0FC8E828F8312681779011251
:103EF3002820E9703B740312119112286EE9F50C26
:103F03007409121439E0702C901BD8E060267422D7
:103F1300596422601F74425964427014742012144D
:103F2300391241B3600E74201214391241AC60048B
:103F33007ACF804AE9A2E6504D7420121439125AFE
:103F43003024FD600F14600C24FD600824FD600420
:103F530024FE702874201214391241A5700E7420A7
:103F6300121439126056A3E0640D601A740312111F
:103F7300911229E8E96401700D0241957AD37B001F
:103F8300122166024195EE242DF582E43FF583125A
:103F930043B97003A3E069701D7508007808121017
:103FA300F778081210F7EE242F12570BF91241BFBE
:103FB3001245AA1211067409121439E07003024063
:103FC3005D1241BF126819122A368A0E8B0FEA4B13
:103FD30070030240EE7404121439E0F88E828F836A
:103FE300A3A3E028F8A3E03400F9E8240D12419DCF
:103FF300F88A828B83A3A3A3E068600EE88A828B8E
:1040030083A3A3A3124CB71239B17904E91214396B
:1040130012572AA3E02AF8A3E034008882F583A389
:10402300AA82AB83121C508A088B098C0A8D0B85DC
:104033000E82850F83A3A3A3A378081210AE4003B7
:1040430002419590FE8978081212EA850E82850F47
:1040530083A3A31271AFA312544E901BF0E0640428
:104063006008E064096003024195E50CA2E54003A2
:10407300024128EE242F125713F0EE243012570B6F
:10408300C0E07401121439D0E0F0EE243112570B62
:10409300C0E07402121439D0E0F07414121439E041
:1040A30064017026740E121439124B06241312572E
:1040B3000B687003A3E0697011740C121439124178
:1040C300B970077414121439E4F0EE2425F582E470
:1040D3003FF583120F2B7404121199740712119177
:1040E30012256E7404121106024195901C35E0648A
:1040F30001600302405D74201214391241B3700948
:10410300E50CA2E6500302405D7410121439E0F48A
:104113007003A3E0F4607BEEFCEFFD7403121191D6
:1041230012287A806DA2E650697420121439126540
:10413300387016741A121439E0640270557403123D
:10414300119179001229B280497420121439124155
:10415300AC7014741A121439E064047035740312C9
:1041630011911229A6802B74201214391241A570C3
:104173000C790074031211911229F4801574201222
:104183001439126056E0640C700874031211911212
:104193002A00742902697EE82406F582E439F5834E
:1041A300E022126945E0640322126945E0640722B4
:1041B300125A34640622125227640222EE242BF58B
:1041C30082E43F1271A7EE1251FC22E0F508A3E04E
:1041D300AA08FBE4FCFD1228622274F4120B67EABE
:1041E300FEEBFF8C088D09901B58E0600F126AEEFE
:1041F3007003A3E06970051225EC805379001268FF
:104203000C12261C8A828B83E5824583602CA3A330
:10421300A3A3A3A3E054186021E508241C12425968
:10422300120F2F124255120F2FEE2418124591121E
:104233005CF1126AC6121106801579008E828F8393
:10424300A3A3A312651E125CF11268191225F202D0
:104253003DE9E5082413F582E43509F5832274F773
:10426300120B6774F71211B9EAFEEBFF901BF0E033
:104273006403600DE064016008E0640960030243C5
:104283005F8A828B83A3E0600302432D7C007D0061
:104293007A027B00121BFC126B6B8A82126B0890F2
:1042A3001BE112644A79531223DC901BF0E064098A
:1042B3006009901BEE126819122A3085218285222B
:1042C30083740112606E901BF07404F07401121178
:1042D30091794A1223D674011211997AE67B1B1243
:1042E3001DFA901A6BE0640B70057406F080057973
:1042F30000124364901BE11265247A037B00121BB6
:10430300FC901BE41265247A047B00121BFC901BB7
:10431300DBE0A2E35004D2F08002C2F012605B90B3
:104323001E41121422122862802FFC7D007A037B27
:1043330010121BFC901A6BE0640B7003740AF0906C
:104343001B5CE4F0FA7B40125E4B8E828F83A3E00A
:10435300F9124364901BF0E4F01228A47409024F8D
:1043630000901BEE12681D12258022C082C083902C
:104373001B781269A97017901BF0E024FB600514E9
:104383006007800A901B7E801F901B80801AE8497B
:10439300600712419A6401700C8A828B83A3E0F94F
:1043A300122574800E901C6A1269A9600612605768
:1043B300122EE5025BA2126B0E901BEEE068221236
:1043C3006B0EE8FAE9FB2274F5120B6774D812112D
:1043D300B98A088B098A828B83A3A3A3A3A3A3A36C
:1043E300A3E0C3940F500302457B8A828B83A3A36C
:1043F300A3126B2674151211998A828B83A3A3A32C
:10440300A3A3A3A3A3124580FAA3E0FB1228B074CD
:1044130015121439E0702E850882850983A3A3A39E
:10442300A3A3A3A3A3E0C3940B401A8E828F83A3F9
:10443300A3A3A3A3A3A3A3E064027009EE240B1216
:10444300570BF4600302457B7417121439E06007BD
:104453006402600302457B901BF0E06402601CE091
:1044630064066017901B781269A9700302457B12DA
:10447300419A6401600302457B8025901B78126991
:10448300A9701D75080078081210F778081210F744
:10449300EE24101245918E828F831245AA121106C3
:1044A3008E828F8312717E124B36126B0A74021244
:1044B30014391262FF1239ABC0E07404121439D0FC
:1044C300E01245B3F508A3E0F509740F7808121359
:1044D300997405121439E508F07419121439E0C0FF
:1044E300E07406121439D0E0F0741B121439E0C0E2
:1044F300E07407121439D0E0F07416121439E0C0D6
:10450300E07409121439D0E0F07417121439E0C0C2
:10451300E07408121439D0E0F0EE241012570BC0E7
:10452300E0740A121439D0E0F0741A121439E0C09E
:10453300E0740B121439D0E0F07427121439E0C080
:10454300E0740C121439D0E0F0741C121439A982EF
:10455300AA8389088A09750A0078081210EF7C0873
:104563007D007410121439AA82AB83125702121100
:1045730006AA21AB2212257A742802505EE0F98A3A
:10458300828B83A3A3A3A3A3A3A3A3A3E022F58264
:10459300E43FF583E0F98E828F83A3A3A3A3A3A3B0
:1045A300A3A3A31271A92212681D122970740222F7
:1045B300F0EE125CF6E02274F2120B6774F812113B
:1045C300B98A0A8B0B8C0C8D0D890890FDB0AC2138
:1045D300AD22740812104FC200AC0AAD0BAA21AB76
:1045E3002212679A7002D200901C3C8013AC0AAD71
:1045F3000BEE240BFAE43FFB12679A701B1251ED8A
:10460300124E80601EA20040E48E828F83E0650C10
:104613007004A3E0650D70E58E828F83A3A3E0652C
:104623000870DAEEFAEFFB7408024B43C082C083D2
:10463300901C3C025B9FC082C083901C3CE4F0A3AF
:1046430002489574F7120B67901C3C127097800F09
:10465300EA2414F582E4126B23121D16EEFAEFFB23
:10466300EA4B70EC901C3CE4F0A3F0024F0374F2AD
:10467300120B678A0C8B0DEDFF890B8A828B83E00B
:104683008C828D83F0A3A882A9838A828B831247AD
:104693003A124CB1E0C454F0FA88828983E04AF0BC
:1046A300EC2402F8E43FF9850C828B83A3A3124721
:1046B3003A12474DE0333354FC124741E03333336E
:1046C30054F8124741A3E0A2E0E4331313FA8882BB
:1046D3008983E04AF0EC2403FE50010FE50C240724
:1046E300F508E4350DF509750A0078081210EF7C1A
:1046F300087D00EEFAEF125701121106EE2408FEB0
:1047030050010FE50C240FF508E4350DF509780881
:104713001210EF7C037D00EEFAEF1257011211061F
:10472300E50BC3940F400DE50C2412F582E4350D1F
:10473300125D05F0024B46A3E08882898322FA8842
:10474300828983E04A12474DA322F0850C828B8332
:10475300A3A3A3A32274F2120B67EBFF8C0C8D0DA2
:104763008A82F583E08C828D83127168A3A882A963
:1047730083E0125B4A124B2CC4125B44F0EA1271C1
:1047830072125B51124B2AA2E2E4338C828D8312A4
:104793004B29131313541F125B4AA3124B29A2E78D
:1047A300E4338C828D83A3A3A3A3A3A3F0EA2403FE
:1047B300FE50010FF5088F09750A0078081210EFF3
:1047C3007C087D00E50C24071256FD121106EE2429
:1047D30008FE50010FF5088F0978081210EF7C03CB
:1047E3007D00E50C240F1256FD1211068E828F8375
:1047F300A3A3A3E0C0E012718ED0E0F0024B467495
:10480300F6120B67EAFEEBFF8A82F583A385820823
:10481300858309E0F9122598850882850983E06478
:10482300EB601E8E828F83A3E064E160148E828F1F
:1048330083A3E064F1600A8E828F83A3E0641A701D
:10484300078E828F83A3E4F0901E41121422122854
:104853006275080178081210F78E828F83A3E0F542
:104863000878081210F77900901BEE126524901B4C
:10487300E41245AA1211061228C2025F12C082C0B6
:1048830083E9901C4E7003E4800274018004EAF013
:10489300A3EBF0025BA212681D1223F42274F6123A
:1048A3000B67901C4EE0701B7C0079017A007B0043
:1048B3001228F2EA4B600C8A828B831269A9600387
:1048C300122856025F12C082C083124D60401079D5
:1048D300FF1228ECE9F8903597E493C398500479D4
:1048E3000180027900025BA274F2120B678A0A8BC1
:1048F3000B8909C2008A828B83A3A3A3A3A3A3A3C7
:10490300A3E0F91228F88A0C8B0DAE0CAF0D7508D5
:1049130001EA4F60030249CC850A82850B83126545
:104923001E850A82850B83A3A3A3A3A3A3A3124B70
:104933000B1228E08A0C8B0DAE0CAF0DEA4F7003FF
:10494300024AD88A828B83A3A3A3A3E4F0A3F0E54E
:104953000A240CFAE4350BFB8A82F583E0C0E012EB
:104963004ADFD0E0F0E50A240D124AFF240D126459
:10497300441229D6125205126965E50A2411124A16
:10498300FF2411126444E50A2413126B35C0E012AC
:1049930051F7D0E0F0D200EE2406F8E43FF9124AD2
:1049A300F2124B2D54046003024A3E901E53E0F56D
:1049B3000A750B007407780A1212C48E828F83A3C0
:1049C300A3A3A3A3A3124AE9F08E828F83A3A3A375
:1049D300A3A3A3E0F50AA3E0F50B7407780A121367
:1049E30099E50A5407FCE50960618E828F83A3A3CE
:1049F300A3A3A3A3A3A3A37402125058124DF5605B
:104A03000B901BDC12578BA3A312644AEC700302B6
:104A13004AAFEE2406F8E43FF9E8FAE9124AF2F065
:104A2300EC24FFF50AE434FFF50B7407780A12123D
:104A3300C48A828983124AE9F080718E828F83A3AC
:104A4300A3A3A3A3A3E044800249CBEC700575089C
:104A53000080598E828F83A3A3A3A3A3A3E0542032
:104A6300600C121C56EA547F7900245F80198E82F1
:104A73008F83A3A3A3A3A3A3E05410601A121C560D
:104A8300EA540F7900240A5001098E828F83A3A36D
:104A9300A3A3F0A3E9800D8E828F83A3A3A3A374A2
:104AA30001F0A3E4124B367404124D76A200502891
:104AB3008E828F83A3A3A3A3126823F9EEFAEFFBDD
:104AC3001228E6E960121269A26003124B18EEFA8B
:104AD300EFFB121D16750800A9088067EE240CF57C
:104AE30082E43FF58322E0450AF0A3E0450B2288E8
:104AF30082F583E0547FF0A3E054FC22F582E43591
:104B03000BF583126B0EEE22A3E0F9850A82850B67
:104B13008312681D22124B1F124F7522EE240FF5CC
:104B230082E43FF58322A3A3A3A3124B3122126B8A
:104B330051E022124B3A2212504EA3A3A322740334
:104B43001211067F06020EA674F4120B6774F71295
:104B530011B97E001228F8EA4B7003024BFE8A82D9
:104B63008B83A3A3A3A3A3A3A3A3A3E064066003CC
:104B7300024BFE8A828B83A3A3A3A3A3A3A3E0FF79
:104B83008A828B83127130E0C0E07408121439D02A
:104B9300E0124F2612643712644A12290AEF5408AE
:104BA30060578521828522831265247A007B001257
:104BB30028DAEA4B70431271997C007D007A007BFE
:104BC3000080228E828F83125A30F47003A3E0F4A4
:104BD3006027901BEE124C03124F08601C7C007D73
:104BE30000EEFAEFFB1228DA8A0A8B0BAE0AAF0B40
:104BF300EE4F70CF790012240C7E01EEF9023DE4F2
:104C0300124C0722E0FCA3E0FD8E828F8322C08238
:104C1300C0838A828B83E58245837009901C53800D
:104C2300068A828B83A3A3124E2960208A828B83F8
:104C3300A3A3A3A3A3A3A3E0540860E5EC4D6010D2
:104C4300124E2F7003A3E06D70D780047A007B00AF
:104C5300025BA274F2120B678A088B09890AECFEC5
:104C6300EDFF7A147B00121D10EA4B60378A828BAA
:104C730083A3A3A3A3A3A3A3A3A3E4124CC7E50AFB
:104C8300124F12EEF0A3EF124CB7124F2D124CBE7F
:104C93008A828B831271B1124CAA1268A0A3124CA0
:104CA300B1F0A3F0024B46EA240FF582E42212711D
:104CB3006CA3A322124F18E4F0A322A3F0127129CC
:104CC3001268A022124CCB22124F1CA3A3A3A3222F
:104CD30074F5120B67EAFEEBFF890A8C088D09EA6B
:104CE3004F6075740169701279011228ECE9F8902C
:104CF3003599E493C3985015800A740469700912B6
:104D03004D60500979118052740269704B8E828F05
:104D130083A3A3A3A3A3A3A3A3A3E50A124D6F1283
:104D23005445126A2AA3E4F0A3F0901C531269A914
:104D330060188003126B0A88828983A3A3124E2909
:104D430088828983A3A370EC8003901C53EEF0A3A5
:104D5300EF124D767900800279C102506179041215
:104D630028ECE9F8903598E493C39822126A2EA3AD
:104D7300A3A322F07A207B00901C3BE0F9121C9E37
:104D830022C082C083E9F87900901C53801D8A8277
:104D93008B83A3A3A3A3A3A3A3A3A3E06860057426
:104DA300FF687001098A828B83A3A3124E2970DEE8
:104DB300025BA274F7120B67EA4B7005901C5380D9
:104DC300068A828B83A3A3124E29601F8A828B8358
:104DD300A3A3A3A3A3A3A3A3A3E06970E4EC600F1D
:104DE3008A828B83124DF570D880047A007B00028F
:104DF3004F03127149E0540422C082C083901C53B4
:104E030080068A828B83A3A3124E2960128A828B27
:104E130083A3A3A3A3A3A3A3A3E06970E580047A58
:104E2300007B00025BA212681DEA4B228A828B83FD
:104E3300125A346C2274F2120B678A0A8B0B8C0C95
:104E43008D0D750800750900EA4B602A901C53808C
:104E5300068E828F83A3A3124E80601AAC0CAD0D15
:104E6300EEFAEFFB850A82850B83122EE5E96401D6
:104E730070DF8E088F09AA08AB09024B46E0FEA338
:104E8300E0FFEE4F2274F7120B67901C53126B0A6C
:104E93007C007D00800DE8FCE9FD88828983A3A363
:104EA300126B0AE8496030EA687002EB6970E790B8
:104EB3001C53126819E86A7002E96B88828983A31C
:104EC300A37008126B0A901C538009126B0A8C8220
:104ED3008D83A3A312644A802774F7120B67EAFE3B
:104EE300EBFFEA4F6015122904124F611269A260A9
:104EF30003124B18EEFAEFFB121D16800312110674
:104F03007F01020EA612681D122400E9641A221200
:104F13004F18A3A322124F1C22F08A828B83A3A3D0
:104F2300A3A32212716C125A3422124CCBA3227403
:104F3300F6120B67901C53126B268014126B4312EC
:104F43004F61124B18EEFAEFFB121D16AE08AF09B4
:104F5300EE4F70E8901C53E4F0A3F0025F128E82D0
:104F63008F8312711DF583124F758E828F83124FBB
:104F73007522E0FAA3E0FB121D1622C082C083EA69
:104F8300FCEBFDEA4D6017EA24FBF582EB34FF12DC
:104F930069A77007124FD3E0F46007121C6279050A
:104FA300802B901C3BE0C0E0124FD3D0E0F0903553
:104FB30090E493F97A557B1C121C98E96401700BF9
:104FC3007A007B20124FE2790080027904025BA20F
:104FD300EA24FFF582EB34FFF583227A207B0090ED
:104FE3001C3BE0F9121C9E2274F4120B67A2AFE47F
:104FF30033F508C2AF901C55124E806038EE24FB87
:10500300F582EF34FF1269A77A007B20901C3B6086
:1050130005124FE58005E0F9121CA4E4F50AF50B2F
:10502300780A1210F3EEFCEFFD7A557B1C121C92EA
:105033007402121106E508A2E092AFEEFAEFFB024A
:105043003DE912504AE02212504E22125058A3A3B7
:10505300A3A3A3A322F08E828F83221211067F03C0
:10506300020EA674F2120B6774FA1211B9EAFEEB80
:10507300FF7508FE7509FF1228C8E960057911025A
:1050830051E8125708603C901E6DE0C43354E0F8B9
:10509300E0333354FC48C0E0EE1261173FF583D090
:1050A300E0126B65FAA3E0FB79FF1226A0EA4B60DE
:1050B300127508FFEE240F12570B4404F012570821
:1050C300D2E0F08E828F831252216006EE241212F8
:1050D3006B7DEE241312570B700D90358EE493C045
:1050E300E01251F7D0E0F08E828F83E0A2E7500404
:1050F30054038019EE241412570B7012901BCDE049
:10510300C0E01251EDD0E0F0901BCDE004F0EE24AE
:105113001112570B64017016901E57E0600D901B1F
:10512300D8E0700A8E828F83E07003126B7A8E82CE
:105133008F83E064017013EE240B125A2A64027009
:1051430009EE240F12570B4440F0AC21AD22EEFAC6
:10515300EFFB1229348A0A8B0B74FE650870037403
:10516300FFF47003126B43EA4B60768E828F83E009
:10517300C0E07401121439D0E0F07404121439EE53
:10518300F0A3EFF0EE241E126B0474021214391212
:10519300644A7401121189880C890D780C1210F37A
:1051A300EE242012520A1210F7125205120F2FEE9C
:1051B300240E12520A1210F7901BE1120F2F7408DB
:1051C300121439E0F9AC08AD0912292E7408121132
:1051D30006E9FE74106E700BAA0AAB0B121D168043
:1051E300027E10EEF97406024B43EE2414F582E4BA
:1051F3003FF58322EE1251FC222413F582E43FF59E
:105203008322EE124B2022F582E43FF583E0F50C76
:10521300780C228E828F83A3A3A3A3A3A3A3A3A308
:1052230012522722E0FAA3E0FB1229D0E922C0821E
:10523300C08374D71211B990F5C274031211997413
:105243002612104F8A828B83A3A3A3A3126B0A7423
:105253000E1214391269AF126B0A740C121439123C
:10526300532A240D12531AC0E0741A121439D0E0D1
:10527300F01268A6126B08742012143912532A24F0
:105283001512531AC0E07408121439D0E0F0EA245E
:105293001CF582E43B126B08741212143912532A60
:1052A300241112531AC0E07409121439D0E0F0EA41
:1052B300241212531AC0E07407121439D0E0F0EA32
:1052C300241EF582E43B126B087424121439125322
:1052D3002A242012531AC0E07426121439D0E01283
:1052E300532274FFF0740112143974FFF074021224
:1052F300143974FFF090FEF9120F2B7404121199F4
:10530300740712119112256E740412110679007438
:1053130029121106025BA2F582E43BF583E022F039
:1053230085218285228322E8F0A3E9F0EA2274F43E
:10533300120B6774EC1211B98A0A8B0B8C088D0956
:10534300E9FF7E107A217B00121D108521828522C0
:1053530083EAF0A3EB1269B9E849700302543E7C77
:10536300217D007900852182852283E0FA121C4485
:10537300901BEE12681985218285228312652824E9
:1053830009F582E438F58312696574201214391221
:105393006B0A7411121439E8125A9912696B38F5B1
:1053A300837402125A9C1271377402125A86125471
:1053B30045125A9C127114EFF07422121439125AC6
:1053C30047F9A3E0C9126E0E39F583E812575CA3BF
:1053D300E0C9241FF582E43912544C7423121439A2
:1053E3001268197406121439126965740812143993
:1053F300E8F0742612143912693FC082C083740C1A
:10540300121439AC82AD83D083D082740512104F4D
:105413007425121439E0C0E07413121439D0E0F08B
:105423007900AA21AB221228CEE9640170047E0020
:105433008009852182852283124B1BEEF9741402A5
:105443003DE6E508F0A3E50922F583E50AF0A3E5C7
:105453000BF02274F0120B6774FF1211B9EAFEEB22
:10546300FF8C088D098A82F583A37408F0EA241659
:1054730012570B60088A828B83A37410F0EA2417F7
:1054830012570B60098A828B83A3E02408F0EA1287
:10549300570960088A828B83A3E004F08A828B8396
:1054A300A3A3A3A3A3A3E060198A828B83A3A3A3CB
:1054B300A3A3A3A3E0C3332402F88A828B83A3E0CC
:1054C30028F0EA24111257136004740E8001E4F0EB
:1054D300901E65E0640170168A828B83E06401602C
:1054E3000D901B5CE060071256F3740180041256A2
:1054F300F3E412575C8A828B83A3E0F8EA1239AB98
:1055030028298C828D83F0EA241112570B6005122F
:105513005D3429F0850882850983E0C394754009C9
:10552300750C00750D000256EAE0FA7B00121D109F
:105533008A0C8B0DEA4B70030256EA8E828F83E04E
:10554300FA901BDE125755740278081212C4EA450A
:1055530008FAAB09EE241212574F74067808121298
:10556300C4A808EA48FCEBFD1257086004780180E0
:10557300027800EE2416FAE43FFBE4C8F9ED49FD96
:10558300EE241112570BF5088809740978081212D2
:10559300C4ED4509FD8A828B83125755740B780835
:1055A3001212C4ED4509FDEE241712574F740C78FF
:1055B300081212C4ED4509FD8E828F83A3A3A3A312
:1055C300A3A3125755740A78081212C4ED4509FDB6
:1055D300EE242312574F740D78081212C4ED4509B7
:1055E300F9EC850C82850D83F0E9A3F0EE24021219
:1055F3005732125771F0EE2404125732A3A31257F5
:1056030071A3A3F0EE2413125742F0EE24141257A1
:1056130042A3F0750B088A828B83E06015126A1B24
:10562300126524E50C2408FAE4350DFB121DFA7506
:105633000B10EE241712570B60191265A71265247D
:10564300A80BE50C28FAE4350DFB121DFA740825A6
:105653000BF50B8E828F83A3A3A3A3A3A3E0604EBA
:10566300EE2407F50EE43FF50F850E82F583E0C0C7
:10567300E0125721D0E0125761E0C0E0081257232F
:10568300D0E0125761A31269951210EF850E82853F
:105693000F83E01259FBA80BE50C281256FD1211DB
:1056A30006850E82850F83E0C333250BF50B125756
:1056B300086008C0E0125721D0E0F0125CF11269D3
:1056C300951210EF1239AAFC7D00740312143912DB
:1056D300572AE0F8E50C28F8E4350DF9E82AFAE44E
:1056E30039125701121106AA0CAB0D740102697E1F
:1056F300EA2423F582E43FF58322FAE4350DFB1215
:105703001C38740322EE2415F582E43FF583E0226E
:10571300F582E43FF583E085218285228322A80B6D
:10572300E50C28125A0E22E0FA8E828F83A322F808
:10573300E43FF98882F583E0850C82850D8322F5A9
:1057430082E43FF58312577BA3A3A322F582E43FB0
:10575300F583E0F5087509002212715AF922F00564
:105763000B8E828F83A3A3A3A3A3A3A3A322A3A389
:10577300126B51A312577B22E0850C82850D83A304
:10578300A3A3227403023DE6126B0E8E828F83A3C2
:10579300A32274F0120B6774FD1211B912695F74BE
:1057A30002121439E9F08C0C8D0D750B017C267DEA
:1057B300007900AA0CAB0D121C447402121439E0D8
:1057C300C39408500302598412573AF0AC0CAD0D40
:1057D300852182852283125A30FA8521828522838C
:1057E300126056125D2DE96003750B0085218285D9
:1057F300228312693F125A51E0F9EA850C82850D22
:1058030083A3A3A3A3A3A3A3A3A3F0A3E9125A86E9
:10581300A3A3125A51A3A3E0F9E50C1269BEEA123D
:105823005A99126514C0E0E50C2411127192D0E06C
:10583300125A9C2407F582E438F583E0C0E0127124
:105843008ED0E01269527408125A7DA3E060268557
:105853002182852283E02408F8A3E03400F9E50CD3
:105863002413F582E4350D126448850C82850D837B
:10587300A3E02408F0850C82850D83A3A3A3A3A32F
:10588300A3A3A3E0602A850C82850D83A385820EE2
:1058930085830F125A3EF8A3E03400F9E50C126138
:1058A30017350D126448850E82850F83E02408F0B6
:1058B300125A02E4F0125A16E4F0A3126952A3A397
:1058C300A3A3E06011125A62850C82850D83A3A302
:1058D300A3A3A3125A8EE50C125A23E070030259B4
:1058E30070125A62FA125A02EA125A8EF88521820B
:1058F300852283E028FBA3E034008B82F583E0F864
:10590300E50C241A127192E8125A8EE8C39AE50C38
:105913005056125A1EF8903591E493C39850047E62
:105923000C8006E50C125A1EFE850C82850D83122F
:105933005A3DF508A3E03400F509750A007808120A
:1059430010EFEE1259FB7ACC7B0E1257021211069E
:10595300125A1674CCF0A3740EF0EEC333F8850E0E
:1059630082850F83E0288004125A23E4F0850C8299
:10597300850D83A3E0F8850C82850D83E0C39850E1
:105983000479008070125A3DFAA3E03400FBE50C61
:10599300126B74127195126965850C82850D83E013
:1059A300C398C0E0E50C2417127192D0E0125A7D1F
:1059B300E06040E50C2417FEE4350DFF8E82F5838D
:1059C300E024F2F0E50C241DF8E4350DF98882F5A6
:1059D30083E0240EFAA3E03400FB888289831269F2
:1059E30065901BD9E0F9122826E9F88E828F83E0AF
:1059F300C398F0A90B02697C25E0FCE433FD22E5A2
:105A03000C125A08222419125A0E22F582E4350D7B
:105A1300F58322E50C241B125A0E22125A08E022A7
:105A230012694C125A1122F582E43FF583125A345B
:105A330022126B13F5838882E022A3125A422212A8
:105A43005A472822E0F8852182852283E022A3A3F6
:105A5300E0FA852182852283126945A3A3A32285C7
:105A63000C82850D83A385820E85830F125A42FA19
:105A7300A3E034008A82F583E022126956A3A3A32C
:105A8300A3A322125AA1F583888222F0850E828570
:105A93000F83E004F022F0A3E9125AA1C822127185
:105AA3005EF8A3E02274F4120B678A088B09EA12EA
:105AB3005B51A3A3F0EA1313543F125B44A3F0EA30
:105AC300C41313125B51125B5B7409780A121399A6
:105AD300125B3BA3A3A3A3A3A3F0EB125B3D125B57
:105AE3005A740A780A121399E50A5401C0E0EC12B9
:105AF300694C3DF583D0E0125B5F740B780A121397
:105B030099125B3B125B58740C780A121399125B5F
:105B13003BA3125B58740D780A121399E50A5401DA
:105B2300C0E0EC2424F582E43DF583D0E0F0740E6C
